:020000040000FA
:10000000980220208D010000910100009301000062
:1000100000000000000000000000000000000000E0
:10002000000000000000000000000000950100003A
:10003000000000000000000097010000990100008E
:100040009B0100009B0100009B0100009B01000040
:100050009B0100009B0100009B0100009B01000030
:10006000000000009B0100009B0100000000000058
:10007000000000009B0100009B01000071160000C1
:10008000591500009B0100009B0100009B0100002E
:100090009B0100009B010000000000000000000028
:1000A0009B0100009B010000000000000000000018
:1000B0009B010000000000009B0100009B0100006C
:1000C00000F002F800F052F812A030C808382418E6
:1000D0002D18AC4201D100F049F80FCCA246AB4636
:1000E0000CA730CF2D1B083F3F197C427F1E544484
:1000F0002D090426F441641EAC4201D300F036F809
:100100000126334200D0FB1A3343984754465D46DC
:10011000DFE70000EC2500000C26000000000000D6
:10012000103A02D378C878C1FAD8520701D330C840
:1001300030C101D504680C60704700000000000069
:100140007047000000000000002300240025002666
:10015000103A01D378C1FBD8520700D330C100D583
:100160000B6070471FB51FBD10B510BD00F0C2F980
:100170001146FFF7F7FF01F0B1FB00F0DAF903B425
:10018000FFF7F2FF03BC00F02FFA0000064800471B
:10019000FEE7FEE7FEE7FEE7FEE7FEE70348044969
:1001A000024A044B70470000C10000009801202063
:1001B0009802202098012020002203098B4273D34B
:1001C000030A8B4258D3030B8B423CD3030C8B4264
:1001D00021D312E003460B437FD4002243088B4215
:1001E00074D303098B425FD3030A8B4244D3030BBE
:1001F0008B4228D3030C8B420DD30902FF2212BA83
:10020000030C8B4202D31212090265D0030B8B42FE
:1002100019D300E0090AC30B8B4201D3CB03C01AE8
:100220005241830B8B4201D38B03C01A5241430BC3
:100230008B4201D34B03C01A5241030B8B4201D3B3
:100240000B03C01A5241C30A8B4201D3CB02C01A1E
:100250005241830A8B4201D38B02C01A5241430A96
:100260008B4201D34B02C01A5241030A8B4201D385
:100270000B02C01A5241CDD2C3098B4201D3CB012C
:10028000C01A524183098B4201D38B01C01A5241DB
:1002900043098B4201D34B01C01A524103098B42DF
:1002A00001D30B01C01A5241C3088B4201D3CB00CA
:1002B000C01A524183088B4201D38B00C01A5241AD
:1002C00043088B4201D34B00C01A5241411A00D25D
:1002D00001465241104670475DE0CA0F00D04942C6
:1002E000031000D3404253409C46002203098B4236
:1002F0002DD3030A8B4212D38901FC2212BA030ABE
:100300008B420CD3890192118B4208D3890192113F
:100310008B4204D389013AD0921100E08909C309C4
:100320008B4201D3CB01C01A524183098B4201D3C6
:100330008B01C01A524143098B4201D34B01C01AB1
:10034000524103098B4201D30B01C01A5241C30829
:100350008B4201D3CB00C01A524183088B4201D398
:100360008B00C01A5241D9D243088B4201D34B00B3
:10037000C01A5241411A00D201465241104663460A
:100380005B1001D34042002B00D5494270476346C1
:100390005B1000D3404201B50449002802DC491C2F
:1003A000084000E00846C046C04602BDFFFFFF7F90
:1003B00070477047704710B501469E240002CA1569
:1003C000A307002A02D01843002A04DBA21A002A3D
:1003D0000CDDD04010BD1206120E01D140004008C5
:1003E000A21A03D4D04040420028F3DDFF22480087
:1003F0001206904201D9002010BDC817C0435840D2
:1004000010BD0102C21504D00123DB071943002AE5
:100410000ADB9E239A1A02D40846D0407047FF2276
:1004200041001206914201D900207047C017C04315
:1004300070471F22030C02D10F2200041CD0030EB0
:1004400001D10002083A030F01D10001121F830FEE
:1004500001D18000921E002801DB4000521ED2050F
:100460005118021251181922904004D3491C002837
:1004700001D14908490008467047C10FC90700D09B
:100480004042012292071143D3E701218907D0E7B7
:1004900010B5FF231B0644009C421DD84C009C4213
:1004A0001AD80346124A0B4307D4401A02D3EFF37B
:1004B000008010BDEFF3008010BD081A03D3EFF3E6
:1004C0000080904305E0EFF3008001219043C907CD
:1004D000084380F3008810BD0D231B041A4204D08A
:1004E0001146002000F02DF810BD00F041F810BDBD
:1004F00000000090754600F043F8AE4605006946DE
:100500005346C008C000854618B020B5FFF746FE28
:1005100060BCB64600260027C0C5C0C5C0C5C0C562
:10052000C0C5C0C5C0C5C0C5403D490849008D46CD
:10053000704710B50446C046C0462046FFF71FFE70
:1005400010BDC80212D54803400F002804D0C803CC
:10055000C043012188407047EFF30080000100098B
:1005600003210907084380F3008870470020704783
:1005700010B5024800F008F810BD00000000C07F70
:10058000004870472000202010B50C461107090FC5
:10059000092904D00A290AD008290CD104E01146FF
:1005A0000820FFF7CEFF06E0510606D501E0510610
:1005B00001D50120C007214610BDD10607D5010194
:1005C0000909CC084907000E0006044309E0410F61
:1005D00020024907000A0143200E00061D22D141D6
:1005E00001430846E7E7000001491820ABBEFEE7DB
:1005F000260002007047811E091F00BFFCD2704711
:10060000F0B585B001221402344B19680494A1435B
:100610001960950362490E682E4208D10E682E4279
:1006200005D10E682E4202D10E682E42F3D0457ECF
:1006300015409E69964375199D612025455D0326E9
:100640003540DF69B7437D19DD61254D2E680527EB
:100650002F60476A3C681C627C685C6207243440F7
:100660002C60C4697F252D02DE69AE436406640CEC
:100670003419DC6150C805680095476885680195A4
:10068000C568029503929A69164D15402207120B10
:100690003403A4B2A2183A43009C2407240D144347
:1006A000019A1443029A1443007C20430E4A0240EC
:1006B000501998611868049A104318600398400212
:1006C0000A68024208D10A68024205D10A68024259
:1006D00002D10A680242F3D005B0F0BD08010B4018
:1006E000001340408D00F0FF72FF0F00F0B5184B73
:1006F0001D46083D2E680124A6432E6003263603BE
:1007000030401F68B743381818601868FF26B04398
:10071000C9B2401818602868204328601868002A69
:1007200011D021070843186020021D490A680242BF
:1007300008D10A68024205D10A68024202D10A6859
:100740000242F3D0F0BD210788431860F0BDC046D7
:1007500010010B4010B51149886001225305104863
:1007600004681C4208D104681C4205D104681C427C
:1007700002D104681C42F3D012040B6813430B60CF
:100780000168C90608D40168C90605D40168C9060C
:1007900002D40168C906F3D510BDC04604010B4060
:1007A00004020B40F0B584B06B4A82180292734B7E
:1007B000C618784BC21800922A4BC4180A790191C6
:1007C0000D68294F202A03920AD0254BC018002A11
:1007D00017D16B1E029A536023683B40882517E0AF
:1007E000681E029A506020683840204B18432060F1
:1007F0006068384018436060012045071C4F104670
:1008000008E06B08029A536023683B400525ED0120
:100810002B432360009903683B402B4303603068FF
:100820004F4B1840306070681840706000200860BE
:1008300048608F20C04323690340236163690340FC
:1008400063610198407903990843BD210140106814
:10085000084B0340C818801C106004B0F0BDC046AF
:10086000741800007018000024493E0001040000C4
:10087000FFFFFFCF4000FFCF70B5374A82184B68AB
:1008800053603E4BC3180878222857D8840001A52E
:100890002C59A746330900003D0900003309000028
:1008A0003D0900003D0900003D0900003D09000030
:1008B0003D0900003D0900003D0900003D09000020
:1008C0003D0900003D0900003D0900003D09000010
:1008D0003D090000210900003D0900002109000038
:1008E0003D0900003D0900003D0900003D090000F0
:1008F0003D0900003D0900003D0900003D090000E0
:100900003D0900003D0900003D0900003D090000CF
:100910003D090000210900003D09000021090000F7
:10092000032424071568A543012464072C191460C7
:1009300004E0032424071568A54315600C8AD460DD
:10094000CC68064D25401C68054E264074191C6075
:10095000097A0143116070BD041800007777020026
:100960008888FDFF10B507239B041940920080186A
:10097000024A84589C436118815010BD3018000011
:1009800010B5029CA400001911431943014A81507B
:1009900010BDC0465018000092008018014A8150D6
:1009A0007047C0461018000010B5012212038318CA
:1009B0000C789C604B7883508978014A815010BD37
:1009C0000C110000B0B51122120283580124A34378
:1009D00083508B780C881C438B882343094C1C4024
:1009E0008358094D1D402B1983508B79CC791C43BA
:1009F000097A21437E231940801842689A4351188E
:100A00004160B0BD18670000E798FDFF10B50122F6
:100A1000120383180C789C604978815010BDB0B5E2
:100A2000B02000F099FA102000F096FA0025284630
:100A300000F092FA0024204600F0F0FA681C45B25B
:100A4000002DF7D5B12000F087FA102000F084FACD
:100A5000204600F081FA0025284600F0DFFA601CED
:100A600044B2002CF7D5B22000F076FA102000F046
:100A700073FA284600F070FA0024204600F0CEFAFF
:100A8000681C45B2002DF7D5B32000F065FA1020A0
:100A900000F062FA204600F05FFA0025284600F0D8
:100AA000BDFA601C44B2002CF7D5B42000F054FA13
:100AB000102000F051FA284600F04EFA002420469B
:100AC00000F0ACFA681C45B2002DF7D5B52000F057
:100AD00043FA102000F040FA204600F03DFA0025CD
:100AE000284600F09BFA601C44B2002CF7D5B620D3
:100AF00000F032FA102000F02FFA284600F02CFA0D
:100B00000024204600F08AFA681C45B2002DF7D573
:100B1000B72000F021FA102000F01EFA204600F065
:100B20001BFA002000F07AFA601C44B2002CF8D5C1
:100B3000B0BD0000F0B583B0009001200204029027
:100B4000400401900024794B06E01868029988431C
:100B50001860641C082C4FD0009DA5402D0601D5BF
:100B60009C4D01E09B4D10350298C6032E604F2628
:100B70005E6000279F601868052528431860186884
:100B8000104208D11868104205D11868104202D1ED
:100B900018681042F3D018680299884318600198C9
:100BA0008B4908605E609F60186828431860186869
:100BB000104208D11868104205D11868104202D1BD
:100BC00018681042F3D01868029988431860019899
:100BD0007F4908615E609F60186828431860186844
:100BE0001042B2D118681042AFD118681042ACD18F
:100BF00018681042F3D0A8E70198754908605E6054
:100C00009F601868284318601868104208D1186857
:100C1000104205D11868104202D118681042F3D072
:100C200018680299884318600198694908615E60F4
:100C30009F601868284318601868104208D1186827
:100C4000104205D11868104202D118681042F3D042
:100C5000186802998843186003B0F0BDF0B582B0FF
:100C60000120C103EA4A01911160EA494F234B6018
:100C700000248C600A6805252A430A6002040F6874
:100C8000174208D10F68174205D10F68174202D1E9
:100C90000F681742F3D00F6887430F604604DE4F9A
:100CA00000963E604B608C600E682E430E600E68AE
:100CB000164208D10E68164205D10E68164202D1BE
:100CC0000E681642F3D00E6886430E60019ED04F28
:100CD0003E614B608C600E682E430E600E681642BB
:100CE00008D10E68164205D10E68164202D10E6870
:100CF0001642F3D00E6886430E60009EF74F3E61A9
:100D00004B608C600B682B430B600B68134208D15F
:100D10000B68134205D10B68134202D10B681342D2
:100D2000F3D00A6882430A6002B0F0BD10E000E030
:100D300080B501204104E94A1160C003E54908601B
:100D4000AE2000F009F9D52000F006F9802000F06F
:100D500003F9A82000F000F93F2000F0FDF8D320AF
:100D600000F0FAF8002000F0F7F8402000F0F4F866
:100D7000A12000F0F1F8C82000F0EEF8DA2000F031
:100D8000EBF8122000F0E8F8812000F0E5F8CF2021
:100D900000F0E2F8D92000F0DFF8F12000F0DCF8F4
:100DA000DB2000F0D9F8302000F0D6F8A42000F0C5
:100DB000D3F8A62000F0D0F88D2000F0CDF8142054
:100DC00000F0CAF8AF2000F0C7F8FFF728FE80BD9A
:100DD00090120A4090320A40F0B583B016460C4695
:100DE000400002907E30B02101910843C0B200F073
:100DF000B3F8E700083FF8B204091034204600F0C9
:100E0000ABF808253D40284600F0A6F830012149FE
:100E10004618214FF05D00F001F9F619707800F0E6
:100E2000FDF8B07800F0FAF8F07800F0F7F83079D3
:100E300000F0F4F8707900F0F1F8B07900F0EEF815
:100E4000F07900F0EBF80298401E01990843C0B217
:100E500000F082F8204600F07FF8284600F07CF889
:100E6000307A00F0DBF8707A00F0D8F8B07A00F051
:100E7000D5F8F07A00F0D2F8307B00F0CFF8707B34
:100E800000F0CCF8B07B00F0C9F8F07B00F0C6F8B9
:100E900003B0F0BDB820000000FEFFFFF0B587B042
:100EA00003AC0FC4002B3CD00698451E801E019059
:100EB00000261D4F029513E001210498341805986F
:100EC00000F08EFE0A21FFF777F930220A43E1B2E3
:100ED0000398FFF781FF6D1E761C0698864220D08E
:100EE00002988642E8D003200199891B032901D288
:100EF000012105E02A46824301217943121FFCD1DA
:100F0000F243069BD2180240D7D0012A01D10A2011
:100F100005E0022A02D07D20C00000E064204143A9
:100F2000CBE707B0F0BDC04610270000F0B581B098
:100F30000646107800280DD014460D460027791972
:100F4000C9B2C2B23046FFF747FF7F1CF8B2205C3F
:100F50000028F4D101B0F0BDF0B581B00546FFF72F
:100F60007DFE7820FFF7E6FD00242046FFF7E2FD36
:100F70002846FFF7DFFD0120C103AF4A0091116150
:100F800055494F264E608C600A6805273A430A602F
:100F900002040D68154208D10D68154205D10D688F
:100FA000154202D10D681542F3D00D6885430D60DE
:100FB00045044A4B1D604E608C600B683B430B60E0
:100FC0000B68134208D10B68134205D10B6813421A
:100FD00002D10B681342F3D00B6883430B60009B74
:100FE000954D2B604E608C600B683B430B600B682B
:100FF000134208D10B68134205D10B68134202D18A
:101000000B681342F3D00A6882430A6001B0F0BD56
:1010100090320A4010E000E090120A40F0B581B032
:101020000446FFF71BFE7820FFF784FD4020FFF702
:1010300081FD2046FFF77EFD0120C1037E4A00911D
:10104000116125494F254D6000268E600A680527ED
:101050003A430A6002040C68144208D10C68144236
:1010600005D10C68144202D10C681442F3D00C680C
:1010700084430C604404194B1C604D608E600B6807
:101080003B430B600B68134208D10B68134205D138
:101090000B68134202D10B681342F3D00B688343F1
:1010A0000B60009B644C23604D608E600B683B437B
:1010B0000B600B68134208D10B68134205D10B6813
:1010C000134202D10B681342F3D00A6882430A60CC
:1010D00001B0F0BD90320A4010E000E090120A40EA
:1010E00010B514490A78022A06D0012A1CD10D38FD
:1010F0004242424150001AE00F4B1C880F4A1055E3
:10110000601C188080B2032812D300201880137846
:101110000B4C237053780B4C23700B4B1C7892783C
:101120001A700A4A147002E00C2801D101200870DC
:1011300010BDC0468800202086002020830020208B
:10114000000020200100202082002020810020209B
:1011500001214A051148036813405A425A41036865
:101160001B0200D402220068C00100D403220C4BF1
:101170001878022806D0012809D1002A0CD00221B3
:10118000104607E00021002A084604D102E00020B2
:10119000002A00D0197070470020704780330A4041
:1011A00089002020B0B51D4A0020506290621C4B7F
:1011B00086201863012044051A490C608724DC64EA
:1011C000C5050D601C6504060C60842454638024EE
:1011D0000C6082241465144C546581241460D46717
:1011E0005C61124DDD635D649D645C609C601C60AD
:1011F0005467DC600A46303A0D4B13600A46403AA9
:10120000430413600B4A0A6041030B4A1161C00397
:101210001060052040031064B0BDC0460480424009
:1012200088804240D0120A408200040081000600FB
:1012300001F0000001F0020090320A40B0B582B027
:10124000104C11492046FFF7AFFB10492046FFF72D
:10125000A9FA00250095202120462A462B46FFF7B3
:101260008FFB204629462A46FFF77CFB7D20810024
:1012700020462A46FFF790FB054801218160016066
:1012800002B0B0BD00808640A826000004002020E7
:101290000091864070B582B0194C1A492046FFF77C
:1012A00083FB19492046FFF77DFA00250095202190
:1012B00020462A462B46FFF763FB204629462A464E
:1012C000FFF750FB7D20810020462A46FFF764FB94
:1012D00001260096204629462A462B46FFF750FB5A
:1012E000204629463246FFF73DFB20462946324636
:1012F000FFF752FB054886600321016002B070BD14
:1013000000A08640AB2600000C00202000B18640E3
:10131000B0B582B0104C11492046FFF745FB10498B
:101320002046FFF73FFA00250095202120462A4657
:101330002B46FFF725FB204629462A46FFF712FBDE
:101340007D20810020462A46FFF726FB0548012123
:101350008160016002B0B0BD00000940AE2600000F
:10136000140020200011094070B5174800240460C3
:101370000F200002154D29688143012670020818CC
:1013800028600320C1432A1F13680B40136069685B
:10139000B143696031026A688A436A6000031421BC
:1013A0002246FFF7A3F90A48FFF72AF92868102117
:1013B00001432020814329603003296801432960CB
:1013C0002046FFF7C7F970BD08030B4004010B402E
:1013D000B426000010B50C4C0C492046FFF7E4FA87
:1013E0000B492046FFF748FA0A48016802220A43DF
:1013F000026009480168C0220A433F218A43026013
:1014000006480121016010BD00400840DC260000B4
:10141000E02600002850084010E400E00851084091
:1014200010B5204C20492046FFF7F0FA1F4920460E
:10143000FFF7C8FA0322D1031D4803688B430360FA
:1014400001691C4B0B401533036141692D230B438C
:1014500012218B434361436801210B4044688C4354
:10146000E31843609202144B1C6814431C60FF2273
:101470001206124B1C6894431C604A040368134311
:101480000360C2682023134350229343C360C268A1
:101490000223134305229343C36002680A43026098
:1014A00010BDC04600801040F4260000F626000063
:1014B000009110400000FFFF289010400CE400E075
:1014C00080B500F019F8FFF76DFEFFF74DFFFFF74D
:1014D000B5FEFFF7DFFEFFF71BFFFFF77BFFFFF710
:1014E0009FFF7420024900220A5402490A5480BD19
:1014F00018012020A0002020F0B581B00D480E4931
:1015000041600E4A51600E4B59600E4C61600E4DA9
:1015100069600E4E71600E4F79600E490160116076
:10152000196021602960316039601020FFF763F88D
:1015300001B0F0BD00080A40030000B100280A40D5
:101540000088864000A886400008094000480840FE
:10155000008810400100002670B53D480068C0B208
:10156000022874D13B480188491C0180FFF7F0FD37
:1015700039490870087803284ED002280CD0012879
:1015800050D137480178491C374A4A43120C092385
:101590005343C91A017045E0314A107810702F4941
:1015A000087808702F480368DB0708D00368DB075A
:1015B00005D00368DB0702D00368DB07F3D14123C2
:1015C00083610368DB0708D00368DB0705D0036885
:1015D000DB0702D00368DB07F3D142238361127873
:1015E0000368DB0708D00368DB0705D00368DB0767
:1015F00002D00368DB07F3D1826109780268D20761
:1016000008D00268D20705D00268D20702D002686B
:10161000D207F3D1816105E010480178491C03220B
:101620000A400270114C0025204629462A4600F047
:1016300035F8FEF7C0FE0646204629462A4600F049
:101640007DF8FEF7B8FE0146304600F03DFA70BD69
:10165000205008409C002020900120209101202053
:101660008000202008911040721C00000000B4424D
:1016700010B507480068C0B20B2807D105480068BC
:10168000C4B22046FFF72CFD0348048010BDC046BD
:10169000209010402491104092012020F0B583B09A
:1016A00014460246224800780027FF283DD00E4607
:1016B00002927D38FEF7E1FE0546FEF77CFEC1177B
:1016C0004840401A032830D31A4801680191056048
:1016D000194F3868294600F095FB3860314600F014
:1016E0002BFC06460298294600F026FC314600F005
:1016F00089FB06462846019900F076FC0146204603
:1017000000F01AFC314600F07DFB0546324C2146C4
:1017100000F061FB002800D12C46304F20463946AE
:1017200000F064FB002800D12746384603B0F0BD26
:10173000000020208C00202090002020F0B583B0F5
:1017400014460246DB4800780027FF283DD00E46AD
:1017500002927D38FEF791FE0546FEF72CFEC1177A
:101760004840401A032830D31948016801910560A8
:10177000184F3868294600F045FB3860314600F0C4
:10178000DBFB06460298294600F0D6FB314600F006
:1017900039FB06462846019900F026FC0146204602
:1017A00000F0CAFB314600F02DFB05460A4C2146ED
:1017B00000F011FB002800D12C46084F2046394686
:1017C00000F014FB002800D12746384603B0F0BDD6
:1017D000940020209800202000007A4400007AC461
:1017E000B0B5002876D001210A043B4B04E01C6808
:1017F0008C431C60401E6DD04F245C6000249C60B4
:101800001C68052525431D607D24E40001E0083C9B
:10181000EDD01D68154208D11D68154205D11D681F
:10182000154202D11D681542F3D01D68154208D13A
:101830001D68154205D11D68154202D11D6815426B
:10184000F3D01D68154208D11D68154205D11D68E9
:10185000154202D11D681542F3D01D68154208D10A
:101860001D68154205D11D68154202D11D6815423B
:10187000F3D01D68154208D11D68154205D11D68B9
:10188000154202D11D681542F3D01D68154208D1DA
:101890001D68154205D11D68154202D11D6815420B
:1018A000F3D01D68154208D11D68154205D11D6889
:1018B000154202D11D681542F3D01D681542A6D10C
:1018C0001D681542A3D11D681542A0D11D6815429F
:1018D000F3D09CE7B0BDC04610E000E084B0FFF755
:1018E000EFFD012630046449086064480268324311
:1018F0000260F003624A10600860F54361490868BD
:1019000028400860604F386828403860FFF710FAB8
:10191000FFF785F802245DA220463146FFF706FB5B
:1019200008215CA22046FFF701FB564908683043B6
:101930000860386830433860584800F023F9A34CF9
:10194000206830432060E12080000090FFF748FFCE
:10195000206828402060019670030390514D554F38
:101960002878002820D04E49039A0A6101281ED108
:101970004D48007800281AD1009E3046643800F0A7
:1019800001F9924D2868019C204328603046FFF7FA
:1019900027FF464800F0F6F83046FFF721FF286899
:1019A000A04328603F4D02E03D4803990160404854
:1019B00002780121032420462346FFF76FFA3A7884
:1019C000082120462346FFF769FA3B48008865282E
:1019D000C6D33A4C20782070394E307830702A784F
:1019E0000127384639463B46FFF758FA2078421C13
:1019F0000224052120463B46FFF750FA3078421C6E
:101A00000D2120463B46FFF749FA29480278032476
:101A1000204639462346FFF741FA26480278082136
:101A2000029120462346FFF739FA2A780C212046F6
:101A30002346FFF733FA0025224829462A46FFF7B6
:101A40002DFEFEF7DEFC0246042630463946194FCD
:101A50002346FFF723FA1B4829462A46FFF76EFE66
:101A6000FEF7CFFC0246304602992346FFF716FAEE
:101A7000114805800B4D73E700E100E00458084071
:101A800080E200E00498864004B8864041494D3A1F
:101A9000000000006D6F64653A00000070FEFFFFFB
:101AA00090320A408200202081002020E0FCFFFFCD
:101AB00000002020010020209C0020208000202009
:101AC0009101202000002041F0B581B0404A13462A
:101AD00010330028154600DC1D46012466032E60E5
:101AE000002900DC1A46A303136023031360CA17FE
:101AF00051408D1AC1174840411A1C4F3E68354865
:101B0000042901D8A64310E000F06AF818490860DB
:101B100026433E60FFF792FB1548006841081548D0
:101B20000022FEF739FF3E6826433E60124F042D27
:101B300002D83868A04316E02648294600F050F83D
:101B40000E4E3060FFF7A6FB306841080C4D0022B6
:101B50002846FEF721FF3068410828462246FEF756
:101B60001BFF38682043386001B0F0BD0498864000
:101B7000040020200080864004B886400C0020200D
:101B800000A0864070B5114C00281AD010490028DA
:101B900000D510310125EA030A60C1174840411AF7
:101BA0000C4800F01DF80C4E3060FFF7B1FB3068B8
:101BB00041080A480022FEF7EFFE20682843206013
:101BC00070BD206801218843206070BD0418094061
:101BD00090120A4040420F001400202000000940EB
:101BE00043088B421AD3002203098B4279D3030A9C
:101BF0008B425ED3030B8B4242D3030C8B4227D321
:101C00000902FF2212BA030C8B4202D312120902FC
:101C100003D0030B8B4233D31AE0D3E0411A804147
:101C2000401C704703460B4371D443088B42F5D3E5
:101C3000002203098B4254D3030A8B4239D3030B8E
:101C40008B421DD3030C8B4202D394466EE0090AEB
:101C5000C30B8B4201D3CB03C01A5241830B8B427F
:101C600001D38B03C01A5241430B8B4201D34B0368
:101C7000C01A5241030B8B4201D30B03C01A5241CD
:101C8000C30A8B4201D3CB02C01A5241830A8B4252
:101C900001D38B02C01A5241430A8B4201D34B023B
:101CA000C01A5241030A8B4201D30B02C01A52419F
:101CB000CDD2C3098B4201D3CB01C01A5241830953
:101CC0008B4201D38B01C01A524143098B4201D38D
:101CD0004B01C01A524103098B4201D30B01C01AB8
:101CE0005241C3088B4201D3CB00C01A5241830832
:101CF0008B4201D38B00C01A524143088B4201D35F
:101D00004B00C01A5241411A524110007047CA0F8D
:101D100000D04942031000D34042534000229C4669
:101D200003098B422DD3030A8B4212D38901FC2273
:101D300012BA030A8B420CD3890192118B4208D349
:101D4000890192118B4204D3890137D0921100E0AE
:101D50008909C3098B4201D3CB01C01A52418309BF
:101D60008B4201D38B01C01A524143098B4201D3EC
:101D70004B01C01A524103098B4201D30B01C01A17
:101D80005241C3088B4201D3CB00C01A5241830891
:101D90008B4201D38B00C01A5241D9D243088B42E7
:101DA00001D34B00C01A5241411A00D201465241A0
:101DB000104663465B1000D34042704763465B1099
:101DC00000D3404201B50021004201D0C94308467A
:101DD000C046C04602BD10B500F05AF8EFF30080CF
:101DE0004000800F012800D0002010BD10B500F089
:101DF00079F8EFF30080800001D4012010BD0020AD
:101E000010BD000070B50125ED0704004C4020D442
:101E1000441A01D2001B0919C60D4B00F2B2FF2A69
:101E200029D01B0E2CD000020C0228432C43D31ABD
:101E3000DC40051910D2280A02D3401C6D0611D0CF
:101E4000761EF6058019FF2A00DA70BDC00DC005A8
:101E500070BD694000F0CEF801200543C541521C19
:101E6000761CE8E764089C40C90161408900E7D11D
:101E70000124A043E4E71B0E440200D0034870BDD8
:101E8000002AFCD1C00FC00770BD00BF0000C07F9A
:101E90000123DB0502000A430DD4DA4203D49A423F
:101EA00007D488427047D84214D4D94212D4884209
:101EB000704780427047DA4203D59A42F9D5814291
:101EC00070475B004200DA4204D24A00DA4201D293
:101ED0008142704710B5024AFEF7DAFA10BD00BF22
:101EE000090013040123DB0502000A430DD4DA4282
:101EF00003D49A4207D488427047D84214D4D942B6
:101F000012D48842704780427047DA4203D59A4221
:101F1000F9D5814270475B004200DA4204D24A00A0
:101F2000DA4201D28142704710B5024AFEF7B0FA98
:101F300010BD00BF0900160470B5420064414B009B
:101F40005C41120E39D01B0E38D0FF2A3CD0FF2B3B
:101F50003AD0D2187F3A40024902400A490A45184D
:101F6000ED0106004E43000A090A48430104731AB2
:101F70004019190C4318990F04D05B080121490737
:101F80005B1A521CD80904D3401CF50301D19D06ED
:101F900007D0FF2A08D2D50506D0E4072043401910
:101FA00070BD0125A843F4E7002A01DCE00770BDFD
:101FB0002402FF202043C00570BD1B0EFF2A03D062
:101FC000FF2B01D0E00770BDFF2636064500B54265
:101FD00006D84D00B54203D8D218FF2A00D0E7E753
:101FE000004870BD0000C07F70B50125ED070400FA
:101FF0004C4022D4441A02D26C40001B0919C60D71
:102000004B00F2B2FF2A4BD01B0E50D000020C0244
:10201000A8432C43D31ADC40051B05D5AD0019D3CA
:102020006D08761E521E37D0F605280A01D2801997
:1020300070BD70416D0603D070BD6940FFF7E8FECA
:102040009C4009026140490001D0401E70BD01243E
:10205000A04370BD6D081DD001202B0C01D12D04B3
:1020600010302B0E01D12D0208302B0F01D12D0184
:10207000001DAB0F01D1AD00801CEB0F01D16D0035
:10208000401C361A121A6D00680AF5054019012A1B
:1020900002DB70BD002070BDC036300AC00770BDC5
:1020A0001B0E440201D1FF2B00D1024870BD002A53
:1020B000F0D070BD0000C07F0000000000000000F4
:1020C0000000000000000000000000F80000000018
:1020D000000000333000000000100C06100C060059
:1020E000000000000000000040C07840C0784000C0
:1020F000043F04043F040400007088FC0830000022
:10210000001820FF211E0000F008F000E018000079
:1021100000211C031E211E0000F008887000000032
:102120001E2123241927211010160E000000000084
:102130000000000000000000000000E018040200A1
:10214000000000071820400000020418E000000012
:102150000040201807000000404080F08040400010
:102160000202010F01020200000000F00000000066
:102170000101011F0101010000000000000000003A
:1021800080B07000000000000000000000000000AF
:102190000001010101010101000000000000000038
:1021A00000303000000000000000000080601804D3
:1021B000006018060100000000E010080810E000B0
:1021C000000F102020100F00001010F80000000079
:1021D0000020203F202000000070080808887000C0
:1021E0000030282422213000003008888848300040
:1021F0000018202020110E000000C02010F8000060
:1022000000070424243F240000F8088888080800F8
:102210000019212020110E0000E01088881800000D
:10222000000F112020110E0000380808C8380800DF
:102230000000003F0000000000708808088870005F
:10224000001C222121221C0000E010080810E000E0
:102250000000312222110F00000000C0C000000069
:10226000000000303000000000000080000000008E
:102270000000806000000000000080402010080086
:10228000000102040810200040404040404040004F
:10229000040404040404040000081020408000002A
:1022A0000020100804020100007048080808F0002F
:1022B0000000003036010000C030C828E810E000FF
:1022C0000718272423140B000000C038E00000008A
:1022D000203C23020227382008F8888888700000F4
:1022E000203F202020110E00C030080808083800C8
:1022F000071820202010080008F808080810E0003F
:10230000203F202020100F0008F88888E8081000DF
:10231000203F20202320180008F88888E8081000B3
:10232000203F200003000000C030080808380000EB
:1023300007182020221E020008F808000008F808EC
:10234000203F210101213F20000808F80808000073
:102350000020203F2020000000000808F8080800A6
:10236000C08080807F00000008F888C0281808001E
:10237000203F20012638200008F808000000000057
:10238000203F20202020300008F8F800F8F808004E
:10239000203F003F003F200008F830C00008F80848
:1023A000203F200007183F00E01008080810E00058
:1023B0000F10202020100F0008F808080808F0006F
:1023C000203F210101010000E01008080810E00092
:1023D0000F18242438504F0008F888888888700027
:1023E000203F2000030C30200070880808083800C7
:1023F0000038202121221C00180808F808081800BD
:102400000000203F2000000008F808000008F8083D
:10241000001F202020201F000878880000C83808EE
:10242000000007380E010000F80800F80008F80066
:10243000033C0700073C0300081868808068180800
:1024400020302C03032C30200838C800C83808007E
:102450000000203F2000000010080808C8380800CD
:102460002038262120201800000000FE0202020071
:102470000000007F40404000000C30C00000000021
:10248000000000010638C00000020202FE00000049
:10249000004040407F0000000000040202020400EF
:1024A000000000000000000000000000000000002C
:1024B0008080808080808080000202040000000014
:1024C000000000000000000000008080808000000C
:1024D0000019242222223F2008F8008080000000FA
:1024E000003F112020110E000000008080800000BD
:1024F000000E112020201100000000808088F800CC
:10250000000E112020103F200000808080800000FD
:10251000001F222222221300008080F08888881861
:102520000020203F2020000000008080808080006C
:10253000006B94949493600008F800808080000001
:10254000203F210000203F200080989800000000DC
:102550000020203F2020000000000080989800000C
:1025600000C08080807F000008F80000808080002C
:10257000203F24022D302000000808F80000000051
:102580000020203F2020000080808080808080000C
:10259000203F20003F20003F80800080808000009E
:1025A000203F210000203F2000008080808000002C
:1025B000001F202020201F0080800080800000005D
:1025C00080FFA12020110E0000000080808080008C
:1025D000000E112020A0FF8080808000808080007D
:1025E00020203F21200001000000808080808000AA
:1025F0000033242424241900008080E0808000001F
:102600000000001F2020000080800000008080006B
:10261000001F202020103F208080800000808080CC
:1026200000010E300806010080800080008080805C
:102630000F300C030C300F00008080008080800081
:102640000020312E0E3120008080800000808080AC
:1026500080818E701806010000808080808080005C
:102660000021302C2221300000000000807C02027A
:1026700000000000003F404000000000FF0000009C
:1026800000000000FF0000000002027C800000004B
:102690000040403F00000000000601010202040467
:1026A0000000000000000000040300040300040315
:1026B0000000000003000000000000000100000016
:1026C00040000000200000000000000002000000A8
:1026D00013000000020000002400C44108070400A9
:1026E000220000000F270000010000000000000091
:1026F000000000000800000018000000003000008A
:102700002027000000002020200000002001000001
:10271000402700002000202078020000480100002F
:102720007D7D0000E803000020000000E8030000B9
:1027300020000000E803000020000000000000006E
:04000005000000C136
:00000001FF
