:020000040800F2
:10000000705C00206D020008B1270008AB230008D7
:10001000AD270008B10300086139000800000000A6
:10002000000000000000000000000000AD0100081A
:10003000CF0400080000000009020008D52B0008CA
:10004000870200088702000887020008870200086C
:10005000870200088702000887020008870200085C
:10006000870200088702000887020008870200084C
:10007000870200088702000887020008870200083C
:1000800087020008870200088702000800000000BD
:1000900000000000000000000000000087020008CF
:1000A000870200088702000887020008870200080C
:1000B00087020008B52C00088702000887020008A4
:1000C00087020008870200088702000887020008EC
:1000D00087020008D13500088702000800000000F0
:1000E000870200088702000887020008000000005D
:1000F000000000000000000000000000870200086F
:10010000000000008702000887020008870200083C
:1001100000000000000000000000000000000000DF
:100120008702000887020008B5030008870200085C
:10013000870200080000000000000000000000002E
:10014000000000000000000000000000870200081E
:10015000870200088702000887020008870200085B
:10016000870200088702000800000000000000006D
:10017000000000000000000000000000000000007F
:1001800000000000870200080000000000000000DE
:100190008702000887020008DFF80CD000F0F6F8AC
:1001A00000480047E93F0008705C00202C4B1968AC
:1001B0000868B0E8F04F80F30988BFF36F8F4FF005
:1001C000000080F3118870470000000008480068B4
:1001D000006880F308884FF0000080F3148862B64E
:1001E00061B6BFF34F8FBFF36F8F00DF00BF00BF5B
:1001F00008ED00E0DFF80C00016841F470010160D7
:10020000704700BF88ED00E0EFF30980BFF36F8F08
:10021000134B1A681EF0100F08BF20ED108A20E95A
:10022000F04F106009B44FF0500080F31188BFF315
:100230004F8FBFF36F8F05F0C9F94FF0000080F3C7
:10024000118809BC19680868B0E8F04F1EF0100F5B
:1002500008BFB0EC108A80F30988BFF36F8F704736
:100260001C000020EFF3058070470000064880471F
:1002700006480047FEE7FEE7FEE7FEE7FEE7FEE78B
:10028000FEE7FEE7FEE7FEE7A12C00089901000863
:100290002DE9F05F0546002092469B4688460646BB
:1002A000814640241BE0284641464746224600F04E
:1002B0005CF853465A46C01A914110D3114618466D
:1002C000224600F043F82D1A67EB01084F462246FC
:1002D0000120002100F03AF817EB00094E41201EE2
:1002E000A4F10104DFDC484631462A464346BDE816
:1002F000F09F40EA01039B0703D009E008C9121FE1
:1003000008C0042AFAD203E011F8013B00F8013BCF
:10031000521EF9D27047D2B201E000F8012B491EFB
:10032000FBD270470022F6E710B513460A46044692
:100330001946FFF7F0FF204610BD034611F8012BC8
:1003400000F8012B002AF9D118467047202A04DB57
:10035000203A00FA02F1002070479140C2F12003D8
:1003600020FA03F3194390407047202A04DB203A17
:1003700021FA02F00021704721FA02F3D040C2F1C5
:10038000200291400843194670470000064C074D73
:1003900006E0E06840F0010394E807009847103455
:1003A000AC42F6D3FFF7FCFE287100084871000844
:1003B00000BFFEE710B5024800F0F8F810BD0000DD
:1003C000FC0100200146087810381823B0FBF3F236
:1003D0000848805CC865032A05D908686FF30900DE
:1003E000001D886503E008686FF309008865886D63
:1003F00070470000FC690008014600208A6A8B698A
:10040000CBB932B1012A0DD0022A03D0032A10D170
:100410000EE000BFCB6A03F08073B3F1807F00D1A0
:10042000012007E0CB6AB3F1C07F00D1012001E0D9
:1004300000E000BF34E08B69B3F5005F1AD132B140
:10044000012A07D0022A03D0032A11D10AE000BFF3
:1004500001200EE0CB6A03F08073B3F1807F00D1FE
:10046000012006E0CB6AB3F1C07F00D1012000E09B
:1004700000BF15E032B1012A05D0022A04D0032AB8
:100480000CD103E000BF00BF012008E0CB6A03F0FD
:100490008073B3F1807F00D1012000E000BF00BF76
:1004A000704730B50468246824F4802405682C6003
:1004B000046863608468402C04D10468A260046806
:1004C000E16003E00468A1600468E26030BD704749
:1004D00072B600BFFEE770B50446A56D00F042FBA2
:1004E000064694F83500022808D08020606500BFD9
:1004F000002084F8340000BF012070BD206800682F
:1005000020F01600216808602068406920F0800013
:1005100021684861206C08B9A06C28B12068006887
:1005200020F00800216808602068006820F00100C1
:100530002168086010E000F015FB801B05280BD92E
:1005400020206065032084F8350000BF002084F877
:10055000340000BF0320D0E72068006800F00100ED
:100560000028E8D194F85C103F208840A860012062
:1005700084F8350000BF002084F8340000BF00BFBD
:10058000BBE7014691F83500022803D0802048657A
:1005900001207047052081F835000868006820F0C8
:1005A00001000A6810600020F3E70000F8B5044677
:1005B000002000908C4800684FF41651B0FBF1F712
:1005C000A56D2E6894F85C1008208840304098B1E2
:1005D0002068006800F0040070B12068006820F016
:1005E00004002168086094F85C1008208840A86026
:1005F000606D40F00100606594F85C100120884057
:10060000304068B12068406900F0800040B194F843
:100610005C1001208840A860606D40F002006065B9
:1006200094F85C1004208840304068B1206800686D
:1006300000F0020040B194F85C1004208840A860EB
:10064000606D40F00400606594F85C1010208840F4
:10065000304078B32068006800F0080050B394F888
:100660005C1010208840A8602068006800F480209A
:1006700080B12068006800F4002028B9206CC8B15F
:100680002046216C884715E0A06C98B12046A16CEB
:1006900088470FE02068006800F4807028B920685F
:1006A000006820F0080021680860206C10B1204626
:1006B000216C884794F85C10202088403040002846
:1006C00065D02068006800F0100000285FD094F822
:1006D0005C1020208840A86094F83500052828D1B7
:1006E0002068006820F016002168086020684069D2
:1006F00020F0800021684861206C08B9A06C28B106
:100700002068006820F008002168086094F85C10F8
:100710003F208840A860012084F8350000BF0020F9
:1007200084F8340000BF206D10B12046216D884749
:10073000F8BD2068006800F4802080B1206800685F
:1007400000F4002028B9606C10B12046616C884725
:100750001DE0E06BD8B12046E16B884717E02068C8
:10076000006800F4807068B92068006820F010000C
:1007700021680860012084F8350000BF002084F85B
:10078000340000BFE06B10B12046E16B8847606D1C
:1007900038B3606D00F00100F0B1052084F8350039
:1007A0002068006820F001002168086000BF009800
:1007B000401C0090B84200D905E02068006800F0B5
:1007C00001000028F3D100BF012084F8350000BFEC
:1007D000002084F8340000BFE06C10B12046E16CCA
:1007E000884700BFA4E70000180000202DE9F04171
:1007F0000446002500F0B6F9074614B90120BDE80B
:10080000F081606A00B100BF022084F8350000BFAB
:10081000002084F8340000BF2068006820F0010048
:10082000216808600AE000F09DF9C01B052805D981
:1008300020206065032084F83500E0E72068006828
:1008400000F001000028EED120680568214805402D
:10085000D4E901010843E16808432169084361695B
:100860000843A1690843E1690843216A0843054335
:10087000606A042803D1D4E90B01084305432068CA
:1008800005602068456925F00705606A0543606AD0
:1008900004280DD1A06A0543E06A48B12046FFF75D
:1008A000ABFD28B140206065012084F83500A6E743
:1008B000206845612046FFF785FD064694F85C10E8
:1008C0003F208840B06000206065012084F835003A
:1008D000002094E73F8010F02DE9F04704460D46D4
:1008E00016461F464FF00008D4F8589000BF94F801
:1008F0003400012802D10220BDE8F087012084F8ED
:10090000340000BF94F83500012825D1022084F876
:100910003500002060653B46324629462046FFF7F9
:10092000C0FD94F85C103F208840C9F8080020689A
:10093000006840F0160021680860206C28B120682B
:10094000006840F00800216808602068006840F0F6
:1009500001002168086006E000BF002084F8340030
:1009600000BF4FF002084046C6E70000F8B5024657
:100970000B460025002400200021C7E0012606FACE
:1009800001F51E6806EA0504AC4274D11E7906F032
:100990000306012E04D01E7906F00306022E13D1A1
:1009A00090684F000326BE40B0434F00DE68BE4053
:1009B00030439060506801268E40B0431E79C6F3E4
:1009C00000168E40304350601E7906F00306032E59
:1009D00009D0D0684F000326BE40B0434F009E6848
:1009E000BE403043D0601E7906F00306022E13D1BC
:1009F000CF0802F1200656F827004E07F70E0F2603
:100A0000BE40B0434F07FF0E1E69BE403043CF08C3
:100A100002F1200646F8270010684F000326BE406A
:100A2000B0431E7906F003064F00BE40304310600D
:100A30005E6806F44036002E67D000BF00260096A0
:100A4000344E366846F48046324F3E603E46366845
:100A500006F48046009600BF00BF2F4E8F0856F860
:100A600027008E07370F0F26BE40B0432B4EB242F1
:100A700002D1002615E048E0294EB24201D10126FC
:100A80000FE0284EB24201D102260AE0264EB242C1
:100A900001D1032605E0254EB24201D1042600E033
:100AA00007268F073F0FBE4030431B4E8F0846F886
:100AB00027001F4E3068A0435E6806F4801606B11A
:100AC00020431B4E3060361D3068A0435E6806F43C
:100AD000001606B12043164E361D3060144E361FE8
:100AE0003068A0435E6806F4003606B12043104E1D
:100AF000361F3060361F3068A0435E6806F48036CB
:100B000006B120430A4E083E3060491C1029FFF40C
:100B100035AFF8BD443802400838014000000240BB
:100B20000004024000080240000C02400010024095
:100B3000083C0140024613690B400BB1012000E064
:100B40000020704710B5426921EA020302EA01045D
:100B500043EA0443836110BD0AB1816101E00B04E3
:100B60008361704701480068704700000C00002056
:100B70000348006803490978084401490860704740
:100B80000C0000201400002010B50D48006840F44F
:100B900000700B4908600846006840F480600860F7
:100BA0000846006840F480700860032000F0E0F818
:100BB0000F2000F007F800F05FF8002010BD0000E3
:100BC000003C02402DE9F04188B004460027B846B9
:100BD00000BF002001902348006840F00200214936
:100BE00008600846006800F00200019000BF00BFE6
:100BF00002A903A800F092F9069F1FB900F0B6F908
:100C0000054602E000F0B2F945001748B5FBF0F0E8
:100C1000A0F1010815481649086040F2E731144870
:100C2000C160C0F80480002101618160816100F031
:100C3000B3FC064696B90E4800F06CFD06466EB948
:100C40001D2000F043F8102C07D2002221461D2061
:100C500000F050F80748046000E00126304608B074
:100C6000BDE8F0814038024040420F0000040040DF
:100C70005C0200201000002008B500BF002000909A
:100C80001148006840F480400F4908600846006839
:100C900000F48040009000BF00BF00BF0020009023
:100CA000081F006840F08050091F0860084600686F
:100CB00000F08050009000BF00BF00220F21901E66
:100CC00000F018F808BD000044380240014608460C
:100CD00000280DDB00BF00BF00F01F0301229A4077
:100CE00043099B0003F1E023C3F8002100BF00BFCC
:100CF00000BF70472DE9F05F80460D46164600277D
:100D000002F078FE074639462A46334601F00700CE
:100D1000C0F1070ABAF1040F02D94FF0040A01E04A
:100D2000C0F1070AD14600F1040ABAF1070F02D256
:100D30004FF0000A01E0A0F1030AD4464FF0010A87
:100D40000AFA09FAAAF1010A0AEA020A0AFA0CFAEC
:100D50004FF0010B0BFA0CFBABF1010B0BEA030B91
:100D60004AEA0B042146404602F04CFEBDE8F09FE3
:100D700000BF00F00702064B19684FF6FF03194049
:100D8000044B0B4343EA0221014B196000BF70473B
:100D90000CED00E00000FA0570B504460D460CB9F4
:100DA000012070BD5848006800F00700A84209D231
:100DB00055490D700846006800F00700A84201D0B0
:100DC0000120EEE7207800F0020002281DD12078F3
:100DD00000F00400042805D14C48006840F4E050BD
:100DE0004A490860207800F00800082805D14748E3
:100DF000006840F46040454908604448006820F0BD
:100E0000F000A168084341490860207800F0010023
:100E1000A8B36068012807D13C4808380068C0F3CF
:100E20004040B8B90120BCE76068022802D0606881
:100E3000032807D1354808380068C0F3406048B936
:100E40000120AEE7314808380068C0F3400008B917
:100E50000120A6E72D48006820F0030061680843E0
:100E60002A490860FFF77EFE064609E0FFF77AFE92
:100E7000801B41F28831884202D9032091E707E0C4
:100E80002248006800F00C006168B0EB810FEDD1E2
:100E90001D48006800F00700A84209D91A490D70E2
:100EA0000846006800F00700A84201D0012078E75A
:100EB000207800F00400042807D11448006820F4CA
:100EC000E050E168084311490860207800F008000C
:100ED000082808D10D48006820F46040216940EAE4
:100EE000C1000A49086000F061F808490968C1F3C7
:100EF0000311074A515CC84006490860064800686B
:100F0000FFF760FE00204CE7003C0240083802403A
:100F1000046A000818000020100000200F22026060
:100F20000D4A126802F0030242600B4A126802F096
:100F3000F0028260084A126802F4E052C260064A77
:100F4000126802F46042D2080261044A126802F098
:100F500007020A607047000008380240003C024067
:100F600001480068704700001800002000B5FFF736
:100F7000F7FF04490968C1F38221034A515CC84064
:100F800000BD000008380240146A000800B5FFF7F1
:100F9000E7FF04490968C1F34231034A515CC84084
:100FA00000BD000008380240146A00082DE9F0472F
:100FB000002400250026A1462548006800F00C000A
:100FC00020B1042805D008283AD105E0DFF8849044
:100FD00039E0DFF8849036E01D48001F006800F01B
:100FE0003F041B48001F006800F4800078B11A48D5
:100FF0001749091F0968C1F38811A0FB0170014658
:10100000224600233846FFF743F905460EE0114813
:101010000F49091F0968C1F38811A0FB017001463F
:10102000224600233846FFF733F905460848001FDB
:101030000068C0F30140401C4600B5FBF6F902E031
:10104000DFF8109000BF00BF4846BDE8F087000001
:10105000083802400024F40040787D01F8B50446C9
:101060000CB90120F8BD207800F00100002874D0F0
:10107000F948006800F00C0004280DD0F64800681C
:1010800000F00C00082813D1F348001F006800F49A
:101090008000B0F5800F0BD1EF4808380068C0F32E
:1010A0004040002859D06068002856D10120D9E777
:1010B00000BF6068B0F5803F08D1E7480838006895
:1010C00040F48030E449083908601EE06068B0F5FB
:1010D000A02F0DD1E0480838006840F48020DE4998
:1010E000083908600846006840F4803008600CE069
:1010F000D9480838006820F48030D749083908609A
:101100000846006820F48020086000BF606890B145
:10111000FFF728FD054606E0FFF724FD401B642885
:1011200001D903209EE7CC4808380068C0F340404E
:101130000028F1D011E0FFF715FD054606E0FFF7A6
:1011400011FD401B642801D903208BE7C2480838F1
:101150000068C0F340400028F1D1207800F0020080
:1011600002285FD1BC48006800F00C0058B1BA48B2
:10117000006800F00C0008281CD1B748001F006868
:1011800000F48000B0B9B44808380068C0F34000EB
:1011900020B1E068012801D0012063E7AE4808389B
:1011A000006820F0F800216940EAC100AA49083926
:1011B000086037E0E06800B30120A8490860FFF745
:1011C000D1FC054606E0FFF7CDFC401B022801D903
:1011D000032047E7A04808380068C0F34000002813
:1011E000F1D09D480838006820F0F800216940EAF5
:1011F000C10099490839086014E000209749086047
:10120000FFF7B0FC054606E0FFF7ACFC401B0228E8
:1012100001D9032026E7904808380068C0F3400051
:101220000028F1D1207800F0080008282CD160694E
:10123000A8B101208A490860FFF794FC054606E042
:10124000FFF790FC401B022801D903200AE78248DF
:101250006C300068C0F340000028F1D014E000209A
:101260007F490860FFF77EFC054606E0FFF77AFC41
:10127000401B022801D90320F4E677486C3000684F
:10128000C0F340000028F1D1207800F004000428C9
:1012900070D1002770483830006800F0805090B955
:1012A00000BF002000906C483830006840F080504B
:1012B0006949383108600846006800F080500090A5
:1012C00000BF00BF01276748006800F48070B0B914
:1012D0006448006840F4807062490860FFF742FC8F
:1012E000054606E0FFF73EFC401B022801D903201B
:1012F000B8E65C48006800F480700028F2D000BFB7
:10130000A068012808D154486830006840F0010006
:101310005149683108601DE0A06805280DD14E488C
:101320006830006840F004004B49683108600846A6
:10133000006840F0010008600CE047486830006831
:1013400020F001004449683108600846006820F038
:101350000400086000BFA068A8B1FFF703FC0546C1
:1013600009E0FFF7FFFB401B41F28831884202D9B8
:10137000032077E626E0384868300068C0F3400074
:101380000028EED013E0FFF7EDFB054608E0FFF77D
:10139000E9FB401B41F28831884201D9032061E614
:1013A0002D4868300068C0F340000028EFD1012FBD
:1013B00007D129483830006820F08050264938315C
:1013C000086000BFA069002845D02348006800F0ED
:1013D0000C0008285DD0A069022845D100201F49D3
:1013E0000866FFF7BFFB054606E0FFF7BBFB401BA7
:1013F000022801D9032035E6174808380068C0F3F1
:1014000040600028F1D1D4E907010843616A40EA4D
:1014100081110122A06AC2EB500041EA00412C2058
:10142000005D41EA00600C49091F086001200B497A
:101430000866FFF797FB054606E0FFF793FB401BA6
:10144000022801D903200DE6034808380068C0F3DC
:1014500040600028F1D049E00838024000004742CF
:10146000800E474200700040002021490866FFF7C7
:1014700079FB054606E0FFF775FB401B022801D902
:101480000320EFE51B480068C0F340600028F2D15C
:101490002CE0A069012800D1E4E51648001D06688B
:1014A000A069012820D006F48001E06981421BD1A7
:1014B00006F03F01206A814216D147F6C0703040E5
:1014C000616AB0EB811F0FD106F440310122A06A9E
:1014D000C2EB5000B1EB004F06D106F070612C203A
:1014E000005DB1EB006F01D00120BBE50020B9E544
:1014F00000004742003802407047704730B502464E
:101500000B4600BF92F83C00012801D1022030BDFB
:10151000012082F83C0000BF022082F83D001068E4
:1015200044681068816824F07004186804431068E7
:101530004460144D1068A84213D01068B0F1804F79
:101540000FD0114D1068A8420BD0104D1068A84262
:1015500007D00F4D1068A84203D00E4D1068A84266
:1015600005D121F080015868014310688160012095
:1015700082F83D0000BF002082F83C0000BF00BFA1
:10158000C5E70000000001400004004000080040E2
:10159000000C00400040014010B504460CB9012089
:1015A00010BD94F83D0028B9002084F83C00204686
:1015B00000F026F8022084F83D00211D206801F08B
:1015C00081FB012084F8460000BF84F83E00012121
:1015D0003F200155402001554120015500BF00BF6B
:1015E000012084F842004320015544200155452044
:1015F000015500BF012084F83D000020D0E7000025
:1016000008B51F4A016891420FD100BF0021009127
:101610001C49096841F004011A4A11601146096821
:1016200001F00401009100BF29E0174A01689142CE
:101630000FD100BF002100911249096841F0080153
:10164000104A11601146096801F00801009100BFBD
:1016500015E00E4A0168914211D100BF00210091AE
:101660000849091D096841F48031064A121D1160BC
:101670001146096801F48031009100BF00BF08BD28
:101680000008004040380240000C0040004001408B
:10169000014691F83D00012801D001207047022049
:1016A00081F83D00164B0868984213D00868B0F1E5
:1016B000804F0FD0134B086898420BD0124B08682C
:1016C000984207D0114B0868984203D0104B086825
:1016D00098420CD10868806800F00702062A0CD0F6
:1016E0000868006840F001000B68186005E00868B1
:1016F000006840F001000B6818600020CEE7000091
:10170000000001400004004000080040000C0040C0
:1017100000400140014691F83D00012801D0012020
:101720007047022081F83D000868C06840F0010061
:101730000B68D860164B0868984213D00868B0F15F
:10174000804F0FD0134B086898420BD0124B08689B
:10175000984207D0114B0868984203D0104B086894
:1017600098420CD10868806800F00702062A0CD065
:101770000868006840F001000B68186005E0086820
:10178000006840F001000B6818600020C8E7000006
:10179000000001400004004000080040000C004030
:1017A00000400140014600BF0868006A41F2111282
:1017B000104050B90868006A9210104028B90868B3
:1017C000006820F001000A68106000BF012081F865
:1017D0003D00002070472DE9F04104460D460027EA
:1017E00000BF94F83C00012802D10220BDE8F0813E
:1017F000012084F83C0000BF022084F83D002068EE
:10180000866826F0770626F47F462068866028687A
:10181000502833D00CDC202850D004DC00284BD0DA
:10182000102851D149E0302849D040284CD139E026
:1018300060282DD0702807D0B0F5805F03D0B0F5B8
:10184000005F41D10DE041E0D5E902136A682068EC
:1018500001F09FFA2068866846F077062068866067
:1018600034E0D5E902136A68206801F092FA206832
:10187000806840F480402168886027E0EA686968F1
:10188000206801F057FB5021206801F08DFA1DE01F
:10189000EA686968206801F060FB6021206801F057
:1018A00083FA13E0EA686968206801F043FB40218D
:1018B000206801F079FA09E000BF00BF00BF296885
:1018C000206801F071FA01E0012700BF00BF01208C
:1018D00084F83D0000BF002084F83C0000BF38467B
:1018E00084E7704770B504462068C56820680669BB
:1018F00006F00200022819D105F00200022815D1D5
:10190000401F21680861012020772068806900F06D
:10191000030018B12046FFF7E4FF05E0204600F081
:10192000EDF8204600F0A1F90020207706F0040031
:10193000042819D105F00400042815D1C0432168FA
:101940000861022020772068806900F4407018B197
:101950002046FFF7C6FF05E0204600F0CFF82046FE
:1019600000F083F90020207706F00800082819D13C
:1019700005F00800082815D1C0432168086104203B
:1019800020772068C06900F0030018B12046FFF7F7
:10199000A8FF05E0204600F0B1F8204600F065F908
:1019A0000020207706F01000102819D105F0100053
:1019B000102815D1C04321680861082020772068CD
:1019C000C06900F4407018B12046FFF78AFF05E0B7
:1019D000204600F093F8204600F047F900202077D9
:1019E00006F0010048B105F0010030B16FF00100D0
:1019F00021680861204600F0FDF906F0800080288B
:101A000009D105F08000802805D1C0432168086114
:101A10002046FFF771FD06F04000402809D105F08F
:101A20004000402805D1C04321680861204600F0ED
:101A3000EDF906F02000202809D105F0200020282B
:101A400005D1C043216808612046FFF756FD70BDEF
:101A500010B586B00446142101A8FEF763FC2249A4
:101A6000206888421DD100BF002000901F480068F8
:101A700040F002001D4908600846006800F00200BE
:101A8000009000BF00BF4020019002200290002083
:101A9000039004900220059001A91548FEF766FF07
:101AA00020E01449206888421CD100BF002000902B
:101AB0000E48006840F001000C49086008460068C4
:101AC00000F00100009000BF00BF01200190022043
:101AD00002900020039004900220059001A906487E
:101AE000FEF744FF06B010BD000800403038024049
:101AF00000040240000C00400000024070472DE945
:101B0000F04104460D461646002700BF94F83C00FD
:101B1000012802D10220BDE8F081012084F83C00B8
:101B200000BF36B1042E1BD0082E31D00C2E5ED152
:101B300045E02946206801F041F92068806940F0BD
:101B40000800216888612068806920F0040021680D
:101B5000886120688069296908432168886148E0B4
:101B60002946206801F05AF92068806940F4006035
:101B7000216888612068806920F48060216888611C
:101B800020688069296940EA01202168886130E085
:101B90002946206801F076F92068C06940F0080005
:101BA0002168C8612068C06920F004002168C8610C
:101BB0002068C069296908432168C86119E029467D
:101BC000206801F093F92068C06940F40060216842
:101BD000C8612068C06920F480602168C8612068FD
:101BE000C069296940EA01202168C86101E0012734
:101BF00000BF00BF00BF002084F83C0000BF384693
:101C000089E710B504460CB9012010BD94F83D00D9
:101C100028B9002084F83C00204600F025F8022076
:101C200084F83D00211D206801F04CF8012084F863
:101C3000460000BF84F83E0001213F2001554020AE
:101C400001554120015500BF00BF012084F842002A
:101C500043200155442001554520015500BF012076
:101C600084F83D000020D0E77047704770B5044607
:101C70000D4615B994F83E000BE0042D02D13F202B
:101C8000005D06E0082D02D14020005D01E041200A
:101C9000005D012801D0012070BD1DB9022084F82B
:101CA0003E000EE0042D03D102213F20015508E043
:101CB000082D03D102214020015502E002214120DC
:101CC000015501222946206801F052F81D4920687B
:101CD000884201D1012000E0002028B12068406C3A
:101CE00040F400402168486416492068884213D0B7
:101CF0002068B0F1804F0FD01349206888420BD084
:101D000012492068884207D011492068884203D0D0
:101D10001049206888420CD12068806800F00706CE
:101D2000062E0CD02068006840F001002168086091
:101D300005E02068006840F001002168086000208C
:101D4000AAE7000000000140000400400008004035
:101D5000000C00400040014030B504460D46002212
:101D60002946206801F004F821492068884201D101
:101D7000012000E0002090B100BF2068006A41F21D
:101D80001111084050B92068006A8910084028B92C
:101D90002068406C20F400402168486400BF00BF08
:101DA0002068006A41F21111084050B92068006AA9
:101DB0008910084028B92068006820F001002168D7
:101DC000086000BF1DB9012084F83E000EE0042D1C
:101DD00003D101213F20015508E0082D03D1012145
:101DE0004020015502E0012141200155002030BD75
:101DF0000000014010B5044603492068884201D123
:101E0000FEF7B6FE10BD0000000400407047F8B5B4
:101E100004460D46164694F8420020282DD105B1FF
:101E20000EB90120F8BD0120206300206063324616
:101E30002946204601F030FB0746206B012819D1C6
:101E400000BF002000902068006800902068406873
:101E5000009000BF00BF00BF00BF21680C3151E8F7
:101E6000001F41F0100021680C3141E80002002AF7
:101E7000F3D100E001273846D4E70220D2E7000082
:101E80007CB504460D46294614A001F0A3FD204967
:101E90002068884221D129461E48006801F066FF6B
:101EA00000200190002601A80023032201210090B8
:101EB0001948006804F0E6F90646012E02D117A081
:101EC00001F088FD019838B14FF080501B4908603F
:101ED000BFF34F8FBFF36F8F00BF7CBD7468652069
:101EE00048414C5F5541525445785F52784576657C
:101EF0006E7443616C6C6261636B20676574205B18
:101F000025645D2064617461732E0D0A0000000079
:101F100000100140B8000020AC000020785461732C
:101F20006B4E6F7469667946726F6D4953522073B8
:101F30007563636573732E0D0A00000004ED00E005
:101F4000704700002DE9F84F0446206805682068B6
:101F5000C668206847694FF00009CA4605F00F09B6
:101F6000B9F1000F0AD105F0200038B106F02000C9
:101F700020B1204601F0FBF8BDE8F88FB9F1000F61
:101F80007CD007F0010018B906F49070002875D0D5
:101F900005F0010030B106F4807018B1606C40F0BB
:101FA0000100606405F0040030B107F0010018B1D1
:101FB000606C40F00200606405F0020030B107F090
:101FC000010018B1606C40F00400606405F0080086
:101FD00048B106F0200010B907F0010018B1606C9C
:101FE00040F008006064606C002846D005F02000D6
:101FF00028B106F0200010B1204601F0B8F82068A2
:102000004069C0F3801A606C00F0080010B9BAF1A2
:10201000000F2DD0204601F051F82068406900F0F3
:102020004000402820D100BF00BF2168143151E892
:10203000001F21F040002168143141E80002002A0D
:10204000F3D100BFE06B50B17F48E16B0865E06BF6
:10205000FEF797FA88B1E06B016D88470DE02046E6
:10206000FFF76EFF09E009E02046FFF769FF04E093
:102070002046FFF765FF002060647DE7206B0128A4
:1020800078D105F01000002874D006F01000002868
:10209000FAD000BF002000902068006800902068FF
:1020A0004068009000BF00BF2068406900F0400019
:1020B000402870D1E06B006840681FFA80F8B8F1E2
:1020C000000F58D0A08D404555DDA4F82E80E06B60
:1020D000C069B0F5807F43D000BF00BF21680C31DC
:1020E00051E8001F21F4807021680C3141E80002A2
:1020F000002AF3D100BF00BF00BF2168143151E8AE
:10210000001F21F001002168143141E80002002A7B
:10211000F3D100BF00BF00BF2168143151E8001F98
:1021200021F040002168143141E80002002AF3D177
:1021300000BF202084F842000020206300BF00BFC1
:1021400021680C3151E8001F21F0100021680C318A
:1021500041E80002002AF3D100BFE06BFEF7BBF9B3
:1021600002206063A08DE28D801A81B22046FFF7C5
:1021700087FE0EE052E0A08D40450AD1E06BC069B9
:10218000B0F5807F05D102206063A18D2046FFF766
:1021900077FEF1E6FFE7A08DE18D401A1FFA80F887
:1021A000E08DD0B3B8F1000F37D000BF00BF216879
:1021B0000C3151E8001F21F4907021680C3141E886
:1021C0000002002AF3D100BF00BF00BF2168143114
:1021D00051E8001F21F001002168143141E800029C
:1021E000002AF3D100BF202084F8420000202063A1
:1021F00000BF00BF21680C3151E8001F21F0100022
:1022000021680C3141E80002002AF3D100BF02200E
:10221000606341462046FFF733FEADE605F08000DF
:1022200030B106F0800018B1204601F0A1F9A3E614
:1022300005F0400030B106F0400018B1204600F033
:1022400073FF99E600BF97E6832F000810B5044698
:102250000CB9012010BDA06900B100E000BF94F8E6
:10226000410028B9002084F84000204600F02AF8F8
:10227000242084F841002068C06820F400502168C0
:10228000C860204600F0F2FF2068006920F490400A
:10229000216808612068406920F02A0021684861AF
:1022A0002068C06840F400502168C8600020606465
:1022B000202084F8410084F842000020606300BFC1
:1022C000C8E7000010B586B00446142101A8FEF747
:1022D00029F82F492068884258D100BF002000907B
:1022E0002C48006840F010002A4908600846006841
:1022F00000F01000009000BF00BF00BF0020009061
:1023000024481438006840F001002249143908605C
:102310000846006800F00100009000BF00BF4FF4C5
:10232000C0600190022002900020039003200490DE
:102330000720059001A91848FEF718FB174818490F
:1023400008604FF000604860002115488160C1605E
:102350004FF4806101610021416181614FF480711E
:10236000C161002101624162FEF740FA08B1FEF747
:10237000AFF800BF0A48E063846300BF0022052174
:102380002520FEF7B7FC2520FEF7A0FC06B010BD07
:102390000010014044380240000002404064024006
:1023A000FC01002070477047704700BFFEE7000047
:1023B0001CB500F0A1FA00F0FDF900200221104B3D
:1023C0000246CDE900100F496FF0090001F0D9FC79
:1023D0000D490860002080210C4B0246CDE9001019
:1023E0000B496FF0090001F0CCFC0A49086006486F
:1023F000006802F0F7FC0748006802F0F3FC1CBD1F
:1024000000000240240100200000002000040240DF
:10241000DC0000200400002008B500BF0020009070
:102420000A48006840F480000849086008460068CF
:1024300000F48000009000BF00BF002205213A2078
:10244000FEF758FC3A20FEF741FC08BD3038024048
:1024500010B5044A0021044801F070FE03490860E9
:1024600010BD0000D86900083D2B000808000020BE
:1024700000B587B0142102A8FDF754FF00BF00206B
:1024800001905248006840F0040050490860084636
:10249000006800F00400019000BF00BF00BF0020F2
:1024A00001900846006840F0800008600846006817
:1024B00000F08000019000BF00BF00BF002001902D
:1024C0000846006840F0010008600846006800F017
:1024D0000100019000BF00BF00BF0020019008462E
:1024E000006840F0020008600846006800F0020042
:1024F000019000BF00BF00224FF460413448FEF756
:102500002BFB002202213348FEF726FB0122D103D8
:102510003048FEF721FB002280212F48FEF71CFBEC
:102520004FF4005002900120039000200490059089
:1025300002A92748FEF71AFA4FF4804002901120B2
:102540000390012004900020059002A92048FEF786
:102550000DFA4FF4004002900120039004900020F7
:10256000059002A91A48FEF701FA02200290012004
:102570000390002004900320059002A91548FEF75F
:10258000F5F94FF480600290002003900120049040
:1025900002A91148FEF7EAF94FF400400290012029
:1025A000039000200490059002A90A48FEF7DEF986
:1025B00080200290012003900020049003200590C9
:1025C00002A90548FEF7D2F907B000BD3038024035
:1025D00000080240000002400004024000B58DB037
:1025E000002009900A900B900C90079008901C21F5
:1025F0006846FDF797FE20482049086041F2873081
:10260000486000211D4881606321C1600021016193
:102610008161FEF7C1FF08B1FDF75AFF4FF480500A
:10262000099009A91548FFF7D6F808B1FDF750FF42
:102630001248FFF7E6FA08B1FDF74AFF00200790BD
:10264000089007A90D48FEF759FF08B1FDF740FFB4
:1026500060200090002001900290049000226946C2
:102660000648FFF74CFA08B1FDF732FF0348FFF7C1
:10267000EFF90DB000BD000000080040DC000020B4
:1026800000B58DB0002009900A900B900C90079037
:1026900008901C216846FDF745FE20482049086047
:1026A00041F28730486000211D4881606321C1608C
:1026B000002101618161FEF76FFF08B1FDF708FF9E
:1026C0004FF48050099009A91548FFF784F808B124
:1026D000FDF7FEFE1248FFF794FA08B1FDF7F8FE89
:1026E00000200790089007A90D48FEF707FF08B1E2
:1026F000FDF7EEFE60200090002001900290049013
:10270000002269460648FFF7FAF908B1FDF7E0FE36
:102710000348FFF79DF90DB000BD0000000C00401C
:10272000240100201FB5002000900190029003902A
:102730000E480F4908606320486000210C48816002
:102740004FF6FF71C160002101618161FEF724FF36
:1027500008B1FDF7BDFE4FF4805000906946044873
:10276000FFF739F808B1FDF7B3FE1FBD0040014087
:102770006C01002010B50B480B4908604FF4E130A4
:102780004860002108488160C16001610C214161FD
:1027900000218161C161FFF759FD08B1FDF798FE85
:1027A00010BD000000100140B401002000BFFEE792
:1027B00000BFFEE770B500240EE00021204600F0C7
:1027C000F0F8002504E0002000F068F9681CC5B2AC
:1027D000802DF8DB601CC4B2082CEEDB70BD00005D
:1027E00010B50122D1030448FEF7B6F90122910386
:1027F0000148FEF7B1F910BD0008024070B505466A
:1028000000241EE08020204100EA05024FF48041B0
:102810001648FEF7A1F9012002F0BAFB0122D1030C
:102820001248FEF799F9012002F0B2FB00224FF4A2
:1028300000410E48FEF790F9012002F0A9FB601C50
:10284000C4B2082CDEDB0122D1030848FEF784F96C
:10285000012002F09DFB00224FF400410348FEF7E7
:102860007BF9012002F094FB70BD000000080240DB
:1028700010B5012291031048FEF76EF9012002F015
:1028800087FB0122D1030C48FEF766F9012002F014
:102890007FFB00224FF480410748FEF75DF90120DD
:1028A00002F076FB00224FF400410348FEF754F992
:1028B000012002F06DFB10BD0008024010B500229F
:1028C0004FF480410B48FEF747F9012002F060FB0E
:1028D0000122D1030748FEF73FF9012002F058FB1F
:1028E000012291030348FEF737F9012002F050FB63
:1028F00010BD00000008024010B5FFF771FFAE20C8
:1029000000F0BCF8D52000F0B9F8802000F0B6F84F
:10291000A82000F0B3F83F2000F0B0F8D32000F07A
:10292000ADF8002000F0AAF8402000F0A7F8A120A0
:1029300000F0A4F8C82000F0A1F8DA2000F09EF81A
:10294000122000F09BF8812000F098F8CF2000F0D2
:1029500095F8D92000F092F8F12000F08FF8DB20F4
:1029600000F08CF8302000F089F8A42000F086F800
:10297000A62000F083F88D2000F080F8142000F0ED
:102980007DF8AF2000F07AF8FFF714FF10BD10B506
:102990000246012000E050430B1EA1F10101FAD1D3
:1029A00010BD70B505460C4645F0B00000F066F865
:1029B000102141EA141000F061F804F00F0000F05B
:1029C0005DF870BD2DE9F04105460E461746721EB2
:1029D000D206110E6A1E5206100EFFF7E2FF002407
:1029E00009E0A7F12001134A02EB0111085D00F094
:1029F00055F8601CC4B2082CF3DB721ED206110E0F
:102A00006A1E012303EB4202D0B2FFF7CAFF002483
:102A10000BE0A7F12001074A02EB011204F10801C3
:102A2000505C00F03BF8601CC4B2082CF1DBBDE840
:102A3000F0810000886A00082DE9F04780460E46C4
:102A400017461D46002415E0281B411E0A20FFF7EB
:102A50009EFFB7FBF0F00A21B0FBF1F201FB120080
:102A600000F130093019C1B24A464046FFF7AAFFCB
:102A7000601CC4B2AC42E7DBBDE8F08710B5044689
:102A8000FFF7F6FE7820FFF7B9FE0020FFF7B6FE4D
:102A90002046FFF7B3FEFFF711FF10BD10B5044647
:102AA000FFF7E6FE7820FFF7A9FE4020FFF7A6FE1D
:102AB0002046FFF7A3FEFFF701FF10BD2DE9F04709
:102AC00007468846DFF870A000BF9AF8000008B9F2
:102AD00000F048FF00BFEFF311810846202181F389
:102AE000118800BF00BF07EB47021349183101EB03
:102AF000C204E1684D1CA168A94200D100256169AA
:102B0000022903D100BF2169A942FCD02169A94251
:102B100008D0E268616801EB020989F80080E5608D
:102B2000012600E00026C1B281F3118800BF00BF7A
:102B30003046BDE8F0870000B44B002010B50446D5
:102B400002F072FA144A0021144801F0F7FA14490D
:102B50000860144A0021144801F0F0FA1349086093
:102B6000134A0021134801F0E9FA13490860134A97
:102B70000021134801F0E2FA12490860124A0021CC
:102B8000124801F0DBFA12490860002002F0A0FBB5
:102B900002F074FA10BD000078700008E53D0008EE
:102BA000C80000201C6A00082D3E00089C00002080
:102BB0009C70000889400008CC000020406A000892
:102BC0002D380008AC000020646A0008E1350008D8
:102BD000B000002010B54FF0E020006903F004FCC5
:102BE000012801D002F0EEFD10BD000000B593B049
:102BF000302107A8FDF796FB142102A8FDF792FBF0
:102C000000BF002001902448006840F08050224915
:102C100008600846006800F08050019000BF00BFC7
:102C200000BF002001901D48006840F440401B494F
:102C300008600846006800F44040019000BF00BFF3
:102C40000220079001200A9010200B9002200D9086
:102C500000210E9108210F91642110910221119100
:102C60000421129107A8FEF7F9F908B1FDF730FC2D
:102C70000F20029002200390002004904FF4805017
:102C8000059000200690032102A8FEF785F808B100
:102C9000FDF71EFC13B000BD40380240007000403C
:102CA0000348006840F47000014908607047000064
:102CB00088ED00E010B50248FEF714FE10BD0000DC
:102CC0005C02002010B50268224B98420BD0B0F194
:102CD000804F08D0204B984205D0204B984202D01C
:102CE0001F4B984203D122F070024B681A43194BD4
:102CF000984214D0B0F1804F11D0174B98420ED0AB
:102D0000164B98420BD0164B984208D0154B984260
:102D100005D0154B984202D0144B984203D122F4AF
:102D20004072CB681A4322F080034C6943EA0402E4
:102D30008B68C3620B688362064B984201D10B69B2
:102D40000363036843F004030360012343610260EB
:102D500010BD0000000001400004004000080040D9
:102D6000000C004000400140004401400048014088
:102D700030B501F01F05012404FA05F3046A9C43F1
:102D80000462046A01F01F0502FA05F52C4304628F
:102D900030BD30B50C46816821F47F4142EA0325FD
:102DA00025432943816030BD0A46816821F07001C6
:102DB00042F00703194381607047000030B5026A92
:102DC000056A25F0010505624368846924F07004F2
:102DD00024F003040D682C4322F002028D682A437C
:102DE0000D4DA84206D100BF22F00802CD682A434B
:102DF00022F00402084DA84207D123F4807323F483
:102E000000734D692B438D692B43436084614D688A
:102E10004563026230BD00000000014030B5026A27
:102E2000056A25F0100505624368846924F4E044CE
:102E300024F440740D6844EA052422F020028D68D1
:102E400042EA05120E4DA84207D100BF22F08002CF
:102E5000CD6842EA051222F04002094DA84209D18C
:102E600023F4806323F400634D6943EA85038D698D
:102E700043EA8503436084614D688563026230BD27
:102E80000000014030B5026A056A25F480750562CC
:102E90004368C46924F0700424F003040D682C43D3
:102EA00022F400728D6842EA05220F4DA84207D134
:102EB00000BF22F40062CD6842EA052222F480625B
:102EC000094DA84209D123F4805323F400534D69DE
:102ED00043EA05138D6943EA05134360C4614D68F5
:102EE000C563026230BD00000000014030B5036AD6
:102EF000056A25F4805505624468C26922F4E042FF
:102F000022F440720D6842EA052223F400538D68D2
:102F100043EA0533064DA84204D124F480444D69A8
:102F200044EA85144460C2614D680564036230BDA3
:102F30000000014030B50B461446026A056A25F0D0
:102F400001050562816921F0F00141EA041122F0D6
:102F50000A021A438161026230BD30B50B46144645
:102F6000026A056A25F010050562816921F4704145
:102F700041EA043122F0A00242EA031281610262B6
:102F800030BD70B50446A56B0020E8852846FEF7E5
:102F9000D7FF70BD70B506460025B46B2068406948
:102FA000C0F3C01594F84100212805D125B10020B7
:102FB000E084204600F0C8F820684069C0F380151E
:102FC00094F84200222805D125B10020E085204652
:102FD00000F074F8606C40F0100060642046FEF76A
:102FE000AFFF70BD70B50546AC6B2868006800F493
:102FF0008070002842D1E08500BF00BF21680C31FD
:1030000051E8001F21F4807021680C3141E8000272
:10301000002AF3D100BF00BF00BF2168143151E87E
:10302000001F21F001002168143141E80002002A4C
:10303000F3D100BF00BF00BF2168143151E8001F69
:1030400021F040002168143141E80002002AF3D148
:1030500000BF202084F84200206B01280ED100BF61
:1030600000BF21680C3151E8001F21F010002168D9
:103070000C3141E80002002AF3D100BF0020606358
:10308000206B012804D1A18D2046FEF7F9FE02E055
:103090002046FFF787F970BD70B50546AC6B01207F
:1030A0006063206B012805D1A08D41082046FEF702
:1030B000E7FE02E02046FFF776F970BD00BF00BFD3
:1030C00002680C3252E8002F22F4907102680C3230
:1030D00042E80013002BF3D100BF00BF00BF02681D
:1030E000143252E8002F22F001010268143242E843
:1030F0000013002BF3D100BF016B01290ED100BFDB
:1031000000BF02680C3252E8002F22F01001026862
:103110000C3242E80013002BF3D100BF202180F8CD
:10312000421000210163704710B504462068C06852
:1031300020F040002168C860202084F8410020462B
:10314000FFF732F9002010BD00BF00BF02680C324B
:1031500052E8002F22F0C00102680C3242E800134E
:10316000002BF3D100BF202180F841107047F8B543
:1031700004460025002694F84200222873D1A06856
:10318000B0F5805F0BD1206948B9A66A2068406815
:10319000C0F308003080A06A801CA06214E0A56A19
:1031A000A068B0F5805F03D0A06828B9206918B97D
:1031B00020684068287004E02068406800F07F00C4
:1031C0002870A06A401CA062E08D401E80B2E0859D
:1031D000002846D12068C06820F020002168C8601F
:1031E0002068C06820F480702168C8602068406949
:1031F00020F0010021684861202084F8420000206E
:103200006063206B012826D10020206300BF00BF2F
:1032100021680C3151E8001F21F0100021680C31A9
:1032200041E80002002AF3D100BF2068006800F0E6
:10323000100010280AD100BF00200090206800680C
:10324000009020684068009000BF00BFA18D20461C
:10325000FEF716FE02E02046FFF7A4F80020F8BDB6
:1032600001E00020FBE70220F9E700002DE9F84F1C
:1032700004462068006920F44050E1680843216852
:1032800008612169A068084361690843E16908434E
:1032900000902068C06849F20C6188430099084397
:1032A0002168C8602068406920F44070A169084323
:1032B0002168486176492068884203D075492068B2
:1032C000884203D1FDF762FE814602E0FDF74EFE23
:1032D0008146E069B0F5004F6CD102206168A0FB27
:1032E000015003461920A9FB007001462A463846C2
:1032F000FCF7CEFF6421B0FBF1F04FEA001A022088
:103300006168A0FB01510B461920A9FB00712A46F8
:103310003846FCF7BDFF834602206168A0FB0150E0
:1033200003461920A9FB00712A463846FCF7B0FF76
:103330006421B0FBF1F000EBC00101EB0010ABEB3E
:103340008000322101EBC0006421B0FBF1F000F0FD
:10335000F8000AEB400A02206168A0FB0150034616
:103360001920A9FB007001462A463846FCF790FF59
:10337000834602206168A0FB015003461920A9FB87
:1033800000712A463846FCF783FF6421B0FBF1F058
:1033900000EBC00101EB0010ABEB8000322101EB30
:1033A000C0006421B0FBF1F000F007005044216838
:1033B00088606AE004206168A0FB01500346192080
:1033C000A9FB007001462A463846FCF761FF824699
:1033D00004206168A0FB015003461920A9FB00707E
:1033E00001462A463846FCF753FF6421B0FBF1F052
:1033F00000EBC00101EB0010AAEB8000322101EBD1
:1034000000106421B0FBF1F000F0F00A04206168C4
:10341000A0FB017003461920A9FB00513A4628463B
:10342000FCF736FF6421B0FBF1F00AEB001A042030
:103430006168A0FB01510B461920A9FB00712A46C7
:103440003846FCF725FF834604206168A0FB015045
:1034500003461920A9FB007001462A463846FCF7AE
:1034600017FF6421B0FBF1F000EBC00101EB00108D
:10347000ABEB8000322101EB00106421B0FBF1F0D6
:1034800000F00F00504421688860BDE8F88F00000C
:10349000001001400014014077B581B00446154684
:1034A0000298A062A58500206064222084F8420072
:1034B0002C48E16BC8632C48E16B08642B48E16B36
:1034C000C8640020E16B086502AE32682368191DEC
:1034D0002B46E06BFDF700FA38B110206064202025
:1034E00084F84200012004B070BD00BF00200090AD
:1034F00020680068009020684068009000BF00BF0E
:10350000206970B100BF00BF21680C3151E8001F75
:1035100041F4807021680C3141E80002002AF3D1A7
:1035200000BF00BF00BF2168143151E8001F41F007
:1035300001002168143141E80002002AF3D100BFE4
:1035400000BF00BF2168143151E8001F41F0400066
:103550002168143141E80002002AF3D100BF0020A5
:10356000C1E70000E52F000899300008952F0008FA
:10357000014691F84100212828D18868B0F5805F84
:103580000BD1086948B90A6A1088C0F308000B68B3
:103590005860086A801C086205E00B6A581C0862C3
:1035A00018780B685860C88C401E80B2C88458B91F
:1035B0000868C06820F080000B68D8600868C068A0
:1035C00040F040000B68D860002070470220FCE704
:1035D00010B50248FEF7B6FC10BD0000B401002093
:1035E00008B50020009000BF4DA000F0F3F954484A
:1035F000006800B9F8E75348006800B9F4E74FF0F5
:10360000FF31012001F05EFC4FF0FF314C480068B3
:1036100002F0F2FB76E069464A48006800F08BFB56
:103620009DF8001048A000F0D5F95148006810B18D
:10363000012865D159E09DF80000DD2848D101201E
:103640004B490860002008E04A4911F820104A4A16
:1036500012781144484A1170401C48490968891E73
:103660008142F1D245480068401E424951F820008D
:1036700041490978884203D041A000F0ABF90FE03E
:103680003E480068C01E3B4911F8200042490870BE
:103690003A480068801E374911F820003E494870BA
:1036A000354801783DA000F095F93B48017841A0EC
:1036B00000F090F93848417846A000F08BF94DA011
:1036C00000F088F900202C4908702C49086018E0A7
:1036D0009DF800002749294A126841F8220027482E
:1036E0000068401C254908600BE09DF80000AA28EE
:1036F00005D100201E49086045A000F06BF900E0EC
:1037000000BF00BF0F48006800F009FB002882D10D
:1037100000231A4619460A48006802F067F963E771
:103720006E6F77206F6E2074686520556172745FCC
:10373000636F6E73756D655F66756E630D0A00006D
:10374000B4000020B80000205468652064617461F2
:10375000206973205B25785D20696E205561727445
:103760005F636F6E73756D655F66756E630D0A00DE
:10377000C4000020784B0020BE000020C0000020C4
:10378000546865206372632073756D2069732066C9
:1037900061696C640D0A0000BC000020546865205B
:1037A0006372632073756D206973205B25785D0DEE
:1037B0000A00000054686520785F617869735F6C67
:1037C0006F636174696F6E206973205B25785D0D8E
:1037D0000A00000054686520795F617869735F6C46
:1037E0006F636174696F6E206973205B25785D0D6E
:1037F0000A000000656E746572204652414D455FB7
:10380000574149545F53544154450D0A000000008C
:10381000656E746572204652414D455F484541448E
:103820005F53544154450D0A0000000000F0CAFAED
:103830000446012001F0E0FF1D49086014B91DA0F5
:1038400000F0C8F81A48006810B928A000F0C2F8C3
:10385000334804600F22016808313248FEF7D7FA76
:1038600000BF4FF0FF3300221146104602F074FEF5
:103870000023022219462C48006802F06FFC10B9A0
:103880002AA000F0A7F84FF0805034490860BFF339
:103890004F8FBFF36F8F49170548006802F0ACFAED
:1038A00000231A4619460248006802F09FF8D8E73C
:1038B000B40000206372656174655F63697263754B
:1038C0006C61725F627566666572206661696C65BF
:1038D0006420696E20556172745F70726F647563E5
:1038E000655F66756E630D0A00000000675F7561B5
:1038F00072745F6D7574657820637265617465209C
:103900006661696C656420696E20556172745F70D0
:10391000726F647563655F66756E630D0A00000003
:10392000B8000020B4010020B0000020785461737A
:103930006B4E6F7469667947697665206661696C5C
:10394000656420696E20556172745F70726F647572
:1039500063655F66756E630D0A00000004ED00E0AC
:1039600000BFFEE710B5124C03202061606111A07A
:10397000A0611349E1614FF4806121620021A162DD
:103980006162E1620BA020660E4961661021A166AA
:1039900000212167E16661670BA1E01DFCF7CDFC0A
:1039A0000AA12046FCF7C9FC2020A07110BD000030
:1039B000B44B00205465726D696E616C00000000AC
:1039C0005C4C00205C500020525454005345474743
:1039D000455200000FB4054B10B503A9044A0298E4
:1039E00000F036F810BC5DF814FB0000193E00082A
:1039F000D000002002480068C0F302207047000099
:103A00000CED00E010B5002804DB0A07130E054A90
:103A1000135406E00A07140E034A00F00F031B1F9D
:103A2000D45410BD00E400E018ED00E0EFF3058091
:103A3000704702E008C8121F08C1002AFAD1704777
:103A40007047002001E001C1121F002AFBD170471E
:103A50002DE9FF4F8DB09B460F460446002606E039
:103A600025280BD05A460F999047641C761C207865
:103A70000028F5D111B03046BDE8F08F0025A846EA
:103A80000122984900E0054314F8013F203B02FA67
:103A900003F00842F7D120782E2817D114F8010F2F
:103AA00045F004052A280ED06FF02F022078A0F1EF
:103AB000300109290AD808EB880102EB410100EB2B
:103AC0000108641CF2E757F8048B641C20786C280A
:103AD0000DD004DC4C2812D06A2811D104E07428DF
:103AE0000DD07A280CD10AE045F4001507E0617882
:103AF00045F48015814202D1641C05F58015641CD3
:103B00002278692A45D008DC002AB3D0582A69D027
:103B1000632A10D0642A08D13BE0702A67D0732A48
:103B200013D0752A5CD0782A5CD010465A460F997B
:103B30009047761CD3E017F8040B8DF800000020A6
:103B40008DF80100E946012003E057F8049B4FF08F
:103B5000FF3069074FF0000501D40AE06D1C4545B0
:103B60000DDA8542FADB19F805100029F6D106E0D6
:103B70006D1C8542FCDB19F805100029F8D12E4494
:103B800004E019F8010B5A460F9990476D1EF8D2C0
:103B9000A5E00A200021CDE90801C5F30250022862
:103BA0000DD001CFC117031E71F100030DDA4FF0E4
:103BB000000CD0EB0C006CEB01012D2308E0FF1D85
:103BC00027F00707F7E80201EDE72B0504D52B23C3
:103BD0008DF8283001233BE0EB0739D02023F7E7AD
:103BE0000A2000E010200021CDE9080107E01020A4
:103BF000002145F00405CDE908014FF00808C5F3A0
:103C0000025002280FD001CF00214FF0000A2B07ED
:103C10001FD5702A0DD0DDE908C38CF0100C5CEACA
:103C2000030C0CD015E0FF1D27F00707F7E8020191
:103C3000EBE740228DF828204FF0010A0BE050EA14
:103C4000010306D030238DF828308DF82920022377
:103C50009A46582A04D024A20DF120090B9209E0BB
:103C600026A2F9E7DDE90823FCF712FB0B9B9B5C1E
:103C700009F8013D50EA0102F4D1ADEB0900203012
:103C80000890680701D44FF001080899884502DDC3
:103C9000A8EB010000E000208046002506E00AA80D
:103CA0005A46405D0F9990476D1C761C5545F6DBD2
:103CB00004E030205A460F999047761CB8F1000175
:103CC000A8F10108F5DC05E019F8010B5A460F9937
:103CD0009047761C0899481E08900029F4DC641C63
:103CE000C5E600000928010030313233343536375B
:103CF0003839616263646566000000003031323338
:103D000034353637383941424344454600000000D7
:103D10000146002901DA484270470846FCE701469F
:103D200009B904207047D1E90002904201D1002076
:103D3000F8E70320F6E710B503460C460BB904205C
:103D400010BD1846FFF7EBFF70B103F108001968CA
:103D5000405C20701868401C0F21B0FBF1F201FBA1
:103D6000120018600020EBE70120E9E702460AB9DB
:103D7000042070470F2901D90420FAE75160002080
:103D8000F7E72DE9F04707460D4690461E46DDE968
:103D9000089A16B90020BDE8F0870DB90020FAE7AF
:103DA000142000F03BF904460CB90020F3E727602B
:103DB0006560C4F80880E660A4F8109084F812A04A
:103DC0002046E8E710B50024182000F027F9044643
:103DD0000CB9002010BD18212046FCF7A3FA20469C
:103DE000F8E70000002400BF4FF400510948FCF739
:103DF000A9FE01F019F9641C02232246012108469C
:103E0000FEF71AFE01F03AF94FF47A7001F032FA37
:103E1000EAE700000008024070B504460D46E1B232
:103E20000020FEF74BFE204670BD000008B50020C4
:103E30000090002201210A2001F0EFFC1B490860DC
:103E40000846006810B91AA0FFF7C4FD00BF64203F
:103E500000F066F800909DF8000002280FD11BA02A
:103E6000FFF7B8FD0023642269461048006801F09E
:103E7000BDFD012816D01AA0FFF7ACFD12E09DF899
:103E8000000003280ED11BA0FFF7A4FD002364222D
:103E900069460648006801F0A9FD012802D010A07B
:103EA000FFF798FD0A2000F0F4F8D0E7A00000200A
:103EB0006B657920717565756520637265617465E0
:103EC000206661696C65640D0A0000006B657920ED
:103ED00073686F72742070726573730A000000005B
:103EE0006B65795F71756575652066756C6C206EA4
:103EF0006F770A006B6579206C6F6E672070726552
:103F000073730A0010B54FF480610448FCF712FE89
:103F100008B9002010BD0120FCE7000000040240A9
:103F20001CB5044600200190FFF7ECFF00902548E7
:103F3000007820B101280ED002283FD11BE09DF867
:103F4000000038B920480068401C1F490860012063
:103F50001C49087032E09DF8000040B91A4800681A
:103F6000401C1949086002201649087002E0002030
:103F70001449087022E01448016814A0FFF72AFDD4
:103F80009DF8000028B910480068401C0E490860E0
:103F900013E00D480068A04202D80220019007E01B
:103FA000002009490860032001900020054908709D
:103FB0000020054908600349087000BF00BF9DF854
:103FC00004001CBDA4000020A80000206E6F772014
:103FD0006B65795F70726573735F74696D65203DA1
:103FE0002025640D0A000000FCF7CEFDFEF7FEFD63
:103FF000FEF73EFAFEF710FAFEF7F0FAFEF740FB86
:10400000FEF7B8FBFEF78EFBFEF7D2F900F050F892
:10401000FEF71EFA00F062F800BFFEE7F0B50B30C5
:10402000154D20F007010024144A0FE003688B426D
:104030000BD38B4205D95E1A43184768C3E9006762
:1040400000E04368136002C004E0021D106800280D
:10405000ECD12046002802D1286808B10020F0BD2C
:10406000064A07481060074A121A22F00702C0E900
:10407000002401202860D7E7D8000020D4000020C9
:10408000745000207054002000BF012001F0F2F8AD
:10409000FBE770B50546FFF7C9FC10B16FF00504EA
:1040A00004E0002415B1284601F0E4F8204670BD74
:1040B00010B5FFF7BBFC10B16FF0050409E006482E
:1040C000006820B9012004490860002401E04FF095
:1040D000FF34204610BD00006C00002070B5FFF7D3
:1040E000A5FC10B16FF005041FE01148006801281D
:1040F00019D100BF801F0021002804DB0A07130E1E
:104100000C4A135406E00A07150E0B4A00F00F0381
:104110001B1FD55400BF00BF02200549086001F0F5
:10412000F1F9002401E04FF0FF34204670BD00009B
:104130006C00002000E400E018ED00E02DE9FF47EE
:1041400080468946144600200390FFF76FFC002844
:104150004ED1B8F1000F4BD0802618258246471E5D
:1041600044B3206808B1D4F800A0A06900B1A569E3
:104170002DB1382D03D8207900F0010018B10020AE
:1041800004B0BDE8F087606908B160698608A0687E
:1041900040B1E0685C2805D3206918B1606908B1B6
:1041A000012708E0A06830B9E06820B9206910B99B
:1041B000002700E00027012F0CD12169A0684B46A1
:1041C0003246CDE9005102905146404601F068FF69
:1041D00003900DE067B903A8B2B24B465146CDE952
:1041E0000050404601F02AFF012801D00020039032
:1041F0000398C5E72DE9F04105460E4616480768C5
:1042000016480068001D00F097FE681C38B936B1EA
:1042100012480168091D124800F0FAFE1AE07C19E4
:104220000E4800684460BC4207D20C480168091D72
:104230000C48006800F0D2FE0CE008480168091D37
:104240000948006800F0CAFE08480068844201D2AC
:1042500006480460BDE8F081300000201C0000200A
:104260009407002024000020200000204C000020A3
:1042700010B5044600F0D8FE24480068401C2349CD
:1042800008602348006840B9214804600846006877
:1042900001280DD100F016FA0AE01E48006838B96E
:1042A0001B480068C06AE16A884201D81848046067
:1042B00019480068401C1849086008460068606496
:1042C0001649E06A0968884202D91449E06A086020
:1042D000E16A01EB8101124A02EB8100211D00F02D
:1042E00097FE00F0CBFE0B48006868B108480068F4
:1042F000C06AE16A884207D24FF0805009490860DD
:10430000BFF34F8FBFF36F8F10BD00002C00002054
:104310001C0000203800002048000020340000204D
:10432000E402002004ED00E008B500F07DFE124834
:104330000068E8B9114800F041FE114800F03EFE67
:104340000E48104908600E480F49086000200F4BC6
:104350000F4A102100900A2001F08CFA06490860EB
:104360000846006820B10BA10348006800F046FF32
:1043700000F084FE08BD000060000020A8070020B7
:10438000BC070020580000205C000020D00700205F
:1043900020080020546D72510000000010B516E096
:1043A00000F042FE0C48C068C468201D00F0C4FD47
:1043B0000A480068401E0949086009480068401E14
:1043C0000749086000F05AFE204600F05FF80448F4
:1043D00000680028E4D110BD800700202C000020D8
:1043E0002800002070B504460D46206C70B1216C89
:1043F000E0680144E160D4E90210884201D32168F9
:10440000E1602846226CE168FBF773FF70BD2DE97F
:10441000F04104460F4615464FF00008A66B206C8D
:1044200048B9206800282CD1A06802F0E5F8804641
:104430000020A06025E07DB93946226C6068FBF75A
:1044400058FF216C606808446060D4E9010188422B
:1044500017D32068606014E03946226CE068FBF7EF
:1044600048FF216CE068411AE1602168E0688842F9
:1044700003D2216CA068411AE160022D01D106B17E
:10448000761E701CA0634046BDE8F08110B504465E
:1044900094F8590030B9206B00F00EFE204600F071
:1044A0000BFE1AE094F85900012803D1204600F0D1
:1044B00003FE12E094F85900022801D1012000E027
:1044C000002050B900BF502080F31188BFF34F8FF8
:1044D000BFF36F8F00BF00BFFEE710BD01464A6A01
:1044E00022B10A6B1268C2F1380000E00020704768
:1044F0000146084A126812680AB9012200E0002247
:104500000A600A6822B9034A1268D268106800E09B
:10451000002070475800002030B54FF47053174802
:1045200000F007042CB1C01D20F00700134C041B41
:104530001B1B0246124C22600024114D6C60D018E7
:10454000083820F007000F4C206000240D4D2D6826
:104550006C600C4D2D682C601146441A4C60094C5F
:1045600024680C60084D4C682C60084D4C682C6029
:104570004FF00044064D2C6030BD0000780F002045
:104580007000002078000020800000207C000020C7
:104590008C00002000BFFFF701FF064800680128DB
:1045A000F9D94FF0805004490860BFF34F8FBFF333
:1045B0006F8FF0E7E402002004ED00E010B5044640
:1045C00054B10020A06020600021E16000231A4661
:1045D0001946204601F00AFA10BD2DE9F0410646C1
:1045E0000D4617469846069C0DB9246000E02760EA
:1045F000E66325640121204601F0ACF984F84C8083
:10460000BDE8F0812DE9F05F82460E4690469B465C
:104610000A9F0C9C4FEA8801A522206BFBF77BFECA
:10462000A8F10100216B01EB800929F0070909F0CD
:10463000070008B9012000E0002050B900BF502059
:1046400080F31188BFF34F8FBFF36F8F00BF00BFA0
:10465000FEE786B1002507E0715D04F134004155A5
:10466000705D00B902E06D1C102DF5D300BF002174
:104670004320015502E0002084F83400382F00D395
:104680003727E762E76400202065201D00F0A3FCC7
:1046900004F1180000F09FFC2461C7F13800A0610C
:1046A00064620020606584F858005A4651464846C6
:1046B00000F082FB20600B9808B10B980460BDE805
:1046C000F09F000010B5002407E004EB84010F4ABE
:1046D00002EB810000F072FC641C382CF5D30C480E
:1046E00000F06CFC0B4800F069FC0B4800F066FC25
:1046F0000A4800F063FC0A4800F060FC04480949DD
:10470000086004480849086010BD0000E402002069
:1047100044070020580700206C0700208007002075
:1047200094070020200000202400002010B501463E
:10473000164800E0006803688B42FBD302464368DA
:1047400013448B4204D143684C68234443600146C0
:104750000A464B6813440468A34211D10C4C036809
:104760002468A34208D04B680468646823444B6003
:1047700003681B680B6005E0054B1B680B6001E0DC
:1047800003680B60884200D0016010BD70000020FB
:10479000780000202DE9F04104460D4616461F46DC
:1047A0004FF0000865602461B5420CD8F01BA16988
:1047B000884202D34FF0010811E0211D094800682A
:1047C00000F00CFC0BE0BE4204D2BD4202D34FF01D
:1047D000010804E0211D0448006800F0FFFB40468A
:1047E000BDE8F0815C0000205800002070B505464F
:1047F00000F01AFCA86B08B9012400E0002400F0C6
:104800003DFC204670BD70B5054600F00DFCA86B60
:10481000E96B884201D1012400E0002400F02EFC65
:10482000204670BDF8B505460F461A480068C068B6
:10483000C468201D00F080FB94F8280000F00400FC
:10484000E8B1A06941192B463A462046FFF7A2FF7E
:10485000D8B1002003462A4601460090204602F0C7
:1048600079F8064656B900BF502080F31188BFF38F
:104870004F8FBFF36F8F00BF00BFFEE705E094F8D6
:10488000280020F0010084F828002046216A88478B
:10489000F8BD000058000020F0B587B0A0E00398F4
:1048A000002811DA04AE56B900BF502080F31188F9
:1048B000BFF34F8FBFF36F8F00BF00BFFEE7D6E996
:1048C0000020B168904700BF03980028E6DB059CF4
:1048D000606908B9012000E0002010B9201D00F037
:1048E0002BFB02A800F0DEF8054603980A2875D2D3
:1048F000DFE800F009050739416306083A4200BFC6
:1049000000BF00BF00BF94F8280040F0010084F809
:1049100028000498A269811803462A462046FFF71A
:1049200039FFF8B12046216A884794F8280000F042
:104930000400B8B1002000900498A1694218002337
:104940001946204602F006F8074657B900BF502026
:1049500080F31188BFF34F8FBFF36F8F00BF00BF8D
:10496000FEE700BF3BE000BF94F8280020F0010004
:1049700084F8280033E000BF94F8280040F00100DC
:1049800084F828000498A061A06908B1012000E023
:10499000002050B900BF502080F31188BFF34F8F23
:1049A000BFF36F8F00BF00BFFEE7A06941192B4620
:1049B0002A462046FFF7EEFE11E094F8280000F0AA
:1049C000020018B9204600F077FB05E094F82800B3
:1049D00020F0010084F8280001E0FFE700BF00BFDD
:1049E000002203A90448006801F052F900287FF46E
:1049F00056AF07B0F0BD000060000020F8B50546D6
:104A00000C4600F0DBFD684600F04CF806460098C6
:104A100020BB44B9B54206D801F0DEFE3146284637
:104A2000FFF700FF1CE03CB10E480068006808B9C1
:104A3000012000E000200446A91B22460A48006825
:104A400000F0F2FB01F0C8FE50B94FF0805007496A
:104A50000860BFF34F8FBFF36F8F01E001F0BCFE22
:104A6000F8BD00005C0000206000002004ED00E0C4
:104A70000A490968096809B9012100E0002121B14A
:104A80004FF0FF31064A116006E004490968C96821
:104A9000C868034A41681160704700002000002088
:104AA0004C00002070B5044601F0AEFC05460748F6
:104AB0000068854204D200F00BF80120206001E07C
:104AC0000020206001480560284670BD6800002075
:104AD0002DE9F84334E025480068C068056823489C
:104AE0000068C068C468201D00F026FA2046216ACC
:104AF000884794F8280000F0040008B3A06946191C
:104B0000AE4207D966602461211D1848006800F094
:104B100065FA15E0002003462A460146009020462B
:104B200001F018FF074657B900BF502080F31188E5
:104B3000BFF34F8FBFF36F8F00BF00BFFEE700BF13
:104B40000A480068006808B9012000E00020002839
:104B5000C1D00648D0F800800548006803490860C5
:104B60000348C0F80080BDE8F8830000580000202A
:104B70005C0000200E480068401C08B9012000E0DD
:104B8000002050B900BF502080F31188BFF34F8F31
:104B9000BFF36F8F00BF00BFFEE700BF502080F360
:104BA0001188BFF34F8FBFF36F8F00BF00BFFEE7C9
:104BB0009000002008B500BF6846FFF799FC044646
:104BC00020460099FFF71AFFFFF766FEF4E770B57D
:104BD000044600F029FA94F9455010E0606A08B9DB
:104BE000012000E0002038B904F1240001F0A8FD04
:104BF00018B100F0DDFB00E003E0681E45B2002DB7
:104C0000ECDC00BFFF2084F8450000F037FA00F02C
:104C10000BFA94F9445010E0206908B9012000E033
:104C2000002048B904F1100001F08AFD08B100F03D
:104C3000BFFB681E45B200E001E0002DECDC00BFC8
:104C4000FF2084F8440000F019FA70BD2DE9F0410E
:104C500004464FF0000800F0B1FC4948006808B96C
:104C6000FFF75AFC474800682040002870D1D4B1B3
:104C7000083404F00700B0B104F00700C0F10800E8
:104C8000044404F0070008B9012000E0002050B9F6
:104C900000BF502080F31188BFF34F8FBFF36F8F99
:104CA00000BF00BFFEE7002C52D0374800688442A6
:104CB0004ED8364E3046056801E02E462D686868AD
:104CC000A04202D228680028F7D12D48006885420A
:104CD0003ED0306800F10808286830606868001B22
:104CE000102819D92F1907F0070008B9012000E092
:104CF000002050B900BF502080F31188BFF34F8FC0
:104D0000BFF36F8F00BF00BFFEE76868001B7860CD
:104D10006C603846FFF70AFD1B4968680968081A85
:104D2000194908600846006819490968884203D291
:104D30001548006816490860124968680968084300
:104D400068600020286013480068401C1149086012
:104D500001F042FD08F0070008B9012000E0002042
:104D600050B900BF502080F31188BFF34F8FBFF3BD
:104D70006F8F00BF00BFFEE74046BDE8F081000036
:104D8000780000208C0000207C00002070000020B3
:104D900080000020840000200648006830B10549EA
:104DA000096801F15000096D491C01600148006863
:104DB000704700001C000020001F4FF0807303604C
:104DC000001F21F001030360001F054B036014382E
:104DD0000260001F6FF0020303602038704700007C
:104DE000754B000870B5044604B970BD20680028F2
:104DF0000DDCA07C28B9218A0122E068FBF7ACFE1B
:104E000012E0218A0022E068FBF7A6FE0CE0A07CFD
:104E100028B9218A0022E068FBF79EFE04E0218A7F
:104E20000122E068FBF798FE2068FEF771FF054657
:104E3000052D04DAD4E90101FCF78EFF3FE000BF45
:104E400042F21070B0FBF5F00121C1EB4000616847
:104E50000968C86242F21070B0FBF5F00121C1EBA5
:104E600040016068C16000BFA06838B942F21070AC
:104E7000B0FBF5F06168096848631CE0A06804288D
:104E800007D142F21070B0FBF5F0616809688863E1
:104E900011E0A068082807D142F21070B0FBF5F0CD
:104EA00061680968C86306E042F21070B0FBF5F073
:104EB000616809680864D4E90101FCF7D7FE00BF06
:104EC00093E7000070B506460D4600F0ADF81848AF
:104ED0000068406D88B901201549096881F85800BB
:104EE0005DB101212846FFF785F94FF08050114947
:104EF0000860BFF34F8FBFF36F8F00F0BFF800F073
:104F000093F80B480068446D4CB126B10020084965
:104F10000968486503E0601E054909684865002086
:104F20000349096881F8580000F0A8F8204670BDD0
:104F30001C00002004ED00E001460A69D1E90130BF
:104F40009860D1E9010358605068884201D18868AF
:104F50005060002008611068401E106010687047A3
:104F6000034B0360034B0B6080231360704700000A
:104F7000C00800201C090020034B0360034B0B609A
:104F80004FF48073136070471C0B0020780B0020D7
:104F900070B5044608480068406A85B20648FCF7C8
:104FA00077FB00BF04480068406A401BA042F9D369
:104FB0000148FCF7F7FB70BD6C01002000F108010F
:104FC00041604FF0FF31816000F10801C160016173
:104FD00000210160704700210161704710B5024651
:104FE0000B685C1C0CB9106907E002F1080000E0D6
:104FF0004068446824689C42FAD944684C604C6814
:10500000A160886041600A611468641C146010BD6E
:1050100042684A6093688B60936859609160086148
:1050200003685B1C0360704700BF502080F3118849
:10503000BFF34F8FBFF36F8F00BF0E480068401C57
:105040000C49086008460068012812D10A48006827
:10505000C0B208B9012000E0002050B900BF5020C4
:1050600080F31188BFF34F8FBFF36F8F00BF00BF76
:10507000FEE770479000002004ED00E00D48006856
:1050800050B900BF502080F31188BFF34F8FBFF39A
:105090006F8F00BF00BFFEE706480068401E05494D
:1050A00008600846006820B9002080F3118800BF1E
:1050B00000BF70479000002070B506463546002EB0
:1050C00044D0083D2C46224960680968084008B170
:1050D000012000E0002050B900BF502080F311886B
:1050E000BFF34F8FBFF36F8F00BF00BFFEE7206895
:1050F00008B9012000E0002050B900BF502080F323
:105100001188BFF34F8FBFF36F8F00BF00BFFEE763
:105110000F49606809680840C0B12068B0B90C49FF
:10512000606809688843606000F048FA094960686F
:1051300009680844074908602046FFF7F7FA06485F
:105140000068401C0449086001F046FB70BD000087
:105150008C0000207C0000208800002000204FF000
:10516000E02108618861064800684FF47A71B0FB5D
:10517000F1F0401E4FF0E0214861072008617047C0
:105180001800002070B5FBF76DF80446102C16D3FC
:1051900004F1E02090F8F05315480078854201DBD7
:1051A000012000E0002050B900BF502080F311889A
:1051B000BFF34F8FBFF36F8F00BF00BFFEE70D48F7
:1051C000006800F4E0600C490968884201D80120B9
:1051D00000E0002050B900BF502080F31188BFF3D9
:1051E0004F8FBFF36F8F00BF00BFFEE770BD0000A1
:1051F000940000200CED00E0980000200246002002
:105200000BE0084B53F8303033B9064B43F83010FD
:1052100003EBC0035A6002E0401C0828F1D300BF32
:1052200070470000A40200202DE9F04105460E461B
:1052300017462C46FFF7F8FE94F94400401C10B9BD
:10524000002084F8440094F94500401C10B9002067
:1052500084F84500FFF712FFA06B28B93A463146A3
:1052600004F1240000F0C6F82046FFF7B0FCBDE8CA
:10527000F081000070B504460025D4B112480068E2
:1052800008B9012000E0002050B900BF502080F391
:105290001188BFF34F8FBFF36F8F00BF00BFFEE7D2
:1052A00000F08CF900212046FEF7A4FF01F094FAEB
:1052B00005463DB94FF0805004490860BFF34F8F59
:1052C000BFF36F8F70BD00005400002004ED00E0BC
:1052D00070B50546FFF7A8FE15B92748006800E03D
:1052E00028460446201DFFF727FEA06A18B104F1E6
:1052F0001800FFF721FE21480068401C1F49086084
:105300001D480068844209D1211D1D48FFF780FE19
:105310001C480068401C1B49086009E01A480068E6
:10532000401E194908602046FFF7B0F8FFF7A0FBC0
:10533000FFF7A4FE15480068E8B10F4800688442F2
:1053400019D11348006808B9012000E0002050B9C5
:1053500000BF502080F31188BFF34F8FBFF36F8FD2
:1053600000BF00BFFEE74FF080500A490860BFF35E
:105370004F8FBFF36F8F70BD1C00002048000020CE
:1053800080070020280000202C000020380000208A
:105390005400002004ED00E003490968016003495E
:1053A0000968416070470000440000203000002080
:1053B00001200149086070474000002070B5044694
:1053C0000D4654B900BF502080F31188BFF34F8FB2
:1053D000BFF36F8F00BF00BFFEE7054801681831BB
:1053E0002046FFF7FBFD01212846FEF703FF70BDB5
:1053F0001C00002070B505460E46144655B900BF86
:10540000502080F31188BFF34F8FBFF36F8F00BF21
:1054100000BFFEE70648016818312846FFF7F8FD8F
:105420000CB14FF0FF3621463046FEF7E3FE70BD6B
:105430001C0000202DE9F04706460F4634464FF089
:105440000109002E55D0206D50B900BF502080F3C7
:105450001188BFF34F8FBFF36F8F00BF00BFFEE710
:10546000E06CB84201D23D4600E0E56CE06AA8423B
:105470003FD0206D01283CD11F480068844201D0F4
:10548000012000E0002050B900BF502080F31188B7
:10549000BFF34F8FBFF36F8F00BF00BFFEE7D4F89D
:1054A0002C80E562A06900F0004010B9C5F1380019
:1054B000A06108EB8801114A02EB81016069884212
:1054C00001D1012000E0002098B1201DFFF734FD3C
:1054D0000B49E06A0968884202D90949E06A086014
:1054E000E16A01EB8101054A02EB8100211DFFF712
:1054F0008FFDBDE8F08700001C000020E4020020C2
:105500003400002010B586B000200590049003AA56
:1055100004A905A8FFF724FD0022DDE904101346C5
:10552000CDE9002102901EA11F48039A00F0B8FDAA
:105530001E4908600846006808B1012400E0002404
:10554000012C02D101F0CAF90446012C15D100BF8B
:10555000502080F31188BFF34F8FBFF36F8F00BFD0
:105560004FF0FF3012490860012012490860002006
:105570001149086000F072F810E0601C08B10120C9
:1055800000E0002050B900BF502080F31188BFF325
:105590004F8FBFF36F8F00BF00BFFEE706B010BD97
:1055A00049444C450000000095450008500000208B
:1055B0004C00002038000020300000200248006825
:1055C000401C014908607047540000201E480068D4
:1055D00018B101201D49086034E000201B49086013
:1055E0001B4801680CE051B900BF502080F31188BE
:1055F000BFF34F8FBFF36F8F00BF00BFFEE7491EA1
:1056000001EB8100134A52F8200008B9012000E0A4
:1056100000200028E7D101EB81020E4B03EB820052
:1056200042685268426000F108024368934202D126
:105630004268526842604268D268074B1A60044868
:10564000016000BF704700005400002040000020AF
:1056500034000020E40200201C0000201CB5524849
:1056600000685249884201D0012000E0002050B972
:1056700000BF502080F31188BFF34F8FBFF36F8FAF
:1056800000BF00BFFEE7484800684849491E8842FD
:1056900001D0012000E0002050B900BF502080F36D
:1056A0001188BFF34F8FBFF36F8F00BF00BFFEE7BE
:1056B0003F49084600780190FF200A4610700846CE
:1056C000007800909DF8000000F0F0009DF80020A8
:1056D000904201D1012000E0002050B900BF5020CD
:1056E00080F31188BFF34F8FBFF36F8F00BF00BFF0
:1056F000FEE79DF8000000F050002E4A10700720D1
:105700002D4A106009E02C480068401E2A4A1060AB
:105710009DF800004006000E00909DF8000000F08B
:1057200080008028EFD024480068C0F107000428DA
:1057300001D1012000E0002050B900BF502080F3CB
:105740001188BFF34F8FBFF36F8F00BF00BFFEE71D
:10575000194800680002184A10601046008800F4DA
:10576000E0601060124A019810700F482030006805
:1057700040F470000C49203108600846006840F091
:1057800070400860FFF7EAFC00200C490860FAF757
:1057900031FD0B48006840F0404009490860FAF7C5
:1057A00015FD00201CBD000000ED00E071C20F419E
:1057B00000E400E094000020980000209000002009
:1057C00034EF00E010B500BF502080F31188BFF324
:1057D0004F8FBFF36F8F00BF00F01CFE18B14FF06A
:1057E00080500449086000BF002080F3118800BF8A
:1057F00010BD000004ED00E02DE9F0410446012653
:10580000002722460021012000F007F8054628461F
:10581000FEF7D4FE2846BDE8F0812DE9F8430546A1
:105820000E4617460DB1012000E0002050B900BF20
:10583000502080F31188BFF34F8FBFF36F8F00BFED
:1058400000BFFEE705FB06F808F15000FFF7FEF980
:10585000044664B1A14609F15009002084F84600CD
:105860003B464A46314628460094FEF7B6FE20469F
:10587000BDE8F8832DE9F84380460E4617461D46DD
:10588000DDF82090B8F1000F01D0012000E00020E9
:1058900050B900BF502080F31188BFF34F8FBFF382
:1058A0006F8F00BF00BFFEE70DB1012000E00020B8
:1058B00050B900BF502080F31188BFF34F8FBFF362
:1058C0006F8F00BF00BFFEE707B10EB1012000E0FF
:1058D000002050B900BF502080F31188BFF34F8FD4
:1058E000BFF36F8F00BF00BFFEE707B90EB90120FD
:1058F00000E0002050B900BF502080F31188BFF3B2
:105900004F8FBFF36F8F00BF00BFFEE750200090A6
:105910000098502801D1012000E0002050B900BFBC
:10592000502080F31188BFF34F8FBFF36F8F00BFFC
:1059300000BFFEE700BF2C464CB1012084F84600B2
:105940004B463A46314640460094FEF746FE204616
:10595000BDE8F88370B505460E462C4654B900BF25
:10596000502080F31188BFF34F8FBFF36F8F00BFBC
:1059700000BFFEE7FFF758FBD4E90F12206801FBD8
:105980000200A0600020A06320686060E06B401E01
:10599000226C216800FB0211E160FF2084F84400C2
:1059A00084F845009EB9206908B9012000E0002074
:1059B000A8B904F1100000F0C3FE80B14FF0805090
:1059C00009490860BFF34F8FBFF36F8F07E004F101
:1059D0001000FFF7F3FA04F12400FFF7EFFAFFF7E6
:1059E0004DFB012070BD000004ED00E02DE9FF43F8
:1059F00083B0064688461D464FF00009344654B928
:105A000000BF502080F31188BFF34F8FBFF36F8F1B
:105A100000BF00BFFEE7B8F1000F01D1206C08B94C
:105A2000012000E0002050B900BF502080F3118811
:105A3000BFF34F8FBFF36F8F00BF00BFFEE7022D94
:105A400002D1E06B012801D1012000E0002050B913
:105A500000BF502080F31188BFF34F8FBFF36F8FCB
:105A600000BF00BFFEE700F0BFFC08B9059808B909
:105A7000012000E0002050B900BF502080F31188C1
:105A8000BFF34F8FBFF36F8F00BF00BFFEE700BFB4
:105A9000FFF7CAFAA06BE16B884201D3022D28D12F
:105AA0002A4641462046FEF7B2FC0746606A08B91E
:105AB000012000E0002068B904F1240000F040FE5D
:105AC00088B14FF0805032490860BFF34F8FBFF369
:105AD0006F8F08E03FB14FF080502D490860BFF351
