:020000040800F2
:10000000C05C00206D020008272100084B1D00087D
:1000100025210008DD030008A12C000800000000D5
:10002000000000000000000000000000AD0100081A
:10003000910400080000000009020008592400088B
:10004000870200088702000887020008870200086C
:10005000870200088702000887020008870200085C
:10006000870200088702000887020008870200084C
:10007000870200088702000887020008870200083C
:1000800087020008870200088702000800000000BD
:1000900000000000000000000000000087020008CF
:1000A000870200088702000815250008870200085B
:1000B000870200082125000887020008870200083F
:1000C00087020008870200088702000887020008EC
:1000D000870200086D2B000887020008000000005E
:1000E000870200088702000887020008000000005D
:1000F000000000000000000000000000870200086F
:10010000000000008702000887020008870200083C
:1001100000000000000000000000000000000000DF
:100120008702000887020008E10300088702000830
:10013000870200080000000000000000000000002E
:10014000000000000000000000000000870200081E
:10015000870200088702000887020008870200085B
:10016000870200088702000800000000000000006D
:10017000000000000000000000000000000000007F
:1001800000000000870200080000000000000000DE
:100190008702000887020008DFF80CD000F00CF995
:1001A0000048004735310008C05C00202C4B19681E
:1001B0000868B0E8F04F80F30988BFF36F8F4FF005
:1001C000000080F3118870470000000008480068B4
:1001D000006880F308884FF0000080F3148862B64E
:1001E00061B6BFF34F8FBFF36F8F00DF00BF00BF5B
:1001F00008ED00E0DFF80C00016841F470010160D7
:10020000704700BF88ED00E0EFF30980BFF36F8F08
:10021000134B1A681EF0100F08BF20ED108A20E95A
:10022000F04F106009B44FF0500080F31188BFF315
:100230004F8FBFF36F8F04F023F84FF0000080F36F
:10024000118809BC19680868B0E8F04F1EF0100F5B
:1002500008BFB0EC108A80F30988BFF36F8F704736
:1002600028000020EFF30580704700000648804713
:1002700006480047FEE7FEE7FEE7FEE7FEE7FEE78B
:10028000FEE7FEE7FEE7FEE7052500089901000806
:100290002DE9F05F0546002092469B4688460646BB
:1002A000814640241BE0284641464746224600F04E
:1002B00072F853465A46C01A914110D31146184657
:1002C000224600F059F82D1A67EB01084F462246E6
:1002D0000120002100F050F817EB00094E41201ECC
:1002E000A4F10104DFDC484631462A464346BDE816
:1002F000F09F40EA01039B0703D009E008C9121FE1
:1003000008C0042AFAD203E011F8013B00F8013BCF
:10031000521EF9D27047D2B201E000F8012B491EFB
:10032000FBD270470022F6E710B513460A46044692
:100330001946FFF7F0FF204610BD034611F8012BC8
:1003400000F8012B002AF9D11846704730B50B464A
:10035000014600202022012409E021FA02F59D42F5
:1003600005D303FA02F5491B04FA02F52844151EC9
:10037000A2F10102F1DC30BD202A04DB203A00FAB0
:1003800002F1002070479140C2F1200320FA03F3EC
:10039000194390407047202A04DB203A21FA02F0EA
:1003A0000021704721FA02F3D040C2F120029140AF
:1003B0000843194670470000064C074D06E0E06808
:1003C00040F0010394E8070098471034AC42F6D39C
:1003D000FFF7E6FEBC520008DC520008FEE7000012
:1003E000014800F0B3B800004C0200200168182357
:1003F000CAB2103AB2FBF3F2054B6FF30901032ABC
:100400009B5CC36500D9091D8165084670470000E3
:10041000B851000810B5014600208B698A6A4FF078
:10042000C07453B1B3F5005F15D072B1012A0CD07E
:10043000022A0AD0032A09D104E01AB1012A06D0FF
:10044000022A03D1C96AC90100D5012010BDC96AB9
:10045000A142FAD010BD002AF7D0012AF2D0022A18
:10046000F3D0032AF3D010BD30B50468256825F415
:1004700080252560046863608368402B036803D08F
:1004800099600068C26030BD9A600068C16030BD8C
:10049000704772B6FEE72DE9F0410446876D00F023
:1004A000C9FA064694F835000025022806D08020B7
:1004B000606584F834500120BDE8F081206801684F
:1004C00021F0160101602068416921F0800141613D
:1004D000206C08B9A06C20B12068016821F00801E7
:1004E00001602068016821F0010101600CE000F06A
:1004F000A1FA801B052807D920206065032084F815
:10050000350084F83450D7E720680068C007EED182
:1005100094F85C103F208840B860012084F83500D2
:1005200084F834500020C7E790F83510022903D032
:100530008021416501207047052180F83510006851
:10054000016821F001010160002070472DE9F843A6
:1005500004464FF00009CDF8009063484FF416515F
:10056000A56D0068B0FBF1F72E6894F85C100820C8
:1005700000FA01F131420FD021680A6852070BD509
:100580000A6822F004020A6094F85C108840A860AF
:10059000606D40F00100606594F85C104FF0010858
:1005A00008FA01F0304208D021684969090604D5EB
:1005B000A860606D40F00200606594F85C10042053
:1005C0008840304208D021680968890704D5A860AE
:1005D000606D40F00400606594F85C101020884065
:1005E000304218D021680968090714D5A86020682E
:1005F0000168490304D50068000308D5A16C07E031
:100600000168C90503D4016821F008010160216C6B
:1006100009B12046884794F85C1020208840304279
:1006200031D021680968C9062DD5A86094F8350035
:1006300005282068016806D0490347D500680003F3
:100640001DD4616C1CE021F0160101602068416935
:1006500021F080014161206C08B9A06C20B12068B4
:10066000016821F00801016094F85C103F20884087
:10067000A86084F8358084F83490216D1FE0E16B28
:1006800009B120468847606D00282BD0606DC007F7
:1006900014D0052084F835002068016821F001019C
:1006A00001600098401C0090B84203D820680068A0
:1006B000C007F6D184F8358084F83490E16C0029C5
:1006C00010D001B02046BDE8F04308470168C905D5
:1006D000D5D4016821F01001016084F8358084F8D8
:1006E0003490CCE7BDE8F883240000202DE9F041E8
:1006F000044600F09FF906465CB1022084F83500FC
:10070000002584F834502068016821F0010101605F
:100710000DE00120BDE8F08100F08CF9801B052878
:1007200005D920206065032084F83500F2E72068B1
:100730000068C007F0D12268116820480140D4E960
:1007400001031843D4E9033633431843636918435C
:10075000A3691843E3691843236A18430843616A8D
:10076000042903D1D4E90B1319430843106020680E
:100770004069666A20F0070130460E4301270428CD
:100780000CD1A06A0643E06A40B12046FFF742FE62
:1007900020B14020606584F83570BAE72068466172
:1007A0002046FFF723FE94F85C203F2191408160B2
:1007B000656584F835700020ACE700003F8010F0DC
:1007C0002DE9F0410446866D90F83400002501289B
:1007D0000DD0012084F8340094F835700020012FEA
:1007E00007D084F8340002252846BDE8F0810220B5
:1007F000FBE7022784F8357060652046FFF734FE7A
:1008000094F85C103F208840B0602068016841F097
:1008100016010160206C20B12068016841F00801D8
:1008200001602068016841F001010160DCE700001F
:100830002DE9F84FDFF8B8A10022012403254FF07D
:100840000F090AF1040BAAF1040E00BF0B6804FAA9
:1008500002F63340B34273D10F7907F00307012F3B
:1008600001D0022F16D187684FEA420805FA08FC2A
:1008700027EA0C07D1F80CC00CFA08FC4CEA070C6C
:10088000C0F808C04768B7430E79C6F30016964013
:100890003E4346600E79F643B6070DD0C768560052
:1008A00005FA06FC27EA0C07D1F808C00CFA06FC8A
:1008B0004CEA070CC0F80CC00E7906F00306022EB5
:1008C00010D1D60800EB8608D8F8206057074FEA09
:1008D000D76C09FA0CF7BE430F6907FA0CF73743D8
:1008E000C8F8207006684FEA420C05FA0CF7BE43C0
:1008F0000F7907F0030707FA0CF7374307604E68D4
:1009000016F4403F6DD03B4E376847F48047376060
:10091000366822F0030706F480460096364E07EB51
:10092000060CDCF8086897073F0F09FA07F826EA73
:100930000806DFF8C880404503D14FF000081EE0EC
:100940004FE0DFF8BC80404502D14FF0010816E0CF
:10095000DFF8B080404502D14FF002080FE0DFF829
:10096000A880404502D14FF0030808E0DFF89C80E2
:10097000404502D14FF0040801E04FF0070808FAA3
:1009800007F848EA0608CCF80888DAF80060574605
:10099000D1F804C09E435FEACC2C00D51E433E60D4
:1009A000DBF800605F46D1F804C09E435FEA8C2C00
:1009B00000D51E433E60DEF800607746D1F804C0E3
:1009C0009E435FEA8C3C00D51E433E60084F083FC3
:1009D0003E68D1F804C09E435FEACC3C00D51E437C
:1009E0003E60521C102AFFF431AFBDE8F88F0000C2
:1009F000083C014044380240003001400000024001
:100A00000004024000080240000C024000100240B6
:100A10000069084000D001207047426921EA0203C2
:100A20000A4043EA0241816170470AB1816170471F
:100A30000904FBE7014880687047000018000020A7
:100A400002488168027811448160704718000020D4
:100A50000B4810B5016841F400710160016841F470
:100A600080610160016841F480710160032000F041
:100A70009FF80F2000F006F800F050F8002010BD9D
:100A8000003C024030B505461F4887B0002401688D
:100A900041F002010160006806A900F00200009028
:100AA00001A800F031F90498A8B100F04DF9400018
:100AB0001649174AB0FBF1F11648491E026040F290
:100AC000E732C0E90324C0E90114846100F084FB2B
:100AD000040003D015E000F037F9E9E70D4800F015
:100AE00021FC04000DD11D2000F034F8102D07D298
:100AF000002229461D2000F03BF80748056000E071
:100B0000012407B0204630BD4038024040420F006B
:100B100000040040AC0200201C0000200C4882B001
:100B2000016841F480410160006800F48040009059
:100B30000748001F016841F08051016000680022F1
:100B400000F0805000900F21901E02B000F010B80D
:100B500044380240002809DB00F01F0201219140C7
:100B60004009800000F1E020C0F80011704700004B
:100B7000F0B40E4B1B680C46C3F30223C3F1070508
:100B8000042D00D90425191D072901D2002300E0F6
:100B9000DB1E012606FA05F1491E214099409E40C0
:100BA000761E16403143F0BC02F0C0B80CED00E0F8
:100BB000064900F0070208684FF6FF03184040EAB4
:100BC0000220034A10430860704700000CED00E06B
:100BD0000000FA052DE9F0470E46050065D0DFF864
:100BE0001481D8F80000F7B200F00700B04207D235
:100BF00088F80070D8F8000000F00700B04254D127
:100C000028683D4C810712D5400703D5206840F481
:100C1000E05020602878000703D5206840F4604049
:100C200020602068A96820F0F00008432060287840
:100C3000C0072DD0304968680839012812D0022831
:100C400013D0032811D00968890700292DDA2168FB
:100C500021F0030101432160FFF7ECFE814641F2E0
:100C6000883A0EE009688903EFE709688901ECE733
:100C7000FFF7E0FEA0EB0901514502D90320BDE8D2
:100C8000F0872068696800F00C00B0EB810FEFD1AD
:100C9000D8F80010404601F00701B14207D90770AB
:100CA000006800F00700B04201D00120E7E7287893
:100CB000400705D52068E96820F4E050084320602B
:100CC0002878000706D52068296920F4604040EAAA
:100CD000C100206000F058F82168084AC1F30311F0
:100CE000515CC8400649086006480068FFF7CAFE24
:100CF0000020C4E7003C024008380240C051000810
:100D0000240000201C0000200F2202600C4A1368FF
:100D100003F003034360136803F0F0038360136878
:100D200003F4E053C36012684FF4E05303EAD202C5
:100D300002610448006800F0070008607047000086
:100D400008380240003C0240044805490068096830
:100D5000044AC1F38221515CC8407047240000203E
:100D600008380240D0510008044805490068096865
:100D7000044AC1F34231515CC8407047240000204E
:100D800008380240D0510008154810B5006810F02E
:100D90000C02144813D01449042A0FD0082A0ED18B
:100DA0000F4C241F2268236802F03F025B0207D524
:100DB0002068C0F38810A0FB010106E0084610BDC2
:100DC0002168C1F38811A1FB00010023FFF760FA3D
:100DD0002168C1F30141491C4900B0FBF1F010BD8D
:100DE000083802400024F40040787D012DE9F84FD6
:100DF00004006ED02078DFF84C93C007A9F10405F9
:100E00004AD009F104000168C1F38101012908D029
:100E10000068C0F3810002280AD1D9F8000040021E
:100E200006D52868800337D560680028E1D033E014
:100E30006068B0F5803F10D0B0F5A02F286810D0C2
:100E400020F480302860286820F4802028606068C2
:100E5000A8B1FFF7EFFD06460DE0286840F48030AA
:100E6000F4E740F480202860F7E700BFFFF7E2FDD9
:100E7000801B642873D828688003F7D50CE0FFF73F
:100E8000D9FD064605E000BFFFF7D4FD801B6428AE
:100E9000F0D828688003F7D42078DFF8AC82800788
:100EA0004FF0000A3ED5A748001D016811F00C0F55
:100EB00008D00068C0F3810002280BD1D9F80000E7
:100EC000400207D42868800716D5E068012800D1C1
:100ED00012E033E1E068B8B10120C8F80000FFF784
:100EE000A9FD064605E000BFFFF7A4FD801B022810
:100EF000C0D828688007F7D52868216920F0F80055
:100F000040EAC10028600DE0C8F800A0FFF792FD9C
:100F1000064604E0FFF78EFD801B02281FD82868D4
:100F20008007F7D42078000722D5864F874861696B
:100F3000703771B101210160FFF77CFD064604E0C6
:100F4000FFF778FD801B022809D838688007F7D59D
:100F50000EE0C0F800A0FFF76DFD064605E082E058
:100F6000FFF768FD801B02287DD838688007F7D41A
:100F70002078400768D5DFF8CCB100270BF13C0B97
:100F8000DBF80000C0000BD4DBF8001041F080510A
:100F9000CBF80010DBF80000012700F08050009033
:100FA0006B4E3068C00510D4306840F480703060FB
:100FB000FFF740FD009005E0FFF73CFD0099401A67
:100FC000022850D83068C005F6D55E4EA0686C3651
:100FD00001280FD00528306810D020F001003060C3
:100FE000306820F004003060A068B8B1FFF722FD3F
:100FF00000900FE0306840F00100F4E740F004009A
:101000003060F7E7FFF716FD0099411A41F288308A
:10101000814266D830688007F4D50EE0FFF70AFDFC
:10102000009007E0FFF706FD0099411A41F2883071
:10103000814256D830688007F4D42FB1DBF8001015
:1010400021F08051CBF80010A069C8B33D49091DBB
:101050000968C1F3810102294AD00228504607D00D
:10106000C8F8600000E03CE0FFF7E4FC04463BE029
:101070004746C8F86000FFF7DDFC064605E000BF04
:10108000FFF7D8FC801B02282BD828688001F7D4F2
:10109000D4E907010843A16A2E4A490802EB01413D
:1010A000626A41EA8211084394F82C1040EA016117
:1010B000C9F8001001203866FFF7BCFC044606E0C2
:1010C0003EE000BFFFF7B6FC001B022809D82868E5
:1010D0008001F7D534E000BFFFF7ACFC001B02280D
:1010E00002D90320BDE8F88F28688001F4D427E0F6
:1010F0000128F7D0D9F80000E26900F4800191429C
:101100001CD1226A00F03F01914217D147F6C0710D
:10111000626A0140B1EB821F10D1A26A4FF0FF3327
:1011200000F4403103EB5202B1EB024F06D194F8C8
:101130002C1000F07060B0EB016F01D00120D1E7FE
:101140000020CFE70438024000004742800E4742AB
:10115000007000400000FFFF7047704770B590F8C6
:101160003C20012A2CD0012480F83C40022280F847
:101170003D2003685A689D6822F070060A68324371
:101180005A60104B02689A420ED0B2F1804F0BD0D9
:101190000D4B9A4208D00D4B9A4205D00C4B9A4207
:1011A00002D00C4B9A4204D1496825F080031943C0
:1011B000916080F83D40002180F83C10084670BDE9
:1011C000022070BD00000140000400400008004003
:1011D000000C00400040014010B5040003D094F81A
:1011E0003D0010B107E0012010BD002084F83C0054
:1011F000204600F01FF8022084F83D00211D2068E1
:1012000001F094F9012084F8460084F83E0084F847
:101210003F0084F8400084F8410084F8420084F8DC
:10122000430084F8440084F8450084F83D00002021
:1012300010BD000008B51D4A01681D48914207D144
:10124000016841F004010160006800F0040009E059
:10125000184A914208D1016841F008010160006814
:1012600000F00800009008BD1148134A001D91428B
:1012700007D1016841F480310160006800F48030DA
:10128000F0E70E4A9142EED1016841F480210160FD
:101290000068002200F48020009011461A20FFF719
:1012A00067FCBDE808401A20FFF754BC0008004066
:1012B00040380240000C004000400140004801401E
:1012C00090F83D10012901D001207047022180F8DB
:1012D0003D1000680E4988420ED0B0F1804F0BD00F
:1012E0000C49884208D00C49884205D00B498842F5
:1012F00002D00B49884204D1816801F00701062918
:1013000003D0016841F00101016000207047000036
:10131000000001400004004000080040000C0040B4
:101320000040014090F83D10012901D00120704794
:10133000022180F83D100168CA6842F00102CA60CB
:1013400000680E4988420ED0B0F1804F0BD00C4996
:10135000884208D00B49884205D00B49884202D008
:101360000A49884204D1816801F00701062903D0A7
:10137000016841F001010160002070470000014058
:101380000004004000080040000C00400040014004
:1013900001680A6A41F211131A4207D10A6A9B10C6
:1013A0001A4203D10A6822F001020A60012180F882
:1013B0003D100020704770B5044690F83C000025B1
:1013C000012817D0012684F83C60022084F83D00F3
:1013D0002068826822F0770222F47F4282600868E7
:1013E000502838D00DDC20284FD005DC90B31028D1
:1013F00011D14AE0022070BD302846D040280AD1E1
:101400003BE060282FD070280DD0B0F5805F03D06E
:10141000B0F5005F12D0012584F83D60002084F80B
:101420003C00284670BDCB68D1E90121206801F05D
:10143000DAF82068816841F0770109E0CB68D1E9EA
:101440000121206801F0CFF82068816841F48041D3
:101450008160E1E719E0CA684968206801F078F91D
:101460005021206806E0CA684968206801F081F9C7
:101470006021206801F0C1F8CEE7CA684968206899
:1014800001F066F940212068F4E722680146104621
:10149000F0E770472DE9F04104460068C668056929
:1014A0004FF00007A90713D5B10711D5F91E016147
:1014B00001202077206880698007204602D0FFF74E
:1014C000E8FF04E000F0BEF8204600F050F927776E
:1014D000680716D5700714D521686FF004000861FD
:1014E000022020772068806910F4407F204602D0D7
:1014F000FFF7CFFF04E000F0A5F8204600F037F931
:101500002777280715D5300713D521686FF0080015
:101510000861042020772068C0698007204602D037
:10152000FFF7B7FF04E000F08DF8204600F01FF948
:101530002777E80616D5F00614D521686FF010005D
:101540000861082020772068C06910F4407F204699
:1015500002D0FFF79EFF04E000F074F8204600F090
:1015600006F92777E80708D0F00706D021686FF062
:1015700001000861204600F08BF9280608D53006E6
:1015800006D521686FF0800008612046FFF7E4FD72
:10159000680608D5700606D521686FF0400008611E
:1015A000204600F0B5F9A8060AD5B00608D521688E
:1015B0006FF0200008612046BDE8F041FFF7CDBD87
:1015C000BDE8F08130B587B0044614216846FEF7C7
:1015D000A9FE2468164D1748022201210323AC42BC
:1015E00010D1046844F0020404600068CDE90213DD
:1015F00000F0020005904020CDE900020492694607
:101600000D4811E00D4DAC4210D1046844F00104C6
:1016100004600068CDE9001200F00100CDE902137A
:10162000CDE9042069460648FFF702F907B030BD4E
:10163000000800403038024000040240000C004026
:1016400000000240704770B5044690F83C00002648
:101650000D4601280FD0012084F83C006AB1042A0D
:101660001DD0082A2FD00C2A3FD00126002084F854
:101670003C00304670BD022070BD206800F0C6FFFF
:101680002068816941F0080181612068816921F049
:1016900004018161206881692A69114311E0206891
:1016A00000F0DCFF2068816941F4006181612068FD
:1016B000816921F480618161206881692A6941EA38
:1016C00002218161D2E7206800F0F4FF2068C1693F
:1016D00041F00801C1612068C16921F00401C161C4
:1016E0002068C1692A69114311E0206801F00EF8F1
:1016F0002068C16941F40061C1612068C16921F4B9
:101700008061C1612068C1692A6941EA0221C16121
:10171000ACE710B5040003D094F83D0010B107E029
:10172000012010BD002084F83C00204600F01EF887
:10173000022084F83D00211D206800F0F7FE012002
:1017400084F8460084F83E0084F83F0084F84000A6
:1017500084F8410084F8420084F8430084F844008F
:1017600084F8450084F83D00002010BD70477047A4
:1017700010B50446022249B104290ED0082913D01D
:1017800094F84100012816D0012010BD94F83E00C5
:101790000128F9D184F83E200FE094F83F00012899
:1017A000F2D184F83F2008E094F840000128EBD102
:1017B00084F8402001E084F841200122206800F0F4
:1017C00005FF12492068884203D1426C42F400426E
:1017D0004264206888420ED0B0F1804F0BD00C4993
:1017E000884208D00B49884205D00B49884202D074
:1017F0000A49884204D1816801F00701062903D013
:10180000016841F001010160002010BD00000140AD
:101810000004004000080040000C0040004001406F
:1018200030B504460D460068002200F0CFFE174B8D
:1018300041F2111120688A10984209D1036A0B42C3
:1018400006D1036A134203D1436C23F4004343647B
:101850002068036A0B4206D1016A114203D1016874
:1018600021F00101016001203DB1042D08D0082DB7
:1018700009D084F84100002030BD84F83E00FAE72A
:1018800084F83F00F7E784F84000F4E700000140E7
:1018900070B5044600681A49884201D1FFF7D0F8B4
:1018A00018492068884229D1174D184C2978F02909
:1018B00011D86878F0280ED88539A06801F00DFDA0
:1018C0000146206802F0B4F96978E0689B3901F0BC
:1018D00004FD014604E00021206802F0A9F900217E
:1018E000606802F0A5F92069401C2061206802F0C0
:1018F000A3F96068BDE8704002F09EB970BD0000B9
:101900000004004000480140B90000200000002011
:10191000704738B5044690F84200202801D00220D4
:1019200038BD51B14AB101202063002060632046D8
:1019300001F0CCF8216B012901D0012038BD2168CC
:101940000A684968009121680C3151E8002F42F083
:10195000100241E80023002BF5D138BD1CB500680A
:101960000E4A904218D10E4CA06801F0CEFA002029
:10197000019001A80090002303220121606903F077
:101980004FF90198002807D006494FF080500860B1
:10199000BFF34F8FBFF36F8F1CBD000000100140DD
:1019A000B800002004ED00E070470000F8B50168C1
:1019B00004460868CA684B6910F00F0F4FF0000525
:1019C00059D003F0010602F49077374365D0C10780
:1019D00005D0D10503D5616C41F001016164410777
:1019E00005D5D90703D0616C41F00201616481071C
:1019F00005D5D90703D0616C41F00401616401078A
:101A000007D502F02001314303D0616C41F0080199
:101A10006164616C00293AD0800604D5900602D535
:101A2000204600F06BFF20684069616CC0F38010B5
:101A3000090700D460B3204600F02BFF20684069FE
:101A4000400621D52068143050E8001F21F04001E5
:101A500040E80012002AF5D1E06BA8B17249016597
:101A6000E06BFEF761FD002811D0E06B016D01B065
:101A7000BDE8F040084783060FD593060DD52046F4
:101A8000BDE8F84000F03ABF2046FFF78DFFF8BDF3
:101A90002046FFF789FF6564F8BD266B2023012EE1
:101AA0007ED1C6067CD5D6067AD5086848680090EF
:101AB00048694FF0020640064DD5E26B1068406859
:101AC0004FF480770004000C3AD0A18D814237D9C1
:101AD000E085D069B8422DD020680C3050E8001F56
:101AE00021F4807140E80012002AF5D120681430FA
:101AF00050E8001F21F0010140E80012002AF5D152
:101B00002068143050E8001F21F0400140E8001226
:101B1000002AF5D184F84230256320680C3050E863
:101B2000001F21F0100140E80012002AF5D1E06BFF
:101B3000FEF7B1FC6663A08DE18D401A81B206E02C
:101B4000A18D8142A8D1D069B842A5D16663204653
:101B5000FFF704FFF8BDA08DE18D401A81B2E08D42
:101B60000028F7D00029F5D020680C3050E8002F6D
:101B700022F4907240E80027002FF5D1206814303D
:101B800050E8002F22F0010240E80027002FF5D195
:101B900084F84230256320680C3050E8002F00E0C4
:101BA00006E022F0100240E80023002BF3D1CDE73D
:101BB00005062BD5150629D594F841002128C9D151
:101BC000A068B0F5805F01D12069B0B1206A411CE6
:101BD0002162216800784860E08C401E0004000CFF
:101BE000E084B7D12068C16821F08001C16020681D
:101BF000C16841F04001C160F8BD206A0088C0F3AF
:101C000008004860206A801C2062E5E74006F3D5A2
:101C10005006F1D5CA68204622F04002CA6084F816
:101C2000413000F091F8F8BD9727000870B5040026
:101C300004D094F84100002510B106E0012070BDE9
:101C400084F84050204600F023F8242084F8410016
:101C50002068C16821F40051C160204600F0B0FE48
:101C60002068016921F4904101612068416921F0F7
:101C70002A0141612068C16841F40051C160656476
:101C8000202084F8410084F842006563002070BD84
:101C900070B586B0064614216846FEF743FB24491A
:101CA0003068884241D123480025016841F0100185
:101CB0000160006800F0100005901E4814380168AB
:101CC00041F0010101600068694600F001000590E3
:101CD0004FF4C06000900220CDE90105032003907D
:101CE000072004901448FEF7A3FD154C134820600C
:101CF0004FF00060C4E901054014C4E903508010AE
:101D00006561C4E90650256220466562FEF7EEFC77
:101D100008B1FEF7BEFBF463002205212520A6636F
:101D2000FEF726FF2520FEF715FF06B070BD000068
:101D3000001001404438024000000240406402406C
:101D40004C020020704770477047FEE73EB500F038
:101D500095FA00F0E9F900244FF4FA73CDE9003464
:101D6000224621460120029401F0D7F8154D4FF488
:101D700096730022A860CDE9003411460120029438
:101D800001F0CBF8E8600220CDE9000400220E4B00
:101D90000E49104601F0DEF828608020CDE90004ED
:101DA00000220B4B0B49104601F0D4F868602868FC
:101DB00001F042FF686801F03FFFBDE83E40064881
:101DC000FFF7B0BA00000020000002402C01002004
:101DD00000040240E4000020BC010020094808B5CE
:101DE000016841F4800101600068002200F4800075
:101DF000009005213A20FEF7BBFEBDE808403A20DE
:101E0000FEF7A8BE3038024010B5044A002104484D
:101E100001F01EFA0349086010BD0000945100084B
:101E2000DD230008140000202DE9F04387B01421C1
:101E30006846FEF777FA3B480024016841F0040148
:101E40000160016801F004010591016841F0800121
:101E50000160016801F080010591016841F0010114
:101E60000160016801F001010591016841F0020182
:101E7000016000682C4E00F00200059000224FF433
:101E800060413046FEF7D1FDDFF8A080002202213C
:101E90004046FEF7CAFD0122D70339464046FEF709
:101EA000C4FDDFF88C90002280214846FEF7BDFD7E
:101EB00001254FF42040CDE90005CDE902546946E3
:101EC0003046FEF7B5FCA803009011200394CDE93D
:101ED000010569463046FEF7ABFC02200326CDE93A
:101EE0000005CDE9024669464046FEF7A1FCA8027E
:101EF0008DE8310069464846FEF79AFC0097CDE927
:101F00000154694640460394FEF792FC8020CDE9D7
:101F10000005CDE9024669464846FEF789FC07B050
:101F2000BDE8F08330380240000802400000024063
:101F3000000402400B4810B509490160632141606B
:101F4000002140F2E732C0E9021201618161FFF72E
:101F500043F9002803D0BDE81040FEF79ABA10BD3F
:101F600000480140BC01002010B58EB00024079449
:101F7000089409940A940B941C2168460C94FEF76B
:101F8000D1F91F481D49016041F28731C0E90114B0
:101F90006321C0E9031480218161FFF71DF908B1B5
:101FA000FEF777FA4FF48050079007A91448FFF71F
:101FB00002FA08B1FEF76DFA1148FFF7AAFB08B163
:101FC000FEF767FA0B940BA90D480C94FFF7C6F8BF
:101FD00008B1FEF75EFA6020CDE900040294002209
:101FE000694607480494FFF72EFB08B1FEF751FA43
:101FF0000348FFF7E7FA0EB010BD000000080040EC
:10200000E400002010B58EB00024079408940994D1
:102010000A940B941C2168460C94FEF783F91F4820
:102020001D49016041F28731C0E901146321C0E913
:10203000031480218161FFF7CFF808B1FEF729FA78
:102040004FF48050079007A91448FFF7B4F908B17E
:10205000FEF71FFA1148FFF75CFB08B1FEF719FA0B
:102060000B940BA90D480C94FFF778F808B1FEF714
:1020700010FA6020CDE90004029400226946074866
:102080000494FFF7E0FA08B1FEF703FA0348FFF7FC
:1020900099FA0EB010BD0000000C00402C01002089
:1020A0001FB5002110480091019102910D4A039142
:1020B00002606322C0E901214FF6FF72C0E90321EB
:1020C0008161FFF789F808B1FEF7E3F94FF480501A
:1020D000009069460448FFF76EF9002801D0FEF72A
:1020E000D8F91FBD00400140740100200C4810B514
:1020F0000A4901604FF4E1314160002181600C2206
:10210000C160C0E904128161C161FFF78FFD002841
:1021100003D0BDE81040FEF7BCB910BD001001406F
:1021200004020020FEE7FEE770B5002400212046EF
:1021300000F0F0F80025002000F00EF96D1CEDB263
:10214000802DF8D3641CE4B2082CEFD370BD0000DE
:1021500010B5064C0122D1032046FEF766FC20464E
:102160000122BDE810409103FEF75FBC0008024069
:102170002DE9F0471C4E074600244FF080084FF42D
:1021800080494FF4004500BF28FA04F23A4049461E
:102190003046FEF74AFC012001F00EFE01222946DE
:1021A0003046FEF742FC012001F006FE00222946DF
:1021B0003046FEF73AFC012001F0FEFD641CE4B25B
:1021C000082CE1D3012229463046FEF72EFC0120DF
:1021D00001F0F2FD002229463046FEF726FCBDE85C
:1021E000F047012001F0E8BD0008024070B501226F
:1021F000114D940321462846FEF717FC012001F0FB
:10220000DBFD0122D60331462846FEF70EFC0120F5
:1022100001F0D2FD002221462846FEF706FC0120EF
:1022200001F0CAFD002231462846FEF7FEFBBDE85C
:102230007040012001F0C0BD0008024070B50E4D95
:102240004FF48044002221462846FEF7EEFB012091
:1022500001F0B2FD0122D1032846FEF7E6FB012082
:1022600001F0AAFD012221462846FEF7DEFBBDE86B
:102270007040012001F0A0BD0008024010B5FFF73A
:1022800067FFAE2000F057F8D52000F054F880200A
:1022900000F051F8A82000F04EF83F2000F04BF875
:1022A000D32000F048F8002000F045F8402000F06E
:1022B00042F8A12000F03FF8C82000F03CF8DA20F6
:1022C00000F039F8122000F036F8812000F033F8E1
:1022D000CF2000F030F8D92000F02DF8F12000F0E8
:1022E0002AF8DB2000F027F8302000F024F8A420A2
:1022F00000F021F8A62000F01EF88D2000F01BF859
:10230000142000F018F8AF2000F015F8BDE81040D8
:10231000FFF70ABF10B50C4640F0B00000F00BF814
:10232000102040EA141000F006F804F00F00BDE899
:102330001040AFF3008010B50446FFF757FF782038
:10234000FFF716FF0020FFF713FF2046FFF710FFEF
:10235000BDE81040FFF772BF10B50446FFF746FF17
:102360007820FFF705FF4020FFF702FF2046FFF728
:10237000FFFEBDE81040FFF761BF000070B50546E5
:1023800015480C46007808B900F08CFCEFF3118179
:10239000202080F31188104A05EB450002EBC000B5
:1023A000426A056A13461830521C954200D1002239
:1023B0004569022D02D105699542FCD00569954217
:1023C00004D04568EC54C260012000E00020C9B28E
:1023D00081F3118870BD0000044C002010B501F09D
:1023E00033FD114A0021114800F032FF1049114A13
:1023F00008600021104800F02BFF1049104A0860C7
:102400000021104800F024FF0F49104A0860002105
:102410000F4800F01DFF0F490860002001F012FE78
:10242000BDE8104001F030BD44520008A52F00085F
:10243000D4000020D8510008D12F0008B40000209B
:10244000FC510008352C0008CC0000202052000868
:10245000792B0008D000002010B54FF0E020006973
:1024600002F060FC012803D0BDE8104001F0B4BFC9
:1024700010BD000030B593B030216846FDF752FF23
:1024800014210CA8FDF74EFF1C480024016841F000
:1024900080510160006800F0805011901848016878
:1024A00041F4404101600068022500F44040119071
:1024B0000120039010200490009506950820CDE996
:1024C00007406420CDE9090504200B906846FEF71B
:1024D0008DFC08B172B6FEE70F20CDE90C054FF474
:1024E0008050CDE90E4003210CA81094FEF772FB3A
:1024F000002801D072B6FEE713B030BD403802406C
:10250000007000400248016841F4700101607047AA
:1025100088ED00E00148FEF7BDBF0000BC010020CF
:102520000148FEF7B7BF0000AC020020F0B502681A
:102530001F4B204C204D214E4FF0804C984207D02D
:10254000604505D0A04203D0A84201D0B04203D1DB
:1025500022F070074A683A43984210D060450ED086
:10256000A0420CD0A8420AD0B04208D0144CA042DD
:1025700005D0144CA04202D0134CA04203D122F447
:102580004074CA6822434C6922F0800222438C685E
:10259000C4620C688462984201D1096901630168D0
:1025A00041F004010160012141610260F0BD0000C1
:1025B000000001400004004000080040000C004002
:1025C00000400140004401400048014010B501F0C6
:1025D0001F030121046A99408C430462016A9A40F6
:1025E0001143016210BD10B5846842EA032224F44D
:1025F0007F440A432243826010BD826822F0700249
:102600000A4342F0070181607047000030B5036A59
:10261000026A22F0010202624268846924F07305B2
:102620000C682C4323F002058B682B430A4DA8420B
:102630000BD123F00805CB6822F440722B434D697F
:1026400023F0040315438A692A4342608461496880
:102650004163036230BD00000000014030B5026AF2
:10266000036A23F010030362436884690D6824F44D
:10267000E64444EA05248D6822F0200242EA05126D
:102680000B4DA8420ED1CD6822F0800242EA05121D
:102690004D6923F4406343EA85038D6922F04002CB
:1026A00043EA85034360846149688163026230BD07
:1026B0000000014030B5036A026A22F480720262AF
:1026C0004268C46923F4007324F073050C682C433A
:1026D0008D6843EA05230C4DA8420ED1CD6823F442
:1026E000006343EA05234D6922F4405242EA051291
:1026F0008D6923F4806342EA05124260C46149682F
:10270000C163036230BD00000000014030B5046ABF
:10271000026A22F4805202624268C3690D6823F49F
:10272000E64343EA05238D6824F4005444EA053463
:10273000064DA84204D14D6922F4804242EA851236
:102740004260C36149680164046230BD0000014019
:1027500010B5036A046A24F001040462846924F059
:10276000F00444EA021423F00A020A43846102627C
:1027700010BD10B5036A046A24F010040462846971
:1027800023F0A00324F4704444EA023243EA011126
:102790008261016210BD10B5806B0021C185FFF719
:1027A00003F910BD70B5846B2068406994F841103E
:1027B000C0F3C0100025212904D118B1E5842046BA
:1027C00000F08EF82068406994F84210C0F3801041
:1027D000222904D118B1E585204600F05AF8606C32
:1027E00040F0100060642046FFF7DEF870BD10B5C1
:1027F0000146806B096809684FF00002C9052ED4B4
:10280000C28501680C3151E8003F23F4807341E830
:102810000034002CF5D10168143151E8003F23F059
:10282000010341E80034002CF5D10168143151E86E
:10283000003F23F0400341E80034002CF5D1202173
:1028400080F84210016B012909D101680C3151E86F
:10285000003F23F0100341E80034002CF5D142631F
:10286000016B012902D0FFF76DFA10BD818DFFF7D2
:1028700075F810BD10B5806B01214163016B012912
:1028800002D0FFF760FA10BD818D4908FFF766F8A6
:1028900010BD01680C3151E8002F22F4907241E81C
:1028A0000023002BF5D10168143151E8002F22F0EC
:1028B000010241E80023002BF5D1016B012909D168
:1028C00001680C3151E8002F22F0100241E800238A
:1028D000002BF5D1202180F84210002101637047C0
:1028E00001680C3151E8002F22F0C00241E80023BA
:1028F000002BF5D1202180F84110704708B590F8E1
:102900004210222901D0022008BD82684FF4805372
:102910009A4201D1016921B1816A9A421BD04AB120
:102920000AE00268816A5268C2F308020A80816A7A
:10293000891C08E0026972B10268526802F07F02E5
:102940000A70816A491C8162C18D491E0904090C03
:10295000C18503D01BE002685268F1E70168CA68CC
:1029600022F02002CA600168CA6822F48072CA603C
:1029700001684A6922F001024A61202180F8421070
:1029800000214163026B012A03D0FFF7DBF900202D
:1029900008BD016301680C3151E8002F22F01002DC
:1029A00041E80023002BF5D101680A68D20602D560
:1029B0000A6849680091818DFEF7D0FFE7E70000C3
:1029C00070B5044600680169E26821F44051114382
:1029D00001612169A068E269084361691143084304
:1029E0002168CA6849F20C639A430243CA602068AE
:1029F0004169A26921F44071114341613149206864
:102A0000884202D03049884202D1FEF7ADF901E098
:102A1000FEF79AF9E2690023192164253226B2F5FE
:102A2000004F626828D0A0FB0101930F9200FDF7D0
:102A30002FFC0146B0FBF5F06FF01802504301EB9C
:102A4000800006EB0010B0FBF5F000F0F002B1FBE7
:102A5000F5F002EB0012B1FBF5F06FF018035843EC
:102A600001EB800006EB0010B0FBF5F000F00F006A
:102A700021681044886070BDA0FB010192185B4181
:102A8000FDF706FC0146B0FBF5F00201B1FBF5F0E5
:102A90006FF01803584301EB800006EBC000B0FB59
:102AA000F5F000F0F80002EB4002B1FBF5F05843FE
:102AB00001EB800006EBC000B0FBF5F000F0070072
:102AC000D6E70000001001400014014038B58162D3
:102AD00004468285002013466064222284F8422046
:102AE000E56B1F4AEA63E56B1E4A2A64E56B1E4AE2
:102AF000EA64E26B10650A462168E06B091DFDF788
:102B00005FFE30B110206064202084F84200012074
:102B100038BD2068016840680090206948B120688D
:102B20000C3050E8001F41F4807140E80012002A88
:102B3000F5D12068143050E8001F41F0010140E851
:102B40000012002AF5D12068143050E8001F41F02F
:102B5000400140E80012002AF5D1002038BD0000F5
:102B6000EF27000875280008A52700080148FEF790
:102B70001DBF00000402002008B500252B4E2C4C80
:102B80008DF8005060680028FCD0A0680028F9D0BB
:102B90004FF0FF373946012001F0B0F83946606840
:102BA00001F080FE36E06946A06800F094F92069E3
:102BB00010B101282ED128E09DF80010DD2905D0A4
:102BC000E06846F82010401CE06023E0012020610E
:102BD000E7680021B81E05E016F821202378491C7B
:102BE0001A4422708142F7D906EB8700227850F808
:102BF000041C914206D10E4910F80C2D491C0A7094
:102C0000007948702570E56004E09DF80000AA286E
:102C100000D12561A06800F053F90028C3D100233A
:102C20001A461946606801F091FCABE7C84B0020DA
:102C3000B800002000F0A9F90546012001F0E2FBF0
:102C4000144C0F2205F10801C4E901051248FEF7F2
:102C500060FE124F4FF0FF354FF0805600222B469A
:102C60001146104602F0D6F8002302221946A06948
:102C700001F066FF3E60BFF34F8FBFF36F8F2946B1
:102C8000606801F00FFE00231A461946606801F0E3
:102C90005DFCE3E7B80000200402002004ED00E042
:102CA000FEE7000010B5124C03202061606111A006
:102CB000A06104F1A800E0614FF480602062002070
:102CC000A0626062E0620BA1216604F59561616615
:102CD0001021A1662067E066606709A1E01DFDF78D
:102CE0002CFB08A12046FDF728FB2020A07110BD79
:102CF000044C00205465726D696E616C0000000028
:102D00005254540053454747455200000FB4054BF9
:102D100010B503A9044A029800F028F810BC5DF829
:102D200014FB0000C12F0008D80000200907090E7D
:102D3000002804DB00F1E02080F80014704700F068
:102D40000F0000F1E02080F8141D704702E008C871
:102D5000121F08C1002AFAD170477047002001E015
:102D600001C1121F002AFBD1704700002DE9FF4F5F
:102D700089B09B460446002506E025280BD05A461C
:102D80000B999047641C6D1C20780028F5D10DB07C
:102D90002846BDE8F08F0027B8460122474900E0E9
:102DA000074314F8013F203B02FA03F00842F7D131
:102DB00020782E2819D114F8010F47F004072A288B
:102DC0000ED06FF02F022078A0F1300109290CD825
:102DD00008EB880102EB410100EB0108641CF2E7FB
:102DE0000A98641C50F8048B0A9020780028CED0F2
:102DF000642808D0692806D075281ED05A460B9939
:102E000090476D1C58E00A994FF00A0901C90A91D0
:102E1000002802DA40422D2102E0390504D52B2199
:102E20008DF82010012103E0F90704D02021F7E7F5
:102E30008A4608AE0DE00021FAE70A994FF00A0928
:102E400001C90A91F7E74946FDF780FA303106F8E3
:102E5000011D0028F7D1ADEB060000F1200978072D
:102E600001D44FF00108C84502DDA8EB090000E0DD
:102E700000208046002706E008A85A46C05D0B994E
:102E800090476D1C7F1C5745F6DB04E030205A4606
:102E90000B9990476D1CB8F10001A8F10108F5DC11
:102EA00005E016F8010B5A460B9990476D1CB9F1D5
:102EB0000001A9F10109F4DC641C65E7092801009F
:102EC00028B1D0E90010814203D1002070470420CE
:102ED00070470320704700B50B46020011D0FFF782
:102EE000EFFF80B1116802F10800085C18701068EB
:102EF0000F21401CB0FBF1F301FB13001060002018
:102F000000BD042000BD012000BD08B10F2901D97A
:102F1000042070474160002070472DE9F04780464B
:102F200008A81C0090E8200616460F4601D4002D84
:102F300002DA0020BDE8F0871C2000F017F9002815
:102F4000F8D000F10C01C0F8008081E83006C0E93B
:102F50000176EFE72DE9F0471C00DDE90889164608
:102F60000D4607460FD075B1142000F0FFF8002879
:102F700007D0C0E90264C0E90075A0F8108080F8AD
:102F80001290BDE8F0870020FBE710B5182000F094
:102F9000EDF8040004D01821FDF7C4F9204610BD57
:102FA000002010BD054D4FF4005421462846FDF782
:102FB00034FD642001F020F8F7E70000000802402B
:102FC00010B50446C1B20020FFF7D8F9204610BD65
:102FD00008B500208DF80000024601210A2001F00A
:102FE0001CFA124CA06010B911A0FFF78FFE6420EC
:102FF00000F048F88DF80000022802D0032802D023
:103000000FE012A000E016A0FFF780FE002364226C
:103010006946A06801F09AFA012802D014A0FFF7CF
:1030200075FE0A2000F0D8F8E1E70000A8000020B3
:103030006B6579207175657565206372656174656E
:10304000206661696C65640D0A0000006B6579207B
:1030500073686F72742070726573730A00000000E9
:103060006B6579206C6F6E672070726573730A00F0
:103070006B65795F71756575652066756C6C206E22
:103080006F770A002DE9FC41002507468DF80050B6
:103090004FF480611E48FDF7BBFC00B101208DF8A4
:1030A00004001C4C207828B1022601280BD00228ED
:1030B00023D112E09DF80400F8B96068401C6060FC
:1030C0000120207019E09DF8040020B96068401CC0
:1030D0006060267011E025700FE00FA06168FFF7B7
:1030E00015FE9DF804000028606804D0B84208D896
:1030F0008DF800600AE0401C60609DF80000BDE8AB
:10310000FC81032065608DF8000025706560E2E7B2
:1031100000040240A80000206E6F77206B65795F85
:1031200070726573735F74696D65203D2025640D51
:103130000A000000FDF78CFCFFF79CF9FEF774FE17
:10314000FEF74CFEFEF710FFFEF75CFFFEF7CEFF2A
:10315000FEF7A6FFFEF7EEFEFEF7F8FD00F04AF8D8
:10316000FEF752FE00F058F8FEE70000F0B50B3015
:10317000154D20F007010024144A0FE003688B422C
:103180000BD38B4205D95E1A43184768C3E9006721
:1031900000E04368136002C004E0021D10680028CC
:1031A000ECD12046002802D1286808B10020F0BDEB
:1031B000064A07481060074A121A22F00702C0E9BF
:1031C000002401202860D7E7E0000020DC00002078
:1031D000C4500020C054002010B5EFF3058111B198
:1031E0006FF0050403E0002408B100F005FF20465D
:1031F00010BD0000EFF3058010B16FF005007047BF
:103200000448016811B14FF0FF307047012101609F
:10321000002070477800002010B5EFF3058010B152
:103220006FF0050010BD08480168012902D04FF079
:10323000FF3010BD054A002182F8141D02210160F3
:1032400000F0D2FF002010BD780000200BE000E06D
:103250002DE9FF414FEA01034FF00005EFF305812F
:10326000039549BB40B38027182100244AB3166850
:1032700006B1344696691EB13146761E382E02D20A
:103280001679F60703D0002004B0BDE8F081566936
:1032900006B1B708D2F808C0BCF1000F0DD0D56850
:1032A0005C2D18D312693AB136B18DE806103A4652
:1032B000214601F01AFC03900DE0D6685EB9126950
:1032C0004AB903AACDE90012BAB2214601F0E0FBE7
:1032D000012800D003950398D6E742690A44426169
:1032E000C3689A4202DC5B429A4200DA4361826917
:1032F00043698A1A00EE102A426890ED021A5A4376
:103300000368F8EEC00A03FB012200EE102AB8EEB3
:10331000C11A0269B8EEC00A01EE200A00EE902A36
:10332000F8EEE00AF4EEC00AF1EE10FA09D35242C8
:1033300000EE902AF8EEE00AF4EEC00AF1EE10FA80
:1033400003DD00EE102AB8EEC00A00EE901AF8EE87
:10335000E00ABDEEC00AFDEEE00AC0ED060A10EE7E
:10336000100A70472DE9F041134C0F460546E668F8
:103370002068001D00F0F6FC681C07D137B12168F9
:10338000BDE8F0410D48091D00F052BD20683544EC
:10339000B5424560216805D2A06BBDE8F041091D2A
:1033A00000F02EBD606B091D00F02AFDA06A854269
:1033B00000D2A562BDE8F08128000020E4070020CB
:1033C0002DE9F041054600F03FFD2D4CA068401C62
:1033D000A06020682B4F10B1606930B32BE02560EE
:1033E000A068012827D1002606EB860007EB8000A5
:1033F00000F0F8FC761C382EF6D3234800F0F2FCDF
:103400002148143000F0EEFC1F48283000F0EAFCA0
:103410001D483C3000F0E6FC1B48503000F0E2FC58
:10342000194860631430A06305E02068E96AC06A47
:10343000884200D82560606A401C60626864E86A5F
:103440002169884200D9206100EB800007EB8000F1
:10345000291D00F0EDFC00F017FD606900280CD07C
:103460002068E96AC06A884207D208494FF0805054
:103470000860BFF34F8FBFF36F8FBDE8F08100008E
:1034800028000020340300209407002004ED00E011
:1034900038B500F0D9FC104C2068C8B90F4800F0CE
:1034A000A1FC0E48143000F09DFC0C48E060143084
:1034B00020610A4B0020F03B009003F150021021E4
:1034C0000A2000F0CBFF206010B105A100F05EFDE6
:1034D000BDE8384000F0D8BC64000020E8080020B7
:1034E000546D72510000000030B4026C0B46002A8B
:1034F0000BD0C1681144C1608468A14201D3016846
:10350000C16030BC1846FCF7F4BE30BC70472DE9F2
:10351000F041856B174604460026026C82B1C7B1A4
:10352000E068FCF7E6FEE168206C091AE1602268B9
:10353000914202D2A168081AE060022F16D017E06B
:103540002068A8B9A06801F0ABFC06460020A06086
:103550000EE06068FCF7CDFE216C60680844606096
:10356000A168884204D32068606001E005B16D1E47
:103570006D1CA5633046BDE8F08110B5044690F897
:10358000590058B101280CD002280FD0502080F3E8
:103590001188BFF34F8FBFF36F8FFEE7206B00F0F2
:1035A00087FC2046BDE8104000F082BC10BD000042
:1035B00010484FF47051420706D0C01D0D4920F04D
:1035C0000700411AC1F570510B4A00230144C2E9BA
:1035D00000030839183A21F0070111604B600B60B5
:1035E0000B1AC0E9001393604FF000405360506124
:1035F00070470000C80F002094000020144E154CA6
:10360000A6F29C474FF08058DFF84C9012E000BFC4
:1036100000F01AFCF068C568281D00F0A3FBA06844
:10362000401EA0606068401E606000F02DFC2846CF
:10363000FFF7A3FF60680028EAD138680128F9D9AC
:10364000C9F80080BFF34F8FBFF36F8FF2E7000020
:10365000D00700202800002004ED00E0002807D05B
:103660000021816001600B460A46C16000F06EBF18
:103670007047000070B51D46049C51B1C4F800208D
:10368000C4E90F010121204600F01CFF84F84C50D2
:1036900070BD2460F4E700002DE9F05F8846DDE9A5
:1036A0000B941546834691009A460A9EA522206BEC
:1036B000FCF731FE6FF00301206B01EB850108443C
:1036C00020F00707780707D0502080F31188BFF358
:1036D0004F8FBFF36F8FFEE70025B8F1000F0FD0BB
:1036E0005FF00000221818F8001082F8341018F863
:1036F000001011B1401C1028F4D384F8435001E0AD
:1037000084F83450382E00D33726E662C4E91365B6
:10371000201D00F072FB04F1180000F06EFB246124
:10372000C6F138006462A061656584F8585052465D
:103730005946384600F066FA2060B9F1000F01D012
:10374000C9F80040BDE8F09F30B5114900E01146CE
:103750000A688242FBD34B685C18844203D14068FC
:1037600018444860084643681C18944209D1084C24
:10377000183C2468A24209D052681A4442600A6880
:1037800012680260814200D0086030BD0460F9E731
:103790009400002070B5002441600B4D00619142FF
:1037A00006D8D11A8269914206D2011D286907E024
:1037B0009A4203D2994201D3012403E0011DE86833
:1037C00000F01EFB204670BD6400002010B50446CA
:1037D00000F03AFBA06B28B15FF0000400F054FB4E
:1037E000204610BD0124F9E730B589B03C4D6EE0AC
:1037F0000498002806DADDE90601059A9047049846
:10380000002864DB069C606910B1201D00F0AAFA54
:1038100003A800F0D7F8024604980A2857D2DFE838
:1038200000F00505052D334A05052D3394F82800D1
:1038300040F0010084F828000599A069059B014427
:103840002046FFF7A7FF68B3216A2046884794F80F
:10385000280040073BD5002000900598A16900236F
:1038600042181946204601F061FCD8B9502080F377
:103870001188BFF34F8FBFF36F8FFEE714F8280F47
:1038800020F00100207022E094F8280040F00100B0
:1038900084F828000598A06128B1811813462046B5
:1038A000FFF778FF13E0502080F31188BFF34F8FAC
:1038B000BFF36F8FFEE794F82800810703D42046FA
:1038C00000F0F6FA03E020F0010084F8280000225E
:1038D00004A9286800F04AFF002889D109B030BD4A
:1038E000640000202DE9FC410F46054600F0C0FCB5
:1038F00001A800F067F80446019818B101F084FBB4
:10390000BDE8FC81254EAFB130690068D0B3002717
:10391000291B3A46306800F04DFB01F075FB00288A
:10392000EED11F494FF080500860BFF34F8FBFF3B7
:103930006F8FE5E7A542EBD801F066FBF0682746FC
:10394000C068C468201D00F00DFA94F828004107F3
:1039500019D5A0692B4641193A462046FFF71AFFB0
:10396000A8B100200346014600902A46204601F0F7
:10397000DDFB60B9502080F31188BFF34F8FBFF398
:103980006F8FFEE707E020F0010084F82800216A2D
:1039900020468847B4E70127BAE70000640000200A
:1039A00004ED00E00648416B096829B1416BC96824
:1039B000C9684968816270474FF0FF31FAE700003B
:1039C0002800002070B5054601F0BAF9064E0446FD
:1039D000B068844203D200F009F8012000E0002022
:1039E00028602046B46070BD64000020F8B5194D11
:1039F00020E0C068C4680668201D00F0B3F9216AA1
:103A00002046884794F82800400713D5A069304421
:103A1000B04206D924616060211DE86800F0F0F929
:103A200008E000200346014600903246204601F09F
:103A30007DFB38B1E86801680029DAD12969C5E958
:103A40000310F8BD502080F31188BFF34F8FBFF3F0
:103A50006F8FFEE76400002008484068401C4FF06C
:103A6000500080F3118804D0BFF34F8FBFF36F8FE6
:103A7000FEE7BFF34F8FBFF36F8FFEE79C00002080
:103A8000074CE068016841B1C0680021D0F800002F
:103A9000FFF728FFFFF7A8FEF3E701210020F7E773
:103AA000640000202DE9F041044600F0CDF994F9BE
:103AB000455004F1240609E0606A48B1304601F03F
:103AC0006BFA08B100F00EFB6D1E6DB2002DF3DC39
:103AD0004FF0FF3684F8456000F0D6F900F0B4F9F5
:103AE00094F9445004F1100709E0206948B13846C0
:103AF00001F052FA08B100F0F5FA6D1E6DB2002D1A
:103B0000F3DC84F84460BDE8F04100F0BDB900008A
:103B10002DE9F0410546002700F0AAFB324E30683F
:103B200008B9FFF745FD706905424ED1C5B30835A8
:103B300068070ED005F00700C0F1080005446807CB
:103B400007D0502080F31188BFF34F8FBFF36F8FE2
:103B5000FEE72DB37068854237D8234818300146F8
:103B60000C6801E020460C466168A94202D2216837
:103B70000029F7D131688C4227D00768216801609D
:103B800060680837411B10290FD96019420708D017
:103B9000502080F31188BFF34F8FBFF36F8FFEE784
:103BA00013E041606560FFF7CFFD61687068401AFF
:103BB0007060B268904200D2B0607069014300202A
:103BC000C4E90001F068401CF06001F01DFA7807BC
:103BD00007D0502080F31188BFF34F8FBFF36F8F52
:103BE000FEE73846BDE8F0817C0000200449086803
:103BF00018B10868026D521C026508687047000021
:103C00002800002010B5031F4FF080741C601B1F9C
:103C100021F001011960191F044B0B6014390A606F
:103C2000091F6FF0020244380A6010BD593A0008BB
:103C3000002800D00160704770B5040052D02AA05F
:103C40002168FFF763F820680028A07C15DC18B90C
:103C5000218A0122E06802E0218A0022E068FCF764
:103C6000E4FE2568002D00DA6D42D4E901010A2D39
:103C700006DABDE87040FDF7D3BD0028ECD0E7E7D9
:103C8000FDF7CEFD42F21070B0FBF5F263684FF025
:103C9000FF3101EB42021B68DA62B0FBF5F201EB87
:103CA00042016268D160A16871B1042912D008296B
:103CB000B0FBF5F06168096812D00864D4E901012D
:103CC000BDE87040FDF754BDB0FBF5F061680968D0
:103CD0004863F3E7B0FBF5F0616809688863EDE7D6
:103CE000C863EBE770BD00006E6F77207370656589
:103CF00064203D205B25645D0A00000070B50C4621
:103D0000064600F0A1F8154D2868406D80B9296875
:103D1000012081F858005CB101212046FFF722FB09
:103D20000F494FF080500860BFF34F8FBFF36F8F84
:103D300000F0AAF800F088F82868446D002034B13B
:103D400016B12968486502E02A68611E5165296834
:103D500081F8580000F098F8204670BD2800002037
:103D600004ED00E0D0E9013201699A60D0E9012355
:103D70005A604A68824201D182684A600022026128
:103D80000868401E0860086870470000034B036025
:103D900003F15C000860802010607047100900206B
:103DA000044B036003F15C0008604FF48070106006
:103DB000704700006C0B002070B5094C0646206867
:103DC000406A85B22046FDF77BFA2068416A491BAC
:103DD000B142FBD3BDE870400148FDF7D9BA0000FD
:103DE0007401002000F108014FF0FF32C0E9011218
:103DF000C1600161002101607047002101617047CD
:103E000030B50B685A1C02D000F1080202E00269CA
:103E100004E02246546825689D42FAD953684B60F5
:103E200099608A60516008610168491C016030BD79
:103E300042684A6093688B6093685960916008613A
:103E40000168491C01607047502080F31188BFF35E
:103E50004F8FBFF36F8F0A494868401C48600128A4
:103E60000CD10848006810F0FF0F07D0502080F3F5
:103E70001188BFF34F8FBFF36F8FFEE770470000CD
:103E80009C00002004ED00E00849486828B1401E6D
:103E9000486001D180F311887047502080F3118869
:103EA000BFF34F8FBFF36F8FFEE700009C00002031
:103EB00070B500282AD0164DA0F108046068696921
:103EC000084207D1502080F31188BFF34F8FBFF312
:103ED0006F8FFEE722683AB1502080F31188BFF35C
:103EE0004F8FBFF36F8FFEE78843606000F0C0F92B
:103EF00060686968084468602046FFF725FC286907
:103F0000401C2861BDE8704001F07EB870BD000023
:103F10007C0000204FF0E020002101618161054913
:103F20004FF47A720968B1FBF2F1491E4161072131
:103F3000016170472400002010B5FCF793F9114986
:103F400010280ED300F1E02090F8F0030A78904298
:103F500007D2502080F31188BFF34F8FBFF36F8FCC
:103F6000FEE709480068896800F4E060884207D9E4
:103F7000502080F31188BFF34F8FBFF36F8FFEE7A0
:103F800010BD00009C0000200CED00E010B5084BB7
:103F9000002200BF53F832401CB1521C082AF9D34A
:103FA00010BD43F8321003EBC201486010BD0000A1
:103FB000F402002070B515460E460446FFF744FF94
:103FC00094F944100020491C01D184F8440094F96C
:103FD0004510491C01D184F84500FFF755FFA06B3F
:103FE00028B92A46314604F1240000F099F8204609
:103FF000BDE87040FFF756BD10B5020014D00F4861
:10400000006B38B1502080F31188BFF34F8FBFF39E
:104010006F8FFEE700F02CF900211046FFF7A2F9A0
:1040200000F0F2FF002807D105494FF080500860EA
:10403000BFF34F8FBFF36F8F10BD0000280000202B
:1040400004ED00E070B50546FFF7FEFE1E4C05B915
:104050002568281DFFF786FEA86A18B105F118002B
:10406000FFF780FE606A401C60622068854207D1CD
:10407000291D1648FFF7DCFE6068401C606007E001
:10408000A068401EA0602846FFF777FAFFF78AFC79
:10409000FFF7FAFE6069002814D02068854211D12C
:1040A000206B38B1502080F31188BFF34F8FBFF3DE
:1040B0006F8FFEE706494FF080500860BFF34F8FC7
:1040C000BFF36F8F70BD000028000020D0070020D4
:1040D00004ED00E002490A6A0260C9684160704765
:1040E0002800002001490120C861704728000020F5
:1040F00010B50C4650B1094909681831FFF780FE28
:104100002046BDE810400121FFF72CB9502080F374
:104110001188BFF34F8FBFF36F8FFEE72800002099
:1041200070B514460D4668B10A4909681831FFF7A1
:104130007FFE0CB14FF0FF3521462846BDE87040A8
:10414000FFF710B9502080F31188BFF34F8FBFF3F2
:104150006F8FFEE72800002070B504003ED0226D6E
:10416000A2B1E06C884200D30146E06A884235D0B3
:10417000012A33D11A4D2A6894420FD1502080F37E
:104180001188BFF34F8FBFF36F8FFEE7502080F38E
:104190001188BFF34F8FBFF36F8FFEE7E162A26913
:1041A000002A02DBC1F13801A1610E4E00EB800054
:1041B000616906EB8000814210D1201DFFF7D2FD1E
:1041C000E06A2969884200D9286100EB800006EB8B
:1041D0008000211DBDE87040FFF72ABE70BD0000C1
:1041E000280000203403002030B587B00024039459
:1041F00005AA04A903A80494FFF7C8FDDDE903019B
:104200000094CDE90110002315A11748059A00F08C
:104210006CFC164D0028E8621FD000F057FF012803
:1042200009D0401C19D1502080F31188BFF34F8F63
:10423000BFF36F8FFEE7502080F31188BFF34F8FDD
:10424000BFF36F8F4FF0FF30A86201206861EC6010
:1042500007B0BDE8304000F045B807B030BD000001
:1042600049444C4500000000FD35000828000020AE
:104270000248016B491C01637047000028000020C0
:10428000164810B5016B11B10121C16110BD0021AB
:10429000C1610169124A01E0B9B1491E01EB810314
:1042A00052F82330002BF7D001EB810302EB83029D
:1042B00002F1080453685B685360A34201D15B6854
:1042C0005360DA680260016110BD502080F31188EC
:1042D000BFF34F8FBFF36F8FFEE700002800002071
:1042E000340300201CB537480168374A914207D192
:1042F000502080F31188BFF34F8FBFF36F8FFEE71D
:1043000000683149491E884207D1502080F3118846
:10431000BFF34F8FBFF36F8FFEE72C4908780190F2
:10432000FF20087008788DF800009DF800009DF8C7
:10433000002000F0F000904207D0502080F3118858
:10434000BFF34F8FBFF36F8FFEE79DF80000204C47
:1043500000F0500020700720A06005E09DF80020CC
:1043600052008DF80020401E9DF800201206F5D462
:10437000A060032807D0502080F31188BFF34F8F2F
:10438000BFF36F8FFEE74FF44070A0600198087094
:104390000C482030016841F470010160016841F06F
:1043A00070410160FFF7B6FD00206060FBF722FF5F
:1043B0000848016841F040410160FBF707FF002019
:1043C0001CBD000000ED00E071C20F4100E400E000
:1043D0009C00002034EF00E010B5502080F31188DD
:1043E000BFF34F8FBFF36F8F00F0B0FC18B10449DB
:1043F0004FF080500860002080F3118810BD00004D
:1044000004ED00E010B502460021012000F005F89F
:104410000446FFF723F9204610BDF8B517460E46AF
:10442000050013D005FB06F05030FFF771FB0400C8
:104430000AD0002084F8460004F150023B46314681
:1044400028460094FFF716F92046F8BD502080F367
:104450001188BFF34F8FBFF36F8FFEE738B5049D10
:1044600018B153B1CAB181B120E0502080F3118856
:10447000BFF34F8FBFF36F8FFEE7502080F311889B
:10448000BFF34F8FBFF36F8FFEE7502080F311888B
:10449000BFF34F8FBFF36F8FFEE739B1502080F32A
:1044A0001188BFF34F8FBFF36F8FFEE750241C4678
:1044B000012384F846302B460094FFF7DBF82046B2
:1044C00038BD000070B50D46040025D0FFF7BCFCD8
:1044D000D4E90F20216802FB0011A1600021A16333
:1044E000216861600A46D4E90F01401E00FB0121EA
:1044F000E16021464FF0FF3001F8440F487004F1AD
:1045000010008DB1FFF76EFC04F12400FFF76AFC88
:10451000FFF7BAFC012070BD502080F31188BFF373
:104520004F8FBFF36F8FFEE721690029F0D000F0B5
:1045300033FD0028ECD004494FF080500860BFF3F1
:104540004F8FBFF36F8FE3E704ED00E02DE9FF47E6
:1045500082B01D468A464FF00008040003D0BAF12D
:10456000000F08D011E0502080F31188BFF34F8F67
:10457000BFF36F8FFEE7206C38B1502080F31188B5
:10458000BFF34F8FBFF36F8FFEE7022D0AD1E06BB1
:10459000012807D0502080F31188BFF34F8FBFF35D
:1045A0006F8FFEE700F0BEFB3F4F4FF000094FF06A
:1045B000805648B9049838B1502080F31188BFF371
:1045C0004F8FBFF36F8FFEE7FFF73EFCA06BE16BF1
:1045D000884207D3022D05D00498D0B1B8F1000F5E
:1045E0001AD01EE02A4651462046FEF790FF616A27
:1045F00019B104F1240000F0CFFC20B13E60BFF3FC
:104600004F8FBFF36F8FFFF73FFC012006B0BDE86F
:10461000F087FFF739FC22E06846FFF75BFD4FF0BB
:104620000108FFF731FCFFF723FEFFF70DFC94F9BB
:104630004400401C01D184F8449094F94500401C8A
:1046400001D184F84590FFF71FFC04A9684600F0EB
:10465000E5F930B12046FFF725FA00F0D5FC00203F
:10466000D4E7FFF7F1FBA06BE16B884213D1FFF7B2
:104670000BFC04F110000499FFF73AFD2046FFF708
:1046800011FA00F0C1FC00289ED13E60BFF34F8FAD
:10469000BFF36F8F98E7FFF7F7FB2046FFF702FAAB
:1046A00000F0B2FC90E7000004ED00E02DE9F047D7
:1046B0001F4690468946040003D0B9F1000F08D088
:1046C00011E0502080F31188BFF34F8FBFF36F8F3D
:1046D000FEE7206C38B1502080F31188BFF34F8F74
:1046E000BFF36F8FFEE7022F0AD1E06B012807D0DE
:1046F000502080F31188BFF34F8FBFF36F8FFEE719
:10470000FFF71AFC5020EFF3118680F31188BFF3F6
:104710004F8FBFF36F8FA06BE16B884206D3022FE0
:1047200004D0002086F31188BDE8F08794F9455045
:10473000A06B3A4649462046FEF7E9FE681C04D0C5
:104740006D1C84F845500120ECE7606A0028FAD01F
:1047500004F1240000F020FC0028F4D0B8F1000F90
:10476000F1D00121C8F80010EDE700002DE9F7476E
:10477000002683B08A46040003D0BAF1000F08D0A7
:1047800011E0502080F31188BFF34F8FBFF36F8F7C
:10479000FEE7206C38B1502080F31188BFF34F8FB3
:1047A000BFF36F8FFEE700F0BDFADFF8F4804FF043
:1047B00000094FF0805748B9059838B1502080F370
:1047C0001188BFF34F8FBFF36F8FFEE7FFF73CFBFE
:1047D000A56BC5B151462046FEF786FE6D1EA5634A
:1047E000206950B104F1100000F0D6FB28B1C8F8E0
:1047F0000070BFF34F8FBFF36F8FFFF745FB0120B2
:1048000006B0BDE8F087059808B11EB106E0FFF7D5
:104810003BFB27E06846FFF75DFC0126FFF734FB12
:10482000FFF726FDFFF710FB94F94400401C01D16F
:1048300084F8449094F94500401C01D184F84590D7
:10484000FFF722FB05A9684600F0E8F8002820469B
:104850000AD0FFF727F900F0D7FB2046FEF7B6FF96
:104860000028B3D00020CBE7FEF7B0FF90B104F1F1
:1048700024000599FFF73CFC2046FFF713F900F0F0
:10488000C3FB0028A2D1C8F80070BFF34F8FBFF35D
:104890006F8F9BE72046FFF705F900F0B5FB95E722
:1048A00004ED00E02DE9F343002683B00400354613
:1048B00009D0206C78B1502080F31188BFF34F8F5E
:1048C000BFF36F8FFEE7502080F31188BFF34F8F47
:1048D000BFF36F8FFEE700F025FADFF83C814FF061
:1048E00000094FF0805748B9049838B1502080F340
:1048F0001188BFF34F8FBFF36F8FFEE7FFF7A4FA66
:10490000A06BC8B1401EA063206810B9FFF76EF914
:10491000A060206950B104F1100000F03DFB28B107
:10492000C8F80070BFF34F8FBFF36F8FFFF7ACFA7B
:10493000012005B0BDE8F083049808B166B10FE02E
:104940003DB1502080F31188BFF34F8FBFF36F8FBD
:10495000FEE7FFF799FA5DE06846FFF7BBFB01262B
:10496000FFF792FAFFF784FCFFF76EFA94F9440020
:10497000401C01D184F8449094F94500401C01D1B9
:1049800084F84590FFF780FA04A9684600F046F8DD
:104990000028204612D0FFF785F800F035FB2046AE
:1049A000FEF714FF0028A9D09DB3FFF74DFA606A07
:1049B00050B3206B0068C0F1380126E0FEF706FF17
:1049C000E0B1206838B9FFF73FFAA06800F0A8FA14
:1049D0000546FFF759FA04F124000499FFF788FB14
:1049E0002046FFF75FF800F00FFB002886D1C8F8DB
:1049F0000070BFF34F8FBFF36F8F7FE72046FFF745
:104A000051F800F001FB79E70021A068FFF7A4FB53
:104A10009FE7FFE700208CE704ED00E02DE9F0417F
:104A20000C46050011D0C4B1FFF70EFA174BDA6837
:104A30006E682068911B471C17D02F681B6A9F4225
:104A400019D0964217D8012410E0502080F3118825
:104A5000BFF34F8FBFF36F8FFEE7502080F31188B5
:104A6000BFF34F8FBFF36F8FFEE70024FFF70CFA01
:104A70002046BDE8F081884205D9401A20602846CA
:104A8000FFF728FBF1E700202060DCE7280000208A
:104A90002DE9FF5F8346DDE90E87994616468A4673
:104AA0009000FFF735F805001CD05C20FFF730F8C8
:104AB000040014D00020256384F85900CDE9024099
:104AC000CDE900874B46324651465846FEF7E4FD95
:104AD0002046FEF775FC012004B0BDE8F09F284693
:104AE000FFF7E6F94FF0FF30F6E7F0B585B0DDE906
:104AF0000B640A9DA6B1DCB15C27009726630226F1
:104B000084F85960002604AFCDE90246CDE900578C
:104B1000FEF7C2FD2046FEF753FC049805B0F0BD39
:104B2000502080F31188BFF34F8FBFF36F8FFEE7E4
:104B3000502080F31188BFF34F8FBFF36F8FFEE7D4
:104B40002DE9F0411F4690460D46012690B10446DE
:104B5000FFF77AF90FB1606D386094F858000221C0
:104B600084F85810B8F1050F19D2DFE808F0230BCC
:104B70000E141200502080F31188BFF34F8FBFF343
:104B80006F8FFEE7616D294301E0616D491C61652E
:104B900010E0022801D065650CE0002634E0616D6C
:104BA000491C07D0502080F31188BFF34F8FBFF30B
:104BB0006F8FFEE7012827D1201DFFF7D3F8154D91
:104BC000E06A2969884200D92861134900EB800016
:104BD00001EB8000211DFFF72BF9A06A38B15020AE
:104BE00080F31188BFF34F8FBFF36F8FFEE7E06A4A
:104BF0002968C96A884207D908494FF0805008607F
:104C0000BFF34F8FBFF36F8FFFF73EF93046BDE81C
:104C1000F0810000280000203403002004ED00E0B3
:104C20002DE9F0471F46DDF8209092460D4604001E
:104C30004FF001081AD0FFF77FF95020EFF31186EB
:104C400080F31188BFF34F8FBFF36F8F0FB1606D8B
:104C5000386094F85800022184F85810BAF1050F12
:104C60001AD2DFE80AF0240B0E141200502080F351
:104C70001188BFF34F8FBFF36F8FFEE7616D29433C
:104C800001E0616D491C616511E0022801D0656594
:104C90000DE04FF0000839E0616D491C07D050204D
:104CA00080F31188BFF34F8FBFF36F8FFEE70128AA
:104CB0002CD1A06A38B1502080F31188BFF34F8FF8
:104CC000BFF36F8FFEE7144D286B18B104F1180184
:104CD00012480DE0201DFFF745F8E06A2969884277
:104CE00000D928610E4900EB800001EB8000211DF6
:104CF000FFF79EF8E06A2968C96A884206D9012050
:104D0000B9F1000F01D0C9F80000E86186F31188FD
:104D10004046BDE8F087000028000020BC070020C6
:104D2000340300200548416919B1006B18B1002017
:104D300070470120704702207047000028000020C3
:104D40000148C06870470000280000202DE9F041AC
:104D50002E4C0027206B28B1A069401CA06138466A
:104D6000BDE8F081E668761CE66013D1606B0068F0
:104D700038B1502080F31188BFF34F8FBFF36F8F8E
:104D8000FEE7606BA16B6163A063206A401C206238
:104D9000FEF708FEA06ADFF87880864209D3606BD0
:104DA0000068A0B1606BC068C5686868864211D2AF
:104DB000A0622068C06A00EB800158F82100012839
:104DC00000D90127E0690028C9D00127C7E74FF0C3
:104DD000FF30EDE7281DFEF7C5FFA86A18B105F101
:104DE0001800FEF7BFFFE86A2169884200D92061F8
:104DF00000EB800108EB8100291DFFF719F8E86A34
:104E00002168C96A8842CAD30127C8E72800002060
:104E1000340300202DE9F0411E461546884607461A
:104E2000FFF712F81C4C206890F85800022814D0A4
:104E30002068416DB94341652168012081F858001F
:104E40005EB101213046FEF78DFA14494FF08050D3
:104E50000860BFF34F8FBFF36F8FFFF715F8FEF7B2
:104E6000F3FF15B12068406D2860206890F8580065
:104E7000022801D0002505E02068416D21EA0801E3
:104E8000416501252168002081F85800FEF7FCFFEC
:104E90002846BDE8F08100002800002004ED00E075
:104EA00070B504004FF0000133D01B4D28688442D8
:104EB00007D0502080F31188BFF34F8FBFF36F8F5F
:104EC000FEE7206D38B1401E2065E36CE26A9A422D
:104ED0001FD040B11DE0502080F31188BFF34F8FE9
:104EE000BFF36F8FFEE7201DFEF73CFFE06CE06232
:104EF000C0F13800A061E06A2969884200D92861C0
:104F0000064900EB800001EB8000211DFEF790FFB9
:104F10000121084670BD0000280000203403002055
:104F200070B504004FF000002BD0194DE16A2A68DB
:104F3000D26A914226D2A069002804DB2868C06AA0
:104F4000C0F13800A061134E01EB8101606906EBEE
:104F50008101884211D1201DFEF704FF2868C06A34
:104F6000E0622969884200D9286100EB800006EBE5
:104F70008000211DFEF75CFF02E02868C06AE06245
:104F8000012070BDE16C2A68D26A9142F8D370BDED
:104F9000280000203403002070B5C068C46854B1F4
:104FA00004F118000646FEF7DDFE144D286B50B1E3
:104FB0003146134815E0502080F31188BFF34F8F1E
:104FC000BFF36F8FFEE7201DFEF7CCFEE06A296974
:104FD000884200D928610B4900EB800001EB80007A
:104FE000211DFEF725FFE06A2968C96A884202D9B7
:104FF0000120E86170BD002070BD00002800002085
:10500000BC070020340300202DE9F0472C4D00247C
:105010002746286B38B1FEF717FF286B401E286320
:10502000286B40B146E0502080F31188BFF34F8FCA
:10503000BFF36F8FFEE7A968224E0120D1B3A6F51A
:10504000916980463068E0B1F068C46804F11800E6
:10505000FEF788FE201DFEF785FEE06A296988427A
:1050600000D9286100EB800109EB8100211DFEF7CA
:10507000DFFEE06A2968C96A8842E3D3C5F81C806C
:10508000E0E70CB1FEF78EFCAC694CB14FEA0806C4
:10509000FFF75CFE00B1EE61641EF9D10020A8614B
:1050A000E86938B10849012738070860BFF34F8F16
:1050B000BFF36F8FFEF7E8FE3846BDE8F0870000CB
:1050C00028000020BC07002004ED00E010B586B0E9
:1050D000FEF7DEF9114C2068B8B10020039004906F
:1050E00005AA04A903A8FEF75BFEDDE9032102205F
:1050F0008DE8070000230AA10B48059AFFF7F5FC8D
:10510000606010B106B0012010BD502080F31188FE
:10511000BFF34F8FBFF36F8FFEE7000064000020E6
:10512000546D722053766300813A00082DE9FF41E7
:105130001E46134602000A9D4FF0000016D0144C84
:105140002768002F0FD0CDE900130292062917DA45
:10515000FFF7E8FD02284FF000030FD00022694658
:105160002068FFF7F3F904B0BDE8F081502080F328
:105170001188BFF34F8FBFF36F8FFEE72A46EEE72C
:105180000023324669463846FFF790FAEBE7000005
:1051900064000020685200080000000000000000C9
:1051A00000000000000000000002000018000000E5
:1051B0000000000000000000000610160006101697
:1051C00000000000000000000102030406070809B7
:1051D00000000000010203047452000800000000F7
:1051E00000000000000000000000000000020000BD
:1051F00010000000000000000000000084520008C1
:10520000000000000000000000000000000000009E
:105210000008000030000000000000000000000056
:10522000985200080000000000000000000000008C
:10523000000000000008000018000000000000004E
:1052400000000000AC520008000000000000000058
:105250000000000000000000000400001800000032
:10526000000000000000000073746172745F5461FC
:10527000736B00004B65795F526561645F546173C5
:105280006B000000556172745F70726F64756365C6
:105290005F5461736B000000556172745F636F6EE1
:1052A00073756D655F5461736B00000044697370C2
:1052B0006C61795F5461736B00000000DC52000880
:1052C00000000020E40000004C2D0008C05300083E
:1052D000E4000020DC5B00005C2D00080000000002
:1052E00000000000000000000000000000000000BE
:1052F000000000000100000010000000000000009D
:105300000024F40000000000000000000000000085
:10531000000000000000000000000000000000008D
:10532000000000000000000000000000000000007D
:10533000000000000000000000000000000000006D
:10534000000000000000000000000000000000005D
:10535000000000000000000000000000000000004D
:10536000000000000000000000000000000000003D
:10537000000000000000000000000000AAAAAAAA85
:10538000000000000000000000000000000000001D
:105390000000000000FFFF0000000000000000000F
:1053A00000000000010000000000000000000000FC
:1053B00000000000000000000000000000000000ED
:040000050800019955
:00000001FF
