:020000040800F2
:10000000905300206D020008551D00088919000852
:10001000511D0008DD030008212700080000000032
:10002000000000000000000000000000AD0100081A
:10003000E103000800000000090200084521000853
:10004000870200088702000887020008870200086C
:10005000870200088702000887020008870200085C
:10006000870200088702000887020008870200084C
:10007000870200088702000887020008870200083C
:1000800087020008870200088702000800000000BD
:1000900000000000000000000000000087020008CF
:1000A000870200088702000887020008870200080C
:1000B000870200082522000887020008870200083E
:1000C00087020008870200088702000887020008EC
:1000D000870200088702000887020008000000006D
:1000E000870200088702000887020008000000005D
:1000F000000000000000000000000000870200086F
:10010000000000008702000887020008870200083C
:1001100000000000000000000000000000000000DF
:10012000870200088702000887020008870200088B
:10013000870200080000000000000000000000002E
:10014000000000000000000000000000870200081E
:10015000870200088702000887020008870200085B
:10016000870200088702000800000000000000006D
:10017000000000000000000000000000000000007F
:1001800000000000870200080000000000000000DE
:100190008702000887020008DFF80CD000F00CF995
:1001A00000480047B92B0008905300202C4B1968D9
:1001B0000868B0E8F04F80F30988BFF36F8F4FF005
:1001C000000080F3118870470000000008480068B4
:1001D000006880F308884FF0000080F3148862B64E
:1001E00061B6BFF34F8FBFF36F8F00DF00BF00BF5B
:1001F00008ED00E0DFF80C00016841F470010160D7
:10020000704700BF88ED00E0EFF30980BFF36F8F08
:10021000134B1A681EF0100F08BF20ED108A20E95A
:10022000F04F106009B44FF0500080F31188BFF315
:100230004F8FBFF36F8F03F055FB4FF0000080F33B
:10024000118809BC19680868B0E8F04F1EF0100F5B
:1002500008BFB0EC108A80F30988BFF36F8F704736
:100260001C000020EFF3058070470000064880471F
:1002700006480047FEE7FEE7FEE7FEE7FEE7FEE78B
:10028000FEE7FEE7FEE7FEE71122000899010008FD
:100290002DE9F05F0546002092469B4688460646BB
:1002A000814640241BE0284641464746224600F04E
:1002B00072F853465A46C01A914110D31146184657
:1002C000224600F059F82D1A67EB01084F462246E6
:1002D0000120002100F050F817EB00094E41201ECC
:1002E000A4F10104DFDC484631462A464346BDE816
:1002F000F09F40EA01039B0703D009E008C9121FE1
:1003000008C0042AFAD203E011F8013B00F8013BCF
:10031000521EF9D27047D2B201E000F8012B491EFB
:10032000FBD270470022F6E710B513460A46044692
:100330001946FFF7F0FF204610BD034611F8012BC8
:1003400000F8012B002AF9D11846704730B50B464A
:10035000014600202022012409E021FA02F59D42F5
:1003600005D303FA02F5491B04FA02F52844151EC9
:10037000A2F10102F1DC30BD202A04DB203A00FAB0
:1003800002F1002070479140C2F1200320FA03F3EC
:10039000194390407047202A04DB203A21FA02F0EA
:1003A0000021704721FA02F3D040C2F120029140AF
:1003B0000843194670470000064C074D06E0E06808
:1003C00040F0010394E8070098471034AC42F6D39C
:1003D000FFF7E6FE6C4800088C48000800BFFEE707
:1003E000704772B600BFFEE7F8B502460B4600251F
:1003F000002400200021C7E0012606FA01F51E684E
:1004000006EA0504AC4274D11E7906F00306012EFB
:1004100004D01E7906F00306022E13D190684F0017
:100420000326BE40B0434F00DE68BE4030439060BC
:10043000506801268E40B0431E79C6F300168E40E8
:10044000304350601E7906F00306032E09D0D068B1
:100450004F000326BE40B0434F009E68BE4030436D
:10046000D0601E7906F00306022E13D1CF0802F1E8
:10047000200656F827004E07F70E0F26BE40B04361
:100480004F07FF0E1E69BE403043CF0802F1200621
:1004900046F8270010684F000326BE40B0431E797F
:1004A00006F003064F00BE40304310605E6806F45D
:1004B0004036002E67D000BF00260096344E3668C6
:1004C00046F48046324F3E603E46366806F480462B
:1004D000009600BF00BF2F4E8F0856F827008E07EA
:1004E000370F0F26BE40B0432B4EB24202D100263A
:1004F00015E048E0294EB24201D101260FE0284E16
:10050000B24201D102260AE0264EB24201D10326B0
:1005100005E0254EB24201D1042600E007268F07F0
:100520003F0FBE4030431B4E8F0846F827001F4E3A
:100530003068A0435E6806F4801606B120431B4E67
:100540003060361D3068A0435E6806F4001606B1C0
:100550002043164E361D3060144E361F3068A043BF
:100560005E6806F4003606B12043104E361F306038
:10057000361F3068A0435E6806F4803606B120431B
:100580000A4E083E3060491C1029FFF435AFF8BD13
:100590004438024008380140000002400004024094
:1005A00000080240000C024000100240083C0140DC
:1005B000024613690B400BB1012000E00020704798
:1005C00010B5426921EA020302EA010443EA044346
:1005D000836110BD0AB1816101E00B048361704742
:1005E00001480068704700000C00002003480068C4
:1005F0000349097808440149086070470C0000204D
:100600001400002010B50D48006840F400700B493C
:1006100008600846006840F480600860084600688A
:1006200040F480700860032000F0E0F80F2000F034
:1006300007F800F05FF8002010BD0000003C024009
:100640002DE9F04188B004460027B84600BF0020DD
:1006500001902348006840F00200214908600846E4
:10066000006800F00200019000BF00BF02A903A8CB
:1006700000F092F9069F1FB900F0B6F9054602E0B6
:1006800000F0B2F945001748B5FBF0F0A0F1010801
:1006900015481649086040F2E7311448C160C0F8B7
:1006A0000480002101618160816100F0B3FC064695
:1006B00096B90E4800F06CFD06466EB91D2000F09C
:1006C00043F8102C07D2002221461D2000F050F8DC
:1006D0000748046000E00126304608B0BDE8F0811C
:1006E0004038024040420F0000040040CC0100208E
:1006F0001000002008B500BF0020009011480068DD
:1007000040F480400F4908600846006800F48040CB
:10071000009000BF00BF00BF00200090081F0068CD
:1007200040F08050091F08600846006800F08050C3
:10073000009000BF00BF00220F21901E00F018F8AB
:1007400008BD0000443802400146084600280DDB81
:1007500000BF00BF00F01F0301229A4043099B0025
:1007600003F1E023C3F8002100BF00BF00BF7047C2
:100770002DE9F05F80460D461646002702F01AF874
:10078000074639462A46334601F00700C0F1070AFA
:10079000BAF1040F02D94FF0040A01E0C0F1070AD0
:1007A000D14600F1040ABAF1070F02D24FF0000A55
:1007B00001E0A0F1030AD4464FF0010A0AFA09FA4F
:1007C000AAF1010A0AEA020A0AFA0CFA4FF0010B2E
:1007D0000BFA0CFBABF1010B0BEA030B4AEA0B041F
:1007E0002146404601F0EEFFBDE8F09F00BF00F05B
:1007F0000702064B19684FF6FF031940044B0B43E1
:1008000043EA0221014B196000BF70470CED00E084
:100810000000FA0570B504460D460CB9012070BD04
:100820005848006800F00700A84209D255490D70E9
:100830000846006800F00700A84201D00120EEE75A
:10084000207800F0020002281DD1207800F004007A
:10085000042805D14C48006840F4E0504A4908603B
:10086000207800F00800082805D14748006840F4C7
:100870006040454908604448006820F0F000A168E5
:10088000084341490860207800F00100A8B360687F
:10089000012807D13C4808380068C0F34040B8B987
:1008A0000120BCE76068022802D06068032807D1F5
:1008B000354808380068C0F3406048B90120AEE709
:1008C000314808380068C0F3400008B90120A6E7A5
:1008D0002D48006820F00300616808432A49086039
:1008E000FFF77EFE064609E0FFF77AFE801B41F225
:1008F0008831884202D9032091E707E02248006846
:1009000000F00C006168B0EB810FEDD11D4800686C
:1009100000F00700A84209D91A490D70084600687E
:1009200000F00700A84201D0012078E7207800F00D
:100930000400042807D11448006820F4E050E1685E
:10094000084311490860207800F00800082808D101
:100950000D48006820F46040216940EAC1000A495E
:10096000086000F061F808490968C1F30311074AFB
:10097000515CC8400649086006480068FFF760FE01
:1009800000204CE7003C024008380240B841000813
:1009900018000020100000200F2202600D4A12688B
:1009A00002F0030242600B4A126802F0F002826019
:1009B000084A126802F4E052C260064A126802F461
:1009C0006042D2080261044A126802F007020A601B
:1009D0007047000008380240003C024001480068AF
:1009E000704700001800002000B5FFF7F7FF04492A
:1009F0000968C1F38221034A515CC84000BD000070
:100A000008380240C841000800B5FFF7E7FF044975
:100A10000968C1F34231034A515CC84000BD00007F
:100A200008380240C84100082DE9F047002400259D
:100A30000026A1462548006800F00C0020B10428DB
:100A400005D008283AD105E0DFF8849039E0DFF8D6
:100A5000849036E01D48001F006800F03F041B48EA
:100A6000001F006800F4800078B11A481749091F78
:100A70000968C1F38811A0FB0170014622460023DA
:100A80003846FFF705FC05460EE011480F49091FDF
:100A90000968C1F38811A0FB0170014622460023BA
:100AA0003846FFF7F5FB05460848001F0068C0F30D
:100AB0000140401C4600B5FBF6F902E0DFF810905B
:100AC00000BF00BF4846BDE8F0870000083802407C
:100AD0000024F40040787D01F8B504460CB90120EB
:100AE000F8BD207800F00100002874D0F9480068B3
:100AF00000F00C0004280DD0F648006800F00C004F
:100B0000082813D1F348001F006800F48000B0F5F6
:100B1000800F0BD1EF4808380068C0F34040002830
:100B200059D06068002856D10120D9E700BF60681D
:100B3000B0F5803F08D1E7480838006840F48030BD
:100B4000E449083908601EE06068B0F5A02F0DD1B7
:100B5000E0480838006840F48020DE490839086021
:100B60000846006840F4803008600CE0D948083836
:100B7000006820F48030D7490839086008460068CA
:100B800020F48020086000BF606890B1FFF728FD66
:100B9000054606E0FFF724FD401B642801D9032029
:100BA0009EE7CC4808380068C0F340400028F1D0E8
:100BB00011E0FFF715FD054606E0FFF711FD401BAC
:100BC000642801D903208BE7C24808380068C0F3C5
:100BD00040400028F1D1207800F0020002285FD1C7
:100BE000BC48006800F00C0058B1BA48006800F03A
:100BF0000C0008281CD1B748001F006800F48000D2
:100C0000B0B9B44808380068C0F3400020B1E068CB
:100C1000012801D0012063E7AE480838006820F0C1
:100C2000F800216940EAC100AA490839086037E0A4
:100C3000E06800B30120A8490860FFF7D1FC054631
:100C400006E0FFF7CDFC401B022801D9032047E74F
:100C5000A04808380068C0F340000028F1D09D4843
:100C60000838006820F0F800216940EAC10099497D
:100C70000839086014E0002097490860FFF7B0FCCD
:100C8000054606E0FFF7ACFC401B022801D9032013
:100C900026E7904808380068C0F340000028F1D1EA
:100CA000207800F0080008282CD16069A8B1012044
:100CB0008A490860FFF794FC054606E0FFF790FCC0
:100CC000401B022801D903200AE782486C300068E3
:100CD000C0F340000028F1D014E000207F490860F4
:100CE000FFF77EFC054606E0FFF77AFC401B022872
:100CF00001D90320F4E677486C300068C0F3400067
:100D00000028F1D1207800F00400042870D10027D9
:100D100070483830006800F0805090B900BF002063
:100D200000906C483830006840F080506949383194
:100D300008600846006800F08050009000BF00BFC7
:100D400001276748006800F48070B0B96448006803
:100D500040F4807062490860FFF742FC054606E0F7
:100D6000FFF73EFC401B022801D90320B8E65C488F
:100D7000006800F480700028F2D000BFA06801284D
:100D800008D154486830006840F00100514968318A
:100D900008601DE0A06805280DD14E486830006845
:100DA00040F004004B49683108600846006840F094
:100DB000010008600CE047486830006820F001003E
:100DC0004449683108600846006820F00400086063
:100DD00000BFA068A8B1FFF703FC054609E0FFF7D4
:100DE000FFFB401B41F28831884202D9032077E69D
:100DF00026E0384868300068C0F340000028EED094
:100E000013E0FFF7EDFB054608E0FFF7E9FB401BA9
:100E100041F28831884201D9032061E62D486830CB
:100E20000068C0F340000028EFD1012F07D1294806
:100E30003830006820F0805026493831086000BF03
:100E4000A069002845D02348006800F00C0008285D
:100E50005DD0A069022845D100201F490866FFF730
:100E6000BFFB054606E0FFF7BBFB401B022801D98C
:100E7000032035E6174808380068C0F340600028B2
:100E8000F1D1D4E907010843616A40EA81110122E6
:100E9000A06AC2EB500041EA00412C20005D41EA0B
:100EA00000600C49091F086001200B490866FFF724
:100EB00097FB054606E0FFF793FB401B022801D98C
:100EC00003200DE6034808380068C0F3406000289E
:100ED000F1D049E00838024000004742800E474206
:100EE00000700040002021490866FFF779FB0546A5
:100EF00006E0FFF775FB401B022801D90320EFE550
:100F00001B480068C0F340600028F2D12CE0A069C3
:100F1000012800D1E4E51648001D0668A0690128F3
:100F200020D006F48001E06981421BD106F03F0128
:100F3000206A814216D147F6C0703040616AB0EB3A
:100F4000811F0FD106F440310122A06AC2EB50008C
:100F5000B1EB004F06D106F070612C20005DB1EBC3
:100F6000006F01D00120BBE50020B9E50000474239
:100F7000003802407047704730B502460B4600BF4C
:100F800092F83C00012801D1022030BD012082F8F6
:100F90003C0000BF022082F83D00106844681068E1
:100FA000816824F070041868044310684460144D8C
:100FB0001068A84213D01068B0F1804F0FD0114DC7
:100FC0001068A8420BD0104D1068A84207D00F4DF2
:100FD0001068A84203D00E4D1068A84205D121F038
:100FE00080015868014310688160012082F83D004B
:100FF00000BF002082F83C0000BF00BFC5E7000032
:10100000000001400004004000080040000C0040C7
:101010000040014010B504460CB9012010BD94F801
:101020003D0028B9002084F83C00204600F026F856
:10103000022084F83D00211D206801F0FBF801200A
:1010400084F8460000BF84F83E0001213F2001558E
:10105000402001554120015500BF00BF012084F808
:10106000420043200155442001554520015500BF51
:10107000012084F83D000020D0E7000008B51F4A99
:10108000016891420FD100BF002100911C490968FD
:1010900041F004011A4A11601146096801F0040187
:1010A000009100BF29E0174A016891420FD100BFAB
:1010B000002100911249096841F00801104A1160AD
:1010C0001146096801F00801009100BF15E00E4AC1
:1010D0000168914211D100BF002100910849091D0A
:1010E000096841F48031064A121D116011460968F1
:1010F00001F48031009100BF00BF08BD000800402E
:1011000040380240000C004000400140014691F888
:101110003D00012801D001207047022081F83D00E8
:10112000164B0868984213D00868B0F1804F0FD072
:10113000134B086898420BD0124B0868984207D0AE
:10114000114B0868984203D0104B086898420CD1A4
:101150000868806800F00702062A0CD0086800685A
:1011600040F001000B68186005E00868006840F076
:1011700001000B6818600020CEE70000000001406D
:101180000004004000080040000C00400040014006
:10119000014691F83D00012801D00120704702204E
:1011A00081F83D000868C06840F001000B68D86015
:1011B000164B0868984213D00868B0F1804F0FD0E2
:1011C000134B086898420BD0124B0868984207D01E
:1011D000114B0868984203D0104B086898420CD114
:1011E0000868806800F00702062A0CD008680068CA
:1011F00040F001000B68186005E00868006840F0E6
:1012000001000B6818600020C8E7000000000140E2
:101210000004004000080040000C00400040014075
:10122000014600BF0868006A41F21112104050B92F
:101230000868006A9210104028B90868006820F019
:1012400001000A68106000BF012081F83D00002005
:1012500070472DE9F04104460D46002700BF94F881
:101260003C00012802D10220BDE8F081012084F871
:101270003C0000BF022084F83D002068866826F00C
:10128000770626F47F46206886602868502833D089
:101290000CDC202850D004DC00284BD0102851D181
:1012A00049E0302849D040284CD139E060282DD081
:1012B000702807D0B0F5805F03D0B0F5005F41D152
:1012C0000DE041E0D5E902136A68206801F019F8E1
:1012D0002068866846F077062068866034E0D5E9A5
:1012E00002136A68206801F00CF82068806840F4F6
:1012F00080402168886027E0EA686968206801F01A
:10130000D1F85021206801F007F81DE0EA6869680B
:10131000206801F0DAF86021206800F0FDFF13E09A
:10132000EA686968206801F0BDF84021206800F093
:10133000F3FF09E000BF00BF00BF2968206800F08C
:10134000EBFF01E0012700BF00BF012084F83D0052
:1013500000BF002084F83C0000BF384684E7704797
:1013600070B504462068C5682068066906F002006A
:10137000022819D105F00200022815D1401F21686A
:101380000861012020772068806900F0030018B10F
:101390002046FFF7E4FF05E0204600F0EDF8204688
:1013A00000F0A1F90020207706F00400042819D1EC
:1013B00005F00400042815D1C0432168086102200B
:1013C00020772068806900F4407018B12046FFF74C
:1013D000C6FF05E0204600F0CFF8204600F083F974
:1013E0000020207706F00800082819D105F0080031
:1013F000082815D1C043216808610420207720689F
:10140000C06900F0030018B12046FFF7A8FF05E00F
:10141000204600F0B1F8204600F065F90020207762
:1014200006F01000102819D105F01000102815D171
:10143000C04321680861082020772068C06900F453
:10144000407018B12046FFF78AFF05E0204600F003
:1014500093F8204600F047F90020207706F00100BD
:1014600048B105F0010030B16FF00100216808615A
:10147000204600F0FDF906F08000802809D105F033
:101480008000802805D1C043216808612046FFF70D
:1014900071FD06F04000402809D105F040004028C9
:1014A00005D1C04321680861204600F0EDF906F03F
:1014B0002000202809D105F02000202805D1C043B4
:1014C000216808612046FFF756FD70BD10B586B053
:1014D0000446142101A8FEF725FF2249206888420E
:1014E0001DD100BF002000901F48006840F002009E
:1014F0001D4908600846006800F00200009000BF27
:1015000000BF402001900220029000200390049030
:101510000220059001A91548FEF766FF20E0144956
:10152000206888421CD100BF002000900E4800684F
:1015300040F001000C4908600846006800F0010016
:10154000009000BF00BF0120019002200290002007
:10155000039004900220059001A90648FEF744FF7D
:1015600006B010BD000800403038024000040240C0
:10157000000C00400000024070472DE9F041044695
:101580000D461646002700BF94F83C00012802D102
:101590000220BDE8F081012084F83C0000BF36B194
:1015A000042E1BD0082E31D00C2E5ED145E02946EA
:1015B000206800F0BBFE2068806940F008002168C8
:1015C00088612068806920F00400216888612068B3
:1015D0008069296908432168886148E029462068B4
:1015E00000F0D4FE2068806940F4006021688861C2
:1015F0002068806920F480602168886120688069A3
:10160000296940EA01202168886130E02946206884
:1016100000F0F0FE2068C06940F008002168C86151
:101620002068C06920F004002168C8612068C06992
:10163000296908432168C86119E02946206800F03B
:101640000DFF2068C06940F400602168C86120680F
:10165000C06920F480602168C8612068C069296978
:1016600040EA01202168C86101E0012700BF00BFF6
:1016700000BF002084F83C0000BF384689E710B561
:1016800004460CB9012010BD94F83D0028B9002093
:1016900084F83C00204600F025F8022084F83D0044
:1016A000211D206800F0C6FD012084F8460000BF1F
:1016B00084F83E0001213F20015540200155412082
:1016C000015500BF00BF012084F8420043200155AE
:1016D000442001554520015500BF012084F83D00FC
:1016E0000020D0E77047704770B504460D4615B925
:1016F00094F83E000BE0042D02D13F20005D06E08F
:10170000082D02D14020005D01E04120005D01284C
:1017100001D0012070BD1DB9022084F83E000EE00A
:10172000042D03D102213F20015508E0082D03D1EB
:1017300002214020015502E00221412001550122F1
:101740002946206800F0CCFD1D492068884201D15F
:10175000012000E0002028B12068406C40F40040E7
:101760002168486416492068884213D02068B0F187
:10177000804F0FD01349206888420BD0124920684F
:10178000884207D011492068884203D01049206858
:1017900088420CD12068806800F00706062E0CD025
:1017A0002068006840F001002168086005E02068BA
:1017B000006840F00100216808600020AAE70000EE
:1017C000000001400004004000080040000C004000
:1017D0000040014030B504460D46002229462068ED
:1017E00000F07EFD21492068884201D1012000E0FF
:1017F000002090B100BF2068006A41F2111108403A
:1018000050B92068006A8910084028B92068406CE7
:1018100020F400402168486400BF00BF2068006ACF
:1018200041F21111084050B92068006A891008403F
:1018300028B92068006820F001002168086000BF16
:101840001DB9012084F83E000EE0042D03D10121D2
:101850003F20015508E0082D03D10121402001550A
:1018600002E0012141200155002030BD000001406F
:1018700010B5044603492068884201D1FEF7B6FE40
:1018800010BD000000040040704710B504460CB9BC
:10189000012010BDA06900B100E000BF94F8410034
:1018A00028B9002084F84000204600F029F82420C0
:1018B00084F841002068C06820F400502168C860A6
:1018C000204600F017FE2068006920F4904021684F
:1018D00008612068406920F02A002168486120687A
:1018E000C06840F400502168C86000206064202077
:1018F00084F8410084F842000020606300BFC8E71C
:1019000010B586B00446142101A8FEF70BFD1B4953
:101910002068884230D100BF00200090184800683D
:1019200040F01000164908600846006800F01000FA
:10193000009000BF00BF00BF002000901048143886
:10194000006840F001000E4914390860084600683C
:1019500000F00100009000BF00BF4FF4C060019094
:10196000022002900020039003200490072005909D
:1019700001A90448FEF738FD06B010BD0010014073
:10198000443802400000024000BFFEE71CB500F0F2
:1019900085FA00F0E1F900200221104B0246CDE962
:1019A00000100F496FF0090000F0E3FF0D490860D7
:1019B000002080210C4B0246CDE900100B496FF04E
:1019C000090000F0D6FF0A4908600648006801F0E7
:1019D0004CFD0748006801F048FD1CBD00000240B6
:1019E000F40000200000002000040240AC000020B1
:1019F0000400002010B5044A0021044801F072F9E7
:101A00000349086010BD000094410008E12000086F
:101A10000800002000B587B0142102A8FEF782FC60
:101A200000BF002001905248006840F00400504977
:101A300008600846006800F00400019000BF00BF85
:101A400000BF002001900846006840F08000086058
:101A50000846006800F08000019000BF00BF00BF92
:101A6000002001900846006840F001000860084628
:101A7000006800F00100019000BF00BF00BF00201F
:101A800001900846006840F00200086008460068BF
:101A900000F00200019000BF00BF00224FF460413F
:101AA0003448FEF797FD002202213348FEF792FDED
:101AB0000122D1033048FEF78DFD002280212F48FE
:101AC000FEF788FD4FF400500290012003900020A3
:101AD0000490059002A92748FEF786FC4FF4804049
:101AE000029011200390012004900020059002A98B
:101AF0002048FEF779FC4FF400400290012003904B
:101B000004900020059002A91A48FEF76DFC0220FF
:101B1000029001200390002004900320059002A968
:101B20001548FEF761FC4FF480600290002003909E
:101B30000120049002A91148FEF756FC4FF4004022
:101B400002900120039000200490059002A90A4809
:101B5000FEF74AFC802002900120039000200490B0
:101B60000320059002A90548FEF73EFC07B000BD22
:101B700030380240000802400000024000040240E9
:101B800000B58DB0002009900A900B900C90079042
:101B900008901C216846FEF7C5FB204820490860D4
:101BA00041F28730486000211D4881606321C16097
:101BB000002101618161FFF72DFA08B1FEF711FCE8
:101BC0004FF48050099009A91548FFF742FB08B16E
:101BD000FEF707FC1248FFF752FD08B1FEF701FCC3
:101BE00000200790089007A90D48FFF7C5F908B134
:101BF000FEF7F7FB60200090002001900290049017
:101C0000002269460648FFF7B8FC08B1FEF7E9FB79
:101C10000348FFF75BFC0DB000BD0000000800406A
:101C2000AC00002000B58DB0002009900A900B9008
:101C30000C90079008901C216846FEF773FB204823
:101C40002049086041F28730486000211D488160CA
:101C50006321C160002101618161FFF7DBF908B1F7
:101C6000FEF7BFFB4FF48050099009A91548FFF714
:101C7000F0FA08B1FEF7B5FB1248FFF700FD08B116
:101C8000FEF7AFFB00200790089007A90D48FFF76B
:101C900073F908B1FEF7A5FB6020009000200190C9
:101CA00002900490002269460648FFF766FC08B1DE
:101CB000FEF797FB0348FFF709FC0DB000BD0000DD
:101CC000000C0040F40000201FB50020009001909F
:101CD000029003900E480F4908606320486000217D
:101CE0000C4881604FF6FF71C16000210161816184
:101CF000FFF790F908B1FEF774FB4FF480500090A5
:101D000069460448FFF7A5FA08B1FEF76AFB1FBD54
:101D1000004001403C01002010B50B480B49086011
:101D20004FF4E1304860002108488160C1600161E2
:101D30000C21416100218161C161FFF7A6FD08B15D
:101D4000FEF74FFB10BD0000001001408401002091
:101D500000BFFEE700BFFEE770B500240EE00021E3
:101D6000204600F0F0F8002504E0002000F068F9BB
:101D7000681CC5B2802DF8DB601CC4B2082CEEDBF9
:101D800070BD000010B50122D1030448FEF722FC0B
:101D9000012291030148FEF71DFC10BD000802401E
:101DA00070B5054600241EE08020204100EA0502AF
:101DB0004FF480411648FEF70DFC012001F0E4FBD2
:101DC0000122D1031248FEF705FC012001F0DCFBE3
:101DD00000224FF400410E48FEF7FCFB012001F009
:101DE000D3FB601CC4B2082CDEDB0122D1030848FF
:101DF000FEF7F0FB012001F0C7FB00224FF4004189
:101E00000348FEF7E7FB012001F0BEFB70BD0000B8
:101E10000008024010B5012291031048FEF7DAFBDA
:101E2000012001F0B1FB0122D1030C48FEF7D2FBE7
:101E3000012001F0A9FB00224FF480410748FEF782
:101E4000C9FB012001F0A0FB00224FF40041034830
:101E5000FEF7C0FB012001F097FB10BD0008024017
:101E600010B500224FF480410B48FEF7B3FB012070
:101E700001F08AFB0122D1030748FEF7ABFB0120EA
:101E800001F082FB012291030348FEF7A3FB01202E
:101E900001F07AFB10BD00000008024010B5FFF70A
:101EA00071FFAE2000F0BCF8D52000F0B9F880201A
:101EB00000F0B6F8A82000F0B3F83F2000F0B0F82A
:101EC000D32000F0ADF8002000F0AAF8402000F088
:101ED000A7F8A12000F0A4F8C82000F0A1F8DA20AB
:101EE00000F09EF8122000F09BF8812000F098F896
:101EF000CF2000F095F8D92000F092F8F12000F002
:101F00008FF8DB2000F08CF8302000F089F8A42056
:101F100000F086F8A62000F083F88D2000F080F80D
:101F2000142000F07DF8AF2000F07AF8FFF714FFDE
:101F300010BD10B50246012000E050430B1EA1F178
:101F40000101FAD110BD70B505460C4645F0B00050
:101F500000F066F8102141EA141000F061F804F076
:101F60000F0000F05DF870BD2DE9F04105460E460A
:101F70001746721ED206110E6A1E5206100EFFF789
:101F8000E2FF002409E0A7F12001134A02EB01114E
:101F9000085D00F055F8601CC4B2082CF3DB721E1B
:101FA000D206110E6A1E012303EB4202D0B2FFF7E4
:101FB000CAFF00240BE0A7F12001074A02EB01123F
:101FC00004F10801505C00F03BF8601CC4B2082C1E
:101FD000F1DBBDE8F0810000F44100082DE9F04795
:101FE00080460E4617461D46002415E0281B411E5C
:101FF0000A20FFF79EFFB7FBF0F00A21B0FBF1F2D9
:1020000001FB120000F130093019C1B24A464046C6
:10201000FFF7AAFF601CC4B2AC42E7DBBDE8F08763
:1020200010B50446FFF7F6FE7820FFF7B9FE002052
:10203000FFF7B6FE2046FFF7B3FEFFF711FF10BD16
:1020400010B50446FFF7E6FE7820FFF7A9FE402012
:10205000FFF7A6FE2046FFF7A3FEFFF701FF10BD26
:102060002DE9F04707468846DFF870A000BF9AF8D0
:10207000000008B900F056FB00BFEFF311810846DD
:10208000202181F3118800BF00BF07EB47021349ED
:10209000183101EBC204E1684D1CA168A94200D1CE
:1020A00000256169022903D100BF2169A942FCD042
:1020B0002169A94208D0E268616801EB020989F848
:1020C0000080E560012600E00026C1B281F311889E
:1020D00000BF00BF3046BDE8F0870000D8420020B6
:1020E00010B5044601F09CFA0D4A00210D4800F09D
:1020F000F9FD0D4908600D4A00210D4800F0F2FD80
:102100000C4908600C4A00210C4800F0EBFD0C491A
:102110000860002001F04CFB01F0ACFA10BD00009B
:10212000E4470008B529000898000020D0410008C5
:10213000FD2900088800002008480008912C0008AC
:102140009C00002010B54FF0E020006901F050FE27
:10215000012801D001F00EFC10BD000000B593B0C5
:10216000302107A8FEF7DEF8142102A8FEF7DAF8FE
:1021700000BF002001902448006840F080502249B0
:1021800008600846006800F08050019000BF00BF62
:1021900000BF002001901D48006840F440401B49EA
:1021A00008600846006800F44040019000BF00BF8E
:1021B0000220079001200A9010200B9002200D9021
:1021C00000210E9108210F9164211091022111919B
:1021D0000421129107A8FEF77FFC08B1FEF701F970
:1021E0000F20029002200390002004904FF48050B2
:1021F000059000200690032102A8FEF70BFB08B112
:10220000FEF7EFF813B000BD403802400070004008
:102210000348006840F470000149086070470000FE
:1022200088ED00E010B50248FFF79AF810BD0000F5
:10223000CC01002010B50268224B98420BD0B0F1BF
:10224000804F08D0204B984205D0204B984202D0B6
:102250001F4B984203D122F070024B681A43194B6E
:10226000984214D0B0F1804F11D0174B98420ED045
:10227000164B98420BD0164B984208D0154B9842FB
:1022800005D0154B984202D0144B984203D122F44A
:102290004072CB681A4322F080034C6943EA04027F
:1022A0008B68C3620B688362064B984201D10B694D
:1022B0000363036843F00403036001234361026086
:1022C00010BD000000000140000400400008004074
:1022D000000C004000400140004401400048014023
:1022E00030B501F01F05012404FA05F3046A9C438C
:1022F0000462046A01F01F0502FA05F52C4304622A
:1023000030BD30B50C46816821F47F4142EA032597
:1023100025432943816030BD0A46816821F0700160
:1023200042F00703194381607047000030B5026A2C
:10233000056A25F0010505624368846924F070048C
:1023400024F003040D682C4322F002028D682A4316
:102350000D4DA84206D100BF22F00802CD682A43E5
:1023600022F00402084DA84207D123F4807323F41D
:1023700000734D692B438D692B43436084614D6825
:102380004563026230BD00000000014030B5026AC2
:10239000056A25F0100505624368846924F4E04469
:1023A00024F440740D6844EA052422F020028D686C
:1023B00042EA05120E4DA84207D100BF22F080026A
:1023C000CD6842EA051222F04002094DA84209D127
:1023D00023F4806323F400634D6943EA85038D6928
:1023E00043EA8503436084614D688563026230BDC2
:1023F0000000014030B5026A056A25F48075056267
:102400004368C46924F0700424F003040D682C436D
:1024100022F400728D6842EA05220F4DA84207D1CE
:1024200000BF22F40062CD6842EA052222F48062F5
:10243000094DA84209D123F4805323F400534D6978
:1024400043EA05138D6943EA05134360C4614D688F
:10245000C563026230BD00000000014030B5036A70
:10246000056A25F4805505624468C26922F4E04299
:1024700022F440720D6842EA052223F400538D686D
:1024800043EA0533064DA84204D124F480444D6943
:1024900044EA85144460C2614D680564036230BD3E
:1024A0000000014030B50B461446026A056A25F06B
:1024B00001050562816921F0F00141EA041122F071
:1024C0000A021A438161026230BD30B50B461446E0
:1024D000026A056A25F010050562816921F47041E0
:1024E00041EA043122F0A00242EA03128161026251
:1024F00030BD00002DE9F84F04462068006920F443
:102500004050E1680843216808612169A0680843D8
:1025100061690843E169084300902068C06849F296
:102520000C618843009908432168C86020684069AD
:1025300020F44070A1690843216848617649206809
:10254000884203D075492068884203D1FEF75CFABF
:10255000814602E0FEF748FA8146E069B0F5004F97
:102560006CD102206168A0FB015003461920A9FB31
:10257000007001462A463846FDF78AFE6421B0FB0A
:10258000F1F04FEA001A02206168A0FB01510B46EE
:102590001920A9FB00712A463846FDF779FE8346CB
:1025A00002206168A0FB015003461920A9FB0071BD
:1025B0002A463846FDF76CFE6421B0FBF1F000EBD3
:1025C000C00101EB0010ABEB8000322101EBC00039
:1025D0006421B0FBF1F000F0F8000AEB400A0220A1
:1025E0006168A0FB015003461920A9FB0070014659
:1025F0002A463846FDF74CFE834602206168A0FB60
:10260000015003461920A9FB00712A463846FDF700
:102610003FFE6421B0FBF1F000EBC00101EB0010C4
:10262000ABEB8000322101EBC0006421B0FBF1F084
:1026300000F007005044216888606AE00420616867
:10264000A0FB015003461920A9FB007001462A4651
:102650003846FDF71DFE824604206168A0FB01504C
:1026600003461920A9FB007001462A463846FDF7AB
:102670000FFE6421B0FBF1F000EBC00101EB001094
:10268000AAEB8000322101EB00106421B0FBF1F0D5
:1026900000F0F00A04206168A0FB017003461920D5
:1026A000A9FB00513A462846FDF7F2FD6421B0FB34
:1026B000F1F00AEB001A04206168A0FB01510B46FF
:1026C0001920A9FB00712A463846FDF7E1FD834633
:1026D00004206168A0FB015003461920A9FB00708B
:1026E00001462A463846FDF7D3FD6421B0FBF1F0E0
:1026F00000EBC00101EB0010ABEB8000322101EBDD
:1027000000106421B0FBF1F000F00F00504421688C
:102710008860BDE8F88F00000010014000140140FF
:1027200000BFFEE710B5124C03202061606111A0CC
:10273000A0611349E1614FF4806121620021A1622F
:102740006162E1620BA020660E4961661021A166FC
:1027500000212167E16661670BA1E01DFDF7EDFD3A
:102760000AA12046FDF7E9FD2020A07110BD000060
:10277000D84200205465726D696E616C00000000E3
:10278000804300208047002052545400534547475F
:10279000455200000FB4054B10B503A9044A029836
:1027A00000F036F810BC5DF814FB0000E9290008C1
:1027B000A000002002480068C0F30220704700001B
:1027C0000CED00E010B5002804DB0A07130E054AE3
:1027D000135406E00A07140E034A00F00F031B1FF0
:1027E000D45410BD00E400E018ED00E0EFF30580E4
:1027F000704702E008C8121F08C1002AFAD17047CA
:102800007047002001E001C1121F002AFBD1704770
:102810002DE9FF4F89B09B460446002506E0252898
:102820000BD05A460B999047641C6D1C20780028E9
:10283000F5D10DB02846BDE8F08F0027B84601223B
:10284000474900E0074314F8013F203B02FA03F038
:102850000842F7D120782E2819D114F8010F47F03B
:1028600004072A280ED06FF02F022078A0F1300143
:1028700009290CD808EB880102EB410100EB0108A3
:10288000641CF2E70A98641C50F8048B0A902078C4
:102890000028CED0642808D0692806D075281ED01C
:1028A0005A460B9990476D1C58E00A994FF00A0957
:1028B00001C90A91002802DA40422D2102E03905BF
:1028C00004D52B218DF82010012103E0F90704D055
:1028D0002021F7E78A4608AE0DE00021FAE70A99C1
:1028E0004FF00A0901C90A91F7E74946FDF72EFDA5
:1028F000303106F8011D0028F7D1ADEB060000F1DC
:102900002009780701D44FF00108C84502DDA8EB83
:10291000090000E000208046002706E008A85A468B
:10292000C05D0B9990476D1C7F1C5745F6DB04E09A
:1029300030205A460B9990476D1CB8F10001A8F160
:102940000108F5DC05E016F8010B5A460B99904793
:102950006D1CB9F10001A9F10109F4DC641C65E703
:10296000092801000146002901DA4842704708465B
:10297000FCE72DE9F04707460D4690461E46DDE987
:10298000089A16B90020BDE8F0870DB90020FAE7D3
:10299000142000F047F904460CB90020F3E7276043
:1029A0006560C4F80880E660A4F8109084F812A06E
:1029B0002046E8E7002400BF4FF400510948FDF726
:1029C000FFFD00F02DFE641C022322460121084673
:1029D000FFF704FB00F04EFE4FF47A7000F0BAFEF1
:1029E000EAE700000008024070B504460D46E1B277
:1029F0000020FFF735FB204670BD000008B5002021
:102A00000090002201210A2000F0CEFF1B4908603F
:102A10000846006810B91AA0FFF7BCFE00BF64208A
:102A200000F066F800909DF8000002280FD11BA06E
:102A3000FFF7B0FE0023642269461048006801F0E9
:102A40002DF8012816D01AA0FFF7A4FE12E09DF879
:102A5000000003280ED11BA0FFF79CFE0023642278
:102A600069460648006801F019F8012802D010A054
:102A7000FFF790FE0A2000F010F9D0E78C0000204C
:102A80006B65792071756575652063726561746524
:102A9000206661696C65640D0A0000006B65792031
:102AA00073686F72742070726573730A000000009F
:102AB0006B65795F71756575652066756C6C206EE8
:102AC0006F770A006B6579206C6F6E672070726596
:102AD00073730A0010B54FF480610448FDF768FD78
:102AE00008B9002010BD0120FCE7000000040240EE
:102AF0001CB5044600200190FFF7ECFF009025482C
:102B0000007820B101280ED002283FD11BE09DF8AB
:102B1000000038B920480068401C1F4908600120A7
:102B20001C49087032E09DF8000040B91A4800685E
:102B3000401C1949086002201649087002E0002074
:102B40001449087022E01448016814A0FFF722FE1F
:102B50009DF8000028B910480068401C0E49086024
:102B600013E00D480068A04202D80220019007E05F
:102B700000200949086003200190002005490870E1
:102B80000020054908600349087000BF00BF9DF898
:102B900004001CBD90000020940000206E6F772080
:102BA0006B65795F70726573735F74696D65203DE5
:102BB0002025640D0A000000FDF724FDFFF7CEFA82
:102BC000FEF728FFFEF7DCFFFFF72CF8FFF7A4F86D
:102BD000FFF77AF8FEF7DAFE00F06EF8FEF70AFF6C
:102BE0001BE04FF47A7000F0C3FC0C4800680068EA
:102BF00041420A48006800F033FC09480068006858
:102C000041420748006800F02BFC0448006800F0CF
:102C10002CFC0348006800F028FCE2E700000020DC
:102C200004000020F0B50B30154D20F00701002402
:102C3000144A0FE003688B420BD38B4205D95E1A0E
:102C400043184768C3E9006700E04368136002C0A7
:102C500004E0021D10680028ECD12046002802D1B3
:102C6000286808B10020F0BD064A07481060074AEE
:102C7000121A22F00702C0E9002401202860D7E7D9
:102C8000A8000020A400002094470020904B0020C2
:102C900000BF012000F05EFDFBE770B50546FFF7C1
:102CA000A5FD10B16FF0050404E0002415B128461D
:102CB00000F050FD204670BD10B5FFF797FD10B134
:102CC0006FF0050409E00648006820B901200449B6
:102CD0000860002401E04FF0FF34204610BD0000E2
:102CE000580000202DE9FF47804689461446002001
:102CF0000390FFF77BFD00284ED1B8F1000F4BD0B9
:102D0000802618258246471E44B3206808B1D4F8AF
:102D100000A0A06900B1A5692DB1382D03D8207994
:102D200000F0010018B1002004B0BDE8F087606930
:102D300008B160698608A06840B1E0685C2805D3E6
:102D4000206918B1606908B1012708E0A06830B9AE
:102D5000E06820B9206910B9002700E00027012FA2
:102D60000CD12169A0684B463246CDE90051029052
:102D70005146404600F0DEFF03900DE067B903A81E
:102D8000B2B24B465146CDE90050404600F0A0FF9C
:102D9000012801D0002003900398C5E72DE9F041F8
:102DA00005460E461648076816480068001D00F0E4
:102DB000CBFB681C38B936B112480168091D1248AE
:102DC00000F022FC1AE07C190E4800684460BC4206
:102DD00007D20C480168091D0C48006800F0FAFB96
:102DE0000CE008480168091D0948006800F0F2FB82
:102DF00008480068844201D206480460BDE8F081BA
:102E0000300000201C000020C40600202400002008
:102E1000200000204C00002010B5044600F000FC0B
:102E200024480068401C234908602348006840B9D2
:102E3000214804600846006801280DD100F062F9BD
:102E40000AE01E48006838B91B480068C06AE16A99
:102E5000884201D81848046019480068401C184985
:102E600008600846006860641649E06A096888429C
:102E700002D91449E06A0860E16A01EB8101124A53
:102E800002EB8100211D00F0BFFB00F0F3FB0B48BB
:102E9000006868B108480068C06AE16A884207D2E1
:102EA0004FF0805009490860BFF34F8FBFF36F8F19
:102EB00010BD00002C0000201C0000203800002065
:102EC00048000020340000201402002004ED00E03F
:102ED0002DE9F04104460F4615464FF00008A66B59
:102EE000206C48B9206800282CD1A06801F032F885
:102EF00080460020A06025E07DB93946226C6068DC
:102F0000FDF7F7F9216C606808446060D4E90101BD
:102F1000884217D32068606014E03946226CE0686C
:102F2000FDF7E7F9216CE068411AE1602168E0688B
:102F3000884203D2216CA068411AE160022D01D1C0
:102F400006B1761E701CA0634046BDE8F08110B546
:102F5000044694F8590030B9206B00F0A9FB2046D4
:102F600000F0A6FB1AE094F85900012803D120468E
:102F700000F09EFB12E094F85900022801D10120D4
:102F800000E0002050B900BF502080F31188BFF34B
:102F90004F8FBFF36F8F00BF00BFFEE710BD000073
:102FA00030B54FF47053174800F007042CB1C01D22
:102FB00020F00700134C041B1B1B0246124C22601E
:102FC0000024114D6C60D018083820F007000F4C19
:102FD000206000240D4D2D686C600C4D2D682C6018
:102FE0001146441A4C60094C24680C60084D4C682A
:102FF0002C60084D4C682C604FF00044064D2C604E
:1030000030BD0000D80600205C00002064000020D5
:103010006C00002068000020780000202DE9F041BD
:1030200006460D4617469846069C0DB9246000E0FA
:103030002760E66325640121204600F0E3FC84F864
:103040004C80BDE8F0812DE9F05F82460E46904647
:103050009B460A9F0C9C4FEA8801A522206BFDF736
:103060005AF9A8F10100216B01EB800929F0070949
:1030700009F0070008B9012000E0002050B900BFA6
:10308000502080F31188BFF34F8FBFF36F8F00BFC5
:1030900000BFFEE786B1002507E0715D04F1340052
:1030A0004155705D00B902E06D1C102DF5D300BFD5
:1030B00000214320015502E0002084F83400382F1D
:1030C00000D33727E762E76400202065201D00F069
:1030D0007EFA04F1180000F07AFA2461C7F1380092
:1030E000A06164620020606584F858005A46514629
:1030F000484600F09FF920600B9808B10B980460D7
:10310000BDE8F09F10B5002407E004EB84010F4AEE
:1031100002EB810000F04EFA641C382CF5D30C4809
:1031200000F048FA0B4800F045FA0B4800F042FA6C
:103130000A4800F03FFA0A4800F03CFA04480949FE
:10314000086004480849086010BD0000140200200F
:1031500074060020880600209C060020B00600208F
:10316000C4060020200000202400002010B50146E5
:10317000164800E0006803688B42FBD302464368B0
:1031800013448B4204D143684C6823444360014696
:103190000A464B6813440468A34211D10C4C0368DF
:1031A0002468A34208D04B680468646823444B60D9
:1031B00003681B680B6005E0054B1B680B6001E0B2
:1031C00003680B60884200D0016010BD5C000020E5
:1031D0006400002070B5054600F022FAA86BE96B88
:1031E000884201D1012400E0002400F043FA204687
:1031F00070BD00000A490968096809B9012100E0A9
:10320000002121B14FF0FF31064A116006E0044968
:103210000968C968C868034A4168116070470000BE
:10322000200000204C0000200E480068401C08B917
:10323000012000E0002050B900BF502080F3118829
:10324000BFF34F8FBFF36F8F00BF00BFFEE700BF1C
:10325000502080F31188BFF34F8FBFF36F8F00BFF3
:1032600000BFFEE77C00002070B5044600F0D8F9EE
:1032700094F9455010E0606A08B9012000E0002090
:1032800038B904F1240000F0B7FE18B100F000FBDB
:1032900000E003E0681E45B2002DECDC00BFFF201B
:1032A00084F8450000F0E6F900F0BAF994F94450CA
:1032B00010E0206908B9012000E0002048B904F1BD
:1032C000100000F099FE08B100F0E2FA681E45B265
:1032D00000E001E0002DECDC00BFFF2084F844009A
:1032E00000F0C8F970BD00002DE9F04104464FF030
:1032F000000800F0EFFA4948006808B9FFF750FEEF
:10330000474800682040002870D1D4B1083404F048
:103310000700B0B104F00700C0F10800044404F055
:10332000070008B9012000E0002050B900BF50207C
:1033300080F31188BFF34F8FBFF36F8F00BF00BFC3
:10334000FEE7002C52D03748006884424ED8364EF3
:103350003046056801E02E462D686868A04202D21A
:1033600028680028F7D12D48006885423ED0306893
:1033700000F10808286830606868001B102819D917
:103380002F1907F0070008B9012000E0002050B90C
:1033900000BF502080F31188BFF34F8FBFF36F8FB2
:1033A00000BF00BFFEE76868001B78606C603846AD
:1033B000FFF7DCFE1B4968680968081A19490860AC
:1033C0000846006819490968884203D21548006810
:1033D0001649086012496868096808436860002057
:1033E000286013480068401C1149086000F050FE36
:1033F00008F0070008B9012000E0002050B900BF24
:10340000502080F31188BFF34F8FBFF36F8F00BF41
:1034100000BFFEE74046BDE8F081000064000020E8
:1034200078000020680000205C0000206C00002074
:1034300070000020001F4FF080730360001F21F018
:1034400001030360001F054B036014380260001F76
:103450006FF0020303602038704700002932000833
:1034600000B97047016000BFFBE770B5044604B9BE
:1034700070BD206800280DDCA07C28B9218A0122BB
:10348000E068FDF7A7F812E0218A0022E068FDF766
:10349000A1F80CE0A07C28B9218A0022E068FDF7A1
:1034A00099F804E0218A0122E068FDF793F820688A
:1034B000FFF758FA0546052D04DAD4E90101FEF7B5
:1034C00089F93FE000BF42F21070B0FBF5F0012136
:1034D000C1EB400061680968C86242F21070B0FB3D
:1034E000F5F00121C1EB40016068C16000BFA06838
:1034F00038B942F21070B0FBF5F0616809684863B2
:103500001CE0A068042807D142F21070B0FBF5F06F
:1035100061680968886311E0A068082807D142F251
:103520001070B0FBF5F061680968C86306E042F20C
:103530001070B0FBF5F0616809680864D4E9010116
:10354000FEF7D2F800BF93E701460A69D1E90130DE
:103550009860D1E9010358605068884201D18868B9
:103560005060002008611068401E106010687047AD
:1035700070B50446002504E04FF47A7000F004F8BA
:103580006D1CA542F8D370BD70B5044608480068AC
:10359000406A85B20648FDF7B9FD00BF04480068DF
:1035A000406A401BA042F9D30148FDF739FE70BDC7
:1035B0003C01002000F1080141604FF0FF318160C3
:1035C00000F10801C1600161002101607047002124
:1035D0000161704710B502460B685C1C0CB910699C
:1035E00007E002F1080000E04068446824689C425B
:1035F000FAD944684C604C68A160886041600A61F7
:103600001468641C146010BD42684A6093688B6043
:10361000936859609160086103685B1C03607047A0
:1036200000BF502080F31188BFF34F8FBFF36F8F1F
:1036300000BF0E480068401C0C490860084600683E
:10364000012812D10A480068C0B208B9012000E080
:10365000002050B900BF502080F31188BFF34F8F76
:10366000BFF36F8F00BF00BFFEE770477C000020F4
:1036700004ED00E00D48006850B900BF502080F311
:103680001188BFF34F8FBFF36F8F00BF00BFFEE7FE
:1036900006480068401E054908600846006820B9D1
:1036A000002080F3118800BF00BF70477C0000201D
:1036B00070B506463546002E44D0083D2C462249BA
:1036C00060680968084008B1012000E0002050B996
:1036D00000BF502080F31188BFF34F8FBFF36F8F6F
:1036E00000BF00BFFEE7206808B9012000E000200D
:1036F00050B900BF502080F31188BFF34F8FBFF344
:103700006F8F00BF00BFFEE70F496068096808407F
:10371000C0B12068B0B90C4960680968884360602E
:1037200000F0D8F80949606809680844074908604A
:103730002046FFF71BFD06480068401C044908604E
:1037400000F0A6FC70BD000078000020680000209A
:103750007400002070B504460025D4B112480068FA
:1037600008B9012000E0002050B900BF502080F3CC
:103770001188BFF34F8FBFF36F8F00BF00BFFEE70D
:1037800000F0A8F800212046FFF708FB00F080FCBD
:1037900005463DB94FF0805004490860BFF34F8F94
:1037A000BFF36F8F70BD00005400002004ED00E0F7
:1037B00070B50546FFF734FF15B92748006800E0EB
:1037C00028460446201DFFF7BFFEA06A18B104F189
:1037D0001800FFF7B9FE21480068401C1F49086027
:1037E0001D480068844209D1211D1D48FFF70CFFC8
:1037F0001C480068401C1B49086009E01A48006822
:10380000401E194908602046FFF7A1FBFFF7F2FCB4
:10381000FFF730FF15480068E8B10F4800688442A0
:1038200019D11348006808B9012000E0002050B900
:1038300000BF502080F31188BFF34F8FBFF36F8F0D
:1038400000BF00BFFEE74FF080500A490860BFF399
:103850004F8FBFF36F8F70BD1C0000204800002009
:10386000B0060020280000202C0000203800002096
:103870005400002004ED00E0034909680160034999
:1038800009684160704700004400002030000020BB
:1038900001200149086070474000002070B50446CF
:1038A0000D4654B900BF502080F31188BFF34F8FED
:1038B000BFF36F8F00BF00BFFEE7054801681831F6
:1038C0002046FFF787FE01212846FFF767FA70BD03
:1038D0001C00002002480068401C01490860704735
:1038E000540000201E48006818B101201D490860DE
:1038F00034E000201B4908601B4801680CE051B906
:1039000000BF502080F31188BFF34F8FBFF36F8F3C
:1039100000BF00BFFEE7491E01EB8100134A52F8C9
:10392000200008B9012000E000200028E7D101EBC9
:1039300081020E4B03EB820042685268426000F144
:1039400008024368934202D142685268426042686A
:10395000D268074B1A600448016000BF704700003E
:1039600054000020400000203400002014020020F9
:103970001C00002010B500BF502080F31188BFF359
:103980004F8FBFF36F8F00BF00F042FA18B14FF0B6
:1039900080500449086000BF002080F3118800BFF8
:1039A00010BD000004ED00E02DE9F84305460E4689
:1039B00017460DB1012000E0002050B900BF502093
:1039C00080F31188BFF34F8FBFF36F8F00BF00BF2D
:1039D000FEE705FB06F808F15000FFF785FC0446FA
:1039E00064B1A14609F15009002084F846003B4625
:1039F0004A46314628460094FFF710FB2046BDE8B2
:103A0000F883000070B505460E462C4654B900BF39
:103A1000502080F31188BFF34F8FBFF36F8F00BF2B
:103A200000BFFEE7FFF7FCFDD4E90F12206801FBA1
:103A30000200A0600020A06320686060E06B401E70
:103A4000226C216800FB0211E160FF2084F8440031
:103A500084F845009EB9206908B9012000E00020E3
:103A6000A8B904F1100000F0C7FA80B14FF08050FF
:103A700009490860BFF34F8FBFF36F8F07E004F170
:103A80001000FFF797FD04F12400FFF793FDFFF707
:103A9000F1FD012070BD000004ED00E02DE9FF43C1
:103AA00083B0064688461D464FF00009344654B997
:103AB00000BF502080F31188BFF34F8FBFF36F8F8B
:103AC00000BF00BFFEE7B8F1000F01D1206C08B9BC
:103AD000012000E0002050B900BF502080F3118881
:103AE000BFF34F8FBFF36F8F00BF00BFFEE7022D04
:103AF00002D1E06B012801D1012000E0002050B983
:103B000000BF502080F31188BFF34F8FBFF36F8F3A
:103B100000BF00BFFEE700F06BF908B9059808B9CF
:103B2000012000E0002050B900BF502080F3118830
:103B3000BFF34F8FBFF36F8F00BF00BFFEE700BF23
:103B4000FFF76EFDA06BE16B884201D3022D28D1F7
:103B50002A4641462046FFF7BBF90746606A08B986
:103B6000012000E0002068B904F1240000F044FACC
:103B700088B14FF0805032490860BFF34F8FBFF3D8
:103B80006F8F08E03FB14FF080502D490860BFF3C0
:103B90004F8FBFF36F8FFFF76DFD012007B0BDE8BA
:103BA000F083059818B9FFF765FD0020F6E7B9F135
:103BB000000F04D101A8FFF75FFE4FF00109FFF7E6
:103BC00059FDFFF787FEFFF72BFD94F94400401CD9
:103BD00010B9002084F8440094F94500401C10B945
:103BE000002084F84500FFF745FD05A901A800F075
:103BF00029F8F0B92046FFF7EDFAA0B104F1100062
:103C00000599FFF74BFE2046FFF72EFB00F040FA28
:103C1000002895D14FF0805009490860BFF34F8FBD
:103C2000BFF36F8F8CE72046FFF71EFB00F030FAE2
:103C300086E72046FFF718FB00F02AFA0020ADE7E0
:103C400004ED00E070B505460C4655B900BF5020A4
:103C500080F31188BFF34F8FBFF36F8F00BF00BF9A
:103C6000FEE754B900BF502080F31188BFF34F8F97
:103C7000BFF36F8F00BF00BFFEE7FFF7D1FC124814
:103C800002686868131A2068401C08B9002617E00B
:103C90000E4928680968884204D06868904201D8B3
:103CA00001260DE02068984207D92068C01A2060DC
:103CB0002846FFF7E1FD002602E0002020600126F3
:103CC000FFF7D8FC304670BD3000002044000020D3
:103CD0002DE9FF4F85B0804689461746DDE912ABD6
:103CE000B800FFF701FB064656B15C20FFF7FCFA6F
:103CF00004460CB1266304E03046FFF7D9FC00E02F
:103D000000248CB1002084F85900CDE900ABCDE946
:103D100002403A4649464046089BFFF794F9204640
:103D2000FFF77AF8012501E04FF0FF35284609B08A
:103D3000BDE8F08F2DE9F04F85B0074688469146E3
:103D40009A46DDE90EB6109C0EB1012000E000207D
:103D500050B900BF502080F31188BFF34F8FBFF3DD
:103D60006F8F00BF00BFFEE70CB1012000E0002014
:103D700050B900BF502080F31188BFF34F8FBFF3BD
:103D80006F8F00BF00BFFEE75C20039003985C28A4
:103D900001D1012000E0002050B900BF502080F385
:103DA0001188BFF34F8FBFF36F8F00BF00BFFEE7D7
:103DB00000BFB4B1AEB125462C462E63022085F873
:103DC0005900002004A953464A46CDE900B1CDE987
:103DD000025041463846FFF736F92846FFF71CF8EF
:103DE00001E000200490049805B0BDE8F08F0000C9
:103DF0000549096809B9012005E00449096809B9BC
:103E0000022000E00020704738000020540000200D
:103E10002DE9F0414FF000084348006800287BD1AD
:103E200042480068451C4148056015BB4048006891
:103E3000006808B9012000E0002050B900BF502000
:103E400080F31188BFF34F8FBFF36F8F00BF00BFA8
:103E5000FEE7374807683748006835490860354845
:103E6000076035480068401C33490860FFF7C2F915
:103E700000BF3248006885423BD300BF2C48006831
:103E8000006808B9012000E0002020B14FF0FF30A9
:103E90002A4908602CE026480068C068C468666843
:103EA000B54202D22548066022E0201DFFF74CFBF8
:103EB000A06A18B104F11800FFF746FB2049E06A38
:103EC0000968884202D91E49E06A0860E16A01EB8C
:103ED00081011C4A02EB8100211DFFF795FB1A4965
:103EE000E06A0968C96A8842C8D34FF00108C5E78B
:103EF00000BF15480068C06A00EB8000114951F806
:103F00002000012801D94FF001081048006808B1CD
:103F10004FF0010805E0FFE70D480068401C0C4920
:103F200008604046BDE8F0815400002030000020C9
:103F30002000002024000020440000204C0000202D
:103F400034000020140200201C000020400000204B
:103F50003C00002070B505462C460026002D43D0BD
:103F600022480068844201D1012000E0002050B9BD
:103F700000BF502080F31188BFF34F8FBFF36F8FC6
:103F800000BF00BFFEE7206D50B900BF502080F396
:103F90001188BFF34F8FBFF36F8F00BF00BFFEE7E5
:103FA000206D401E2065E16CE06A88421CD0206DC7
:103FB000D0B9201DFFF7C8FAE06CE062E06AC0F1FA
:103FC0003800A0610A49E06A0968884202D90849B4
:103FD000E06A0860E16A01EB8101064A02EB8100B8
:103FE000211DFFF711FB0126304670BD1C0000208B
:103FF000340000201402002070B50646F068C46842
:1040000054B900BF502080F31188BFF34F8FBFF326
:104010006F8F00BF00BFFEE704F11800FFF794FAAE
:1040200015480068A0B9201DFFF78EFA1349E06A11
:104030000968884202D91149E06A0860E16A01EB27
:1040400081010F4A02EB8100211DFFF7DDFA04E038
:1040500004F118010B48FFF7D7FA0B49E06A096829
:10406000C96A884204D9012501200849086000E096
:104070000025284670BD00005400002034000020B8
:10408000140200209C0600201C000020400000209C
:1040900070B5002400263648006850B900BF502093
:1040A00080F31188BFF34F8FBFF36F8F00BF00BF46
:1040B000FEE7FFF7B5FA2E480068401E2C4908605D
:1040C0000846006800284ED12A48006800284AD0D7
:1040D00023E02948C068C46804F11800FFF734FAE7
:1040E000201DFFF731FA2549E06A0968884202D9A4
:1040F0002249E06A0860E16A01EB8101204A02EB93
:104100008100211DFFF780FA1E49E06A0968C96A2B
:10411000884202D301201C4908601748006808B98A
:10412000012000E000200028D3D00CB1FFF762F896
:104130001648056865B100BFFFF76AFE10B101209F
:10414000114908606D1E002DF6D100200F4908604E
:104150000D48006838B1012630070D490860BFF3EB
:104160004F8FBFF36F8FFFF785FA304670BD0000A9
:10417000540000202C0000209C0600203400002069
:10418000140200201C000020400000203C00002001
:1041900004ED00E02C4800080000000000000000D2
:1041A00000000000000000000002000018000000F5
:1041B00000000000000000000000000000000000FF
:1041C00001020304060708090000000001020304BD
:1041D0003848000800000000000000000000000057
:1041E00000000000000200001000000000000000BD
:1041F00000000000000000000000000000000000BF
:1042000000000000000000F8000000000000003383
:104210003000000000100C06100C0600000000002A
:104220000000000040C07840C0784000043F040413
:104230003F040400007088FC08300000001820FFD4
:10424000211E0000F008F000E018000000211C030F
:104250001E211E0000F00888700000001E2123248B
:104260001927211010160E000000000000000000A9
:1042700000000000000000E0180402000000000739
:104280001820400000020418E00000000040201840
:1042900007000000404080F0804040000202010F13
:1042A00001020200000000F0000000000101011FF7
:1042B00001010100000000000000000080B070005B
:1042C00000000000000000000000000000010101EB
:1042D000010101010000000000000000003030007A
:1042E0000000000000000000806018040060180654
:1042F0000100000000E010080810E000000F10208E
:1043000020100F00001010F8000000000020203FD7
:104310002020000000700808088870000030282461
:104320002221300000300888884830000018202002
:1043300020110E000000C02010F800000007042427
:10434000243F240000F8088888080800001921206C
:1043500020110E0000E0108888180000000F1120C6
:1043600020110E0000380808C83808000000003F7F
:10437000000000000070880808887000001C2221DE
:1043800021221C0000E010080810E000000031228B
:1043900022110F00000000C0C0000000000000302B
:1043A000300000000000008000000000000080607D
:1043B00000000000000080402010080000010204FE
:1043C00008102000404040404040400004040404E5
:1043D00004040400000810204080000000201008A1
:1043E00004020100007048080808F00000000030D6
:1043F00036010000C030C828E810E0000718272464
:1044000023140B000000C038E0000000203C230211
:104410000227382008F8888888700000203F202074
:1044200020110E00C03008080808380007182020A6
:104430002010080008F808080810E000203F20209D
:1044400020100F0008F88888E8081000203F20207E
:104450002320180008F88888E8081000203F200072
:1044600003000000C03008080838000007182020AA
:10447000221E020008F808000008F808203F210169
:1044800001213F20000808F8080800000020203F14
:104490002020000000000808F8080800C080808084
:1044A0007F00000008F888C028180800203F20017D
:1044B0002638200008F8080000000000203F2020D7
:1044C0002020300008F8F800F8F80800203F003FEE
:1044D000003F200008F830C00008F808203F200006
:1044E00007183F00E01008080810E0000F10202017
:1044F00020100F0008F808080808F000203F2101EC
:1045000001010000E01008080810E0000F18242442
:1045100038504F0008F8888888887000203F2000B5
:10452000030C30200070880808083800003820216B
:1045300021221C00180808F8080818000000203F75
:104540002000000008F808000008F808001F2020DC
:1045500020201F000878880000C8380800000738AD
:104560000E010000F80800F80008F800033C0700FE
:10457000073C0300081868808068180820302C0366
:10458000032C30200838C800C83808000000203F3D
:104590002000000010080808C8380800203826212C
:1045A00020201800000000FE020202000000007F30
:1045B00040404000000C30C000000000000000013E
:1045C0000638C00000020202FE0000000040404029
:1045D0007F0000000000040202020400000000004E
:1045E00000000000000000000000000080808080CB
:1045F00080808080000202040000000000000000B3
:10460000000000000000808080800000001924224B
:1046100022223F2008F8008080000000003F112087
:1046200020110E000000008080800000000E11208C
:1046300020201100000000808088F800000E11206A
:1046400020103F200000808080800000001F222278
:1046500022221300008080F0888888180020203FE4
:10466000202000000000808080808000006B9494F7
:104670009493600008F8008080800000203F2100B3
:1046800000203F2000809898000000000020203F7C
:1046900020200000000000809898000000C080806A
:1046A000807F000008F8000080808000203F240206
:1046B0002D302000000808F8000000000020203FF6
:1046C000202000008080808080808000203F2000AB
:1046D0003F20003F8080008080800000203F21003C
:1046E00000203F200000808080800000001F2020EC
:1046F00020201F00808000808000000080FFA1201B
:1047000020110E000000008080808000000E11202B
:1047100020A0FF80808080008080800020203F21BA
:10472000200001000000808080808000003324246D
:1047300024241900008080E0808000000000001F19
:10474000202000008080000000808000001F2020CA
:1047500020103F20808080000080808000010E308B
:104760000806010080800080008080800F300C03EC
:104770000C300F0000808000808080000020312EEF
:104780000E312000808080000080808080818E70CB
:104790001806010000808080808080000021302C7D
:1047A0002221300000000000807C02020000000096
:1047B000003F404000000000FF000000000000003B
:1047C000FF0000000002027C800000000040403F2B
:1047D00000000000000601010202040400000000C5
:1047E000000000005C48000800000000000000001D
:1047F000000000000000000000020000180000009F
:104800000000000000000000484800080000000010
:104810000000000000000000000000000002000096
:10482000300000000000000000000000737461729E
:10483000745F5461736B00004B65795F526561640E
:104840005F5461736B0000004D6F746F725F436F54
:104850006E74726F6C5F5461736B000044697370A7
:104860006C61795F5461736B000000008C48000834
:1048700000000020AC000000F227000838490008C2
:10488000AC000020E45200000228000800000000F4
:104890000000000000000000000000001000000008
:1048A000010000000024F4000000000000000000EF
:1048B00000000000000000000000000000000000F8
:1048C00000000000000000000000000000000000E8
:1048D00000000000000000000000000000000000D8
:1048E00000000000000000000000000000000000C8
:1048F00000000000000000000000000000000000B8
:104900000000000000000000AAAAAAAA00000000FF
:104910000000000000000000000000000000000097
:104920000000000000000000000000000000000087
:0849300000000000000000007F
:040000050800019955
:00000001FF
