:020000040800F2
:10000000A85700206D020008D7160008E113000869
:10001000D5160008DD030008ED1D000800000000F3
:10002000000000000000000000000000AD0100081A
:10003000DF0300080000000009020008C9190008D9
:10004000870200088702000887020008870200086C
:10005000870200088702000887020008870200085C
:10006000870200088702000887020008870200084C
:10007000870200088702000887020008870200083C
:1000800087020008870200088702000800000000BD
:1000900000000000000000000000000087020008CF
:1000A000870200088702000887020008870200080C
:1000B00087020008851A00088702000887020008E6
:1000C00087020008870200088702000887020008EC
:1000D000870200088702000887020008000000006D
:1000E000870200088702000887020008000000005D
:1000F000000000000000000000000000870200086F
:10010000000000008702000887020008870200083C
:1001100000000000000000000000000000000000DF
:10012000870200088702000887020008870200088B
:10013000870200080000000000000000000000002E
:10014000000000000000000000000000870200081E
:10015000870200088702000887020008870200085B
:10016000870200088702000800000000000000006D
:10017000000000000000000000000000000000007F
:1001800000000000870200080000000000000000DE
:100190008702000887020008DFF80CD000F00CF995
:1001A00000480047B9210008A85700202C4B1968C7
:1001B0000868B0E8F04F80F30988BFF36F8F4FF005
:1001C000000080F3118870470000000008480068B4
:1001D000006880F308884FF0000080F3148862B64E
:1001E00061B6BFF34F8FBFF36F8F00DF00BF00BF5B
:1001F00008ED00E0DFF80C00016841F470010160D7
:10020000704700BF88ED00E0EFF30980BFF36F8F08
:10021000134B1A681EF0100F08BF20ED108A20E95A
:10022000F04F106009B44FF0500080F31188BFF315
:100230004F8FBFF36F8F02F0EDFE4FF0000080F3A1
:10024000118809BC19680868B0E8F04F1EF0100F5B
:1002500008BFB0EC108A80F30988BFF36F8F704736
:1002600014000020EFF30580704700000648804727
:1002700006480047FEE7FEE7FEE7FEE7FEE7FEE78B
:10028000FEE7FEE7FEE7FEE7751A000899010008A1
:100290002DE9F05F0546002092469B4688460646BB
:1002A000814640241BE0284641464746224600F04E
:1002B00072F853465A46C01A914110D31146184657
:1002C000224600F059F82D1A67EB01084F462246E6
:1002D0000120002100F050F817EB00094E41201ECC
:1002E000A4F10104DFDC484631462A464346BDE816
:1002F000F09F40EA01039B0703D009E008C9121FE1
:1003000008C0042AFAD203E011F8013B00F8013BCF
:10031000521EF9D27047D2B201E000F8012B491EFB
:10032000FBD270470022F6E710B513460A46044692
:100330001946FFF7F0FF204610BD034611F8012BC8
:1003400000F8012B002AF9D11846704730B50B464A
:10035000014600202022012409E021FA02F59D42F5
:1003600005D303FA02F5491B04FA02F52844151EC9
:10037000A2F10102F1DC30BD202A04DB203A00FAB0
:1003800002F1002070479140C2F1200320FA03F3EC
:10039000194390407047202A04DB203A21FA02F0EA
:1003A0000021704721FA02F3D040C2F120029140AF
:1003B0000843194670470000064C074D06E0E06808
:1003C00040F0010394E8070098471034AC42F6D39C
:1003D000FFF7E6FE88410008A8410008FEE77047E5
:1003E00072B6FEE72DE9F84FDFF8B8A1002201242C
:1003F00003254FF00F090AF1040BAAF1040E00BF08
:100400000B6804FA02F63340B34273D10F7907F058
:100410000307012F01D0022F16D187684FEA420847
:1004200005FA08FC27EA0C07D1F80CC00CFA08FC06
:100430004CEA070CC0F808C04768B7430E79C6F30A
:10044000001696403E4346600E79F643B6070DD03F
:10045000C768560005FA06FC27EA0C07D1F808C061
:100460000CFA06FC4CEA070CC0F80CC00E7906F03A
:100470000306022E10D1D60800EB8608D8F82060BB
:1004800057074FEAD76C09FA0CF7BE430F6907FA12
:100490000CF73743C8F8207006684FEA420C05FA9B
:1004A0000CF7BE430F7907F0030707FA0CF7374341
:1004B00007604E6816F4403F6DD03B4E376847F4F6
:1004C00080473760366822F0030706F480460096BE
:1004D000364E07EB060CDCF8086897073F0F09FA61
:1004E00007F826EA0806DFF8C880404503D14FF038
:1004F00000081EE04FE0DFF8BC80404502D14FF01D
:10050000010816E0DFF8B080404502D14FF0020844
:100510000FE0DFF8A880404502D14FF0030808E063
:10052000DFF89C80404502D14FF0040801E04FF015
:10053000070808FA07F848EA0608CCF80888DAF845
:1005400000605746D1F804C09E435FEACC2C00D52A
:100550001E433E60DBF800605F46D1F804C09E4356
:100560005FEA8C2C00D51E433E60DEF800607746C3
:10057000D1F804C09E435FEA8C3C00D51E433E6028
:10058000084F083F3E68D1F804C09E435FEACC3C68
:1005900000D51E433E60521C102AFFF431AFBDE867
:1005A000F88F0000083C0140443802400030014010
:1005B000000002400004024000080240000C02401B
:1005C000001002400069084000D0012070474269D5
:1005D00021EA02030A4043EA0241816170470AB1FD
:1005E000816170470904FBE701488068704700009B
:1005F000040000200248816802781144816070473D
:10060000040000200B4810B5016841F4007101603E
:10061000016841F480610160016841F4807101600A
:10062000032000F09FF80F2000F006F800F050F8CB
:10063000002010BD003C024030B505461F4887B081
:100640000024016841F002010160006806A900F081
:100650000200009001A800F031F90498A8B100F060
:100660004DF940001649174AB0FBF1F11648491EF2
:10067000026040F2E732C0E90324C0E9011484615A
:1006800000F084FB040003D015E000F037F9E9E73F
:100690000D4800F00BFC04000DD11D2000F034F8D3
:1006A000102D07D2002229461D2000F03BF80748F4
:1006B000056000E0012407B0204630BD403802400C
:1006C00040420F0000040040D0010020080000203C
:1006D0000C4882B0016841F480410160006800F478
:1006E000804000900748001F016841F08051016080
:1006F0000068002200F0805000900F21901E02B090
:1007000000F010B844380240002809DB00F01F0256
:10071000012191404009800000F1E020C0F8001163
:1007200070470000F0B40E4B1B680C46C3F3022365
:10073000C3F10705042D00D90425191D072901D28D
:10074000002300E0DB1E012606FA05F1491E2140C8
:1007500099409E40761E16403143F0BC01F08CBBA0
:100760000CED00E0064900F0070208684FF6FF03B1
:10077000184040EA0220034A104308607047000016
:100780000CED00E00000FA052DE9F0470E460500EB
:1007900065D0DFF81481D8F80000F7B200F0070048
:1007A000B04207D288F80070D8F8000000F00700C7
:1007B000B04254D128683D4C810712D5400703D57B
:1007C000206840F4E05020602878000703D52068B6
:1007D00040F4604020602068A96820F0F0000843E1
:1007E00020602878C0072DD0304968680839012872
:1007F00012D0022813D0032811D0096889070029D4
:100800002DDA216821F0030101432160FFF7ECFE9E
:10081000814641F2883A0EE009688903EFE70968EA
:100820008901ECE7FFF7E0FEA0EB0901514502D991
:100830000320BDE8F0872068696800F00C00B0EB89
:10084000810FEFD1D8F80010404601F00701B14206
:1008500007D90770006800F00700B04201D00120FE
:10086000E7E72878400705D52068E96820F4E050DC
:10087000084320602878000706D52068296920F4FD
:10088000604040EAC100206000F058F82168084A42
:10089000C1F30311515CC84006490860064800686E
:1008A000FFF7CAFE0020C4E7003C024008380240BF
:1008B000D43A000810000020080000200F22026037
:1008C0000C4A136803F003034360136803F0F0035A
:1008D0008360136803F4E053C36012684FF4E0537D
:1008E00003EAD20202610448006800F007000860D1
:1008F0007047000008380240003C024004480549A7
:1009000000680968044AC1F38221515CC8407047FD
:100910001000002008380240E43A00080448054965
:1009200000680968044AC1F34231515CC84070470D
:100930001000002008380240E43A0008154810B5BD
:10094000006810F00C02144813D01449042A0FD088
:10095000082A0ED10F4C241F2268236802F03F02A0
:100960005B0207D52068C0F38810A0FB010106E0F8
:10097000084610BD2168C1F38811A1FB00010023C6
:10098000FFF786FC2168C1F30141491C4900B0FB17
:10099000F1F010BD083802400024F40040787D01D9
:1009A0002DE9F84F04006ED02078DFF84C93C00793
:1009B000A9F104054AD009F104000168C1F38101DD
:1009C000012908D00068C0F3810002280AD1D9F8B3
:1009D0000000400206D52868800337D560680028EB
:1009E000E1D033E06068B0F5803F10D0B0F5A02FC3
:1009F000286810D020F480302860286820F48020F7
:100A000028606068A8B1FFF7EFFD06460DE0286892
:100A100040F48030F4E740F480202860F7E700BF1E
:100A2000FFF7E2FD801B642873D828688003F7D5A0
:100A30000CE0FFF7D9FD064605E000BFFFF7D4FD47
:100A4000801B6428F0D828688003F7D42078DFF86A
:100A5000AC8280074FF0000A3ED5A748001D016810
:100A600011F00C0F08D00068C0F3810002280BD1F0
:100A7000D9F80000400207D42868800716D5E0683E
:100A8000012800D112E033E1E068B8B10120C8F8D4
:100A90000000FFF7A9FD064605E000BFFFF7A4FD33
:100AA000801B0228C0D828688007F7D528682169EC
:100AB00020F0F80040EAC10028600DE0C8F800A06E
:100AC000FFF792FD064604E0FFF78EFD801B02282B
:100AD0001FD828688007F7D42078000722D5864FD2
:100AE00087486169703771B101210160FFF77CFDB2
:100AF000064604E0FFF778FD801B022809D8386815
:100B00008007F7D50EE0C0F800A0FFF76DFD0646A0
:100B100005E082E0FFF768FD801B02287DD8386879
:100B20008007F7D42078400768D5DFF8CCB10027DC
:100B30000BF13C0BDBF80000C0000BD4DBF800101D
:100B400041F08051CBF80010DBF80000012700F0E5
:100B5000805000906B4E3068C00510D4306840F46F
:100B600080703060FFF740FD009005E0FFF73CFD2E
:100B70000099401A022850D83068C005F6D55E4E5C
:100B8000A0686C3601280FD00528306810D020F0FE
:100B900001003060306820F004003060A068B8B117
:100BA000FFF722FD00900FE0306840F00100F4E70D
:100BB00040F004003060F7E7FFF716FD0099411A96
:100BC00041F28830814266D830688007F4D50EE063
:100BD000FFF70AFD009007E0FFF706FD0099411AB4
:100BE00041F28830814256D830688007F4D42FB162
:100BF000DBF8001021F08051CBF80010A069C8B3D9
:100C00003D49091D0968C1F3810102294AD0022822
:100C1000504607D0C8F8600000E03CE0FFF7E4FC75
:100C200004463BE04746C8F86000FFF7DDFC064697
:100C300005E000BFFFF7D8FC801B02282BD82868EE
:100C40008001F7D4D4E907010843A16A2E4A490874
:100C500002EB0141626A41EA8211084394F82C10C8
:100C600040EA0161C9F8001001203866FFF7BCFCBA
:100C7000044606E03EE000BFFFF7B6FC001B02287A
:100C800009D828688001F7D534E000BFFFF7ACFC35
:100C9000001B022802D90320BDE8F88F28688001D4
:100CA000F4D427E00128F7D0D9F80000E26900F475
:100CB000800191421CD1226A00F03F01914217D17C
:100CC00047F6C071626A0140B1EB821F10D1A26A7F
:100CD0004FF0FF3300F4403103EB5202B1EB024F0F
:100CE00006D194F82C1000F07060B0EB016F01D0C9
:100CF0000120D1E70020CFE704380240000047423E
:100D0000800E4742007000400000FFFF70477047B0
:100D100070B590F83C20012A2CD0012480F83C408A
:100D2000022280F83D2003685A689D6822F0700610
:100D30000A6832435A60104B02689A420ED0B2F1F0
:100D4000804F0BD00D4B9A4208D00D4B9A4205D0E4
:100D50000C4B9A4202D00C4B9A4204D1496825F0C0
:100D600080031943916080F83D40002180F83C10D9
:100D7000084670BD022070BD000001400004004024
:100D800000080040000C00400040014010B5040085
:100D900003D094F83D0010B107E0012010BD002001
:100DA00084F83C00204600F01FF8022084F83D0043
:100DB000211D206800F06CFE012084F8460084F8B4
:100DC0003E0084F83F0084F8400084F8410084F835
:100DD000420084F8430084F8440084F8450084F815
:100DE0003D00002010BD000008B5134A01681348FB
:100DF000914207D1016841F004010160006800F0F0
:100E0000040009E00E4A914208D1016841F008014E
:100E10000160006800F00800009008BD09488142A8
:100E2000FBD10648001D016841F480310160006873
:100E300000F48030F0E70000000800404038024035
:100E4000000C00400040014090F83D10012901D005
:100E500001207047022180F83D1000680E49884249
:100E60000ED0B0F1804F0BD00C49884208D00C490D
:100E7000884205D00B49884202D00B49884204D1F0
:100E8000816801F00701062903D0016841F00101E2
:100E90000160002070470000000001400004004095
:100EA00000080040000C00400040014090F83D1058
:100EB000012901D001207047022180F83D1001680E
:100EC000CA6842F00102CA6000680E4988420ED02A
:100ED000B0F1804F0BD00C49884208D00B498842B2
:100EE00005D00B49884202D00A49884204D1816862
:100EF00001F00701062903D0016841F001010160FA
:100F0000002070470000014000040040000800403D
:100F1000000C00400040014001680A6A41F21113D0
:100F20001A4207D10A6A9B101A4203D10A6822F0BA
:100F300001020A60012180F83D100020704770B561
:100F4000044690F83C000025012817D0012684F8BB
:100F50003C60022084F83D002068826822F077021D
:100F600022F47F4282600868502838D00DDC2028A7
:100F70004FD005DC90B3102811D14AE0022070BD9B
:100F8000302846D040280AD13BE060282FD0702876
:100F90000DD0B0F5805F03D0B0F5005F12D0012511
:100FA00084F83D60002084F83C00284670BDCB6882
:100FB000D1E90121206800F0BBFD2068816841F083
:100FC000770109E0CB68D1E90121206800F0B0FD8C
:100FD0002068816841F480418160E1E719E0CA68D6
:100FE0004968206800F058FE5021206806E0CA6871
:100FF0004968206800F061FE6021206800F0A2FDD1
:10100000CEE7CA684968206800F046FE40212068A3
:10101000F4E7226801461046F0E770472DE9F041F9
:1010200004460068C66805694FF00007A90713D594
:10103000B10711D5F91E0161012020772068806970
:101040008007204602D0FFF7E8FF04E000F0BEF87A
:10105000204600F050F92777680716D5700714D599
:1010600021686FF004000861022020772068806901
:1010700010F4407F204602D0FFF7CFFF04E000F0DD
:10108000A5F8204600F037F92777280715D530074F
:1010900013D521686FF008000861042020772068CC
:1010A000C0698007204602D0FFF7B7FF04E000F0D8
:1010B0008DF8204600F01FF92777E80616D5F006D0
:1010C00014D521686FF0100008610820207720688F
:1010D000C06910F4407F204602D0FFF79EFF04E075
:1010E00000F074F8204600F006F92777E80708D0EA
:1010F000F00706D021686FF001000861204600F07B
:10110000FBF8280608D5300606D521686FF0800068
:1011100008612046FFF7FAFD680608D5700606D577
:1011200021686FF040000861204600F0EFF8A80643
:101130000AD5B00608D521686FF020000861204666
:10114000BDE8F041FFF7E3BDBDE8F08110B586B022
:10115000044614216846FFF7E5F82368164C002181
:1011600016480222A34210D1036843F00203036031
:10117000006800F00200059040200090CDE90121B8
:10118000CDE9031269460E4812E00E4CA34211D17C
:10119000036843F001030360006800F0010005905C
:1011A00001200090CDE90121CDE9031269460648EE
:1011B000FFF718F906B010BD0008004030380240B3
:1011C00000040240000C004000000240704770B56F
:1011D000044690F83C0000260D4601280FD001205F
:1011E00084F83C006AB1042A1DD0082A2FD00C2AAA
:1011F0003FD00126002084F83C00304670BD02201C
:1012000070BD206800F0A6FC2068816941F00801EB
:1012100081612068816921F0040181612068816910
:101220002A69114311E0206800F0BCFC2068816944
:1012300041F4006181612068816921F480618161EC
:10124000206881692A6941EA02218161D2E7206828
:1012500000F0D4FC2068C16941F00801C161206838
:10126000C16921F00401C1612068C1692A69114383
:1012700011E0206800F0EEFC2068C16941F40061D3
:10128000C1612068C16921F48061C1612068C169C0
:101290002A6941EA0221C161ACE710B5040003D01C
:1012A00094F83D0010B107E0012010BD002084F843
:1012B0003C00204600F01EF8022084F83D00211D6D
:1012C000206800F0E5FB012084F8460084F83E0029
:1012D00084F83F0084F8400084F8410084F842001C
:1012E00084F8430084F8440084F8450084F83D0005
:1012F000002010BD7047704700680349884201D143
:10130000FFF778B97047000000040040704770B5DF
:10131000040004D094F84100002510B106E001203B
:1013200070BD84F84050204600F024F8242084F852
:1013300041002068C16821F40051C160204600F0DE
:10134000CFFC2068016921F4904101612068416966
:1013500021F02A0141612068C16841F40051C16057
:101360006564202084F8410084F842006563002011
:1013700070BD000010B586B0044614216846FEF723
:10138000D1FF14492068884221D113480021026806
:1013900042F010020260006800F0100005900E4854
:1013A0001438026842F001020260006800F0010097
:1013B00005904FF4C06000900220CDE901010320A8
:1013C00003900720049069460448FFF70BF806B025
:1013D00010BD0000001001404438024000000240EF
:1013E000FEE7000010B5044A0021044800F038FF71
:1013F0000349086010BD0000B03A000865190008F4
:10140000000000202DE9F04387B014216846FEF764
:1014100089FF3F480024016841F004010160016830
:1014200001F004010591016841F08001016001684B
:1014300001F080010591016841F00101016001683E
:1014400001F001010591016841F0020101600068AD
:10145000304F00F00200059000224FF46041384602
:10146000FFF7BDF8DFF8B080002202214046FFF709
:10147000B6F80122D60331464046FFF7B0F8DFF850
:101480009C90002280214846FFF7A9F8B0100090F8
:101490000125CDE90154694638460394FEF7A2FFC1
:1014A000A803009011200394CDE901056946384650
:1014B000FEF798FFCDE90065CDE90254694638464C
:1014C000FEF790FF02200327CDE90005CDE9024792
:1014D00069464046FEF786FFA8028DE8310069465E
:1014E0004846FEF77FFF0096CDE901546946404625
:1014F0000394FEF777FF8020CDE90005CDE9024790
:1015000069464846FEF76EFF07B0BDE8F08300006D
:10151000303802400008024000000240000402404F
:1015200010B58EB000240794089409940A940B9483
:101530001C2168460C94FEF7F5FE1E481C4901600C
:101540003121C0E901146321C0E903148461FFF76C
:101550001DFC08B1FEF744FF4FF48050079007A927
:101560001448FFF7ECFC08B1FEF73AFF1148FFF70B
:1015700094FE08B1FEF734FF0B940BA90D480C94B0
:10158000FFF7C6FB08B1FEF72BFF6020CDE9000492
:1015900002940022694607480494FFF718FE08B138
:1015A000FEF71EFF0348FFF7D1FD0EB010BD00008F
:1015B00000080040B000002010B58EB00024079451
:1015C000089409940A940B941C2168460C94FEF725
:1015D000A9FE1E481C4901603121C0E901146321A4
:1015E000C0E903148461FFF7D1FB08B1FEF7F8FEF0
:1015F0004FF48050079007A91448FFF7A0FC08B1EA
:10160000FEF7EEFE1148FFF748FE08B1FEF7E8FED0
:101610000B940BA90D480C94FFF77AFB08B1FEF769
:10162000DFFE6020CDE900040294002269460748ED
:101630000494FFF7CCFD08B1FEF7D2FE0348FFF794
:1016400085FD0EB010BD0000000C0040F800002029
:101650001FB5002110480091019102910D4A03919C
:1016600002606322C0E901214FF6FF72C0E9032145
:101670008161FFF78BFB08B1FEF7B2FE4FF480509B
:10168000009069460448FFF75AFC002801D0FEF795
:10169000A7FE1FBD00400140400100200C4810B5CE
:1016A0000A4901604FF4E1314160002181600C2260
:1016B000C160C0E904128161C161FFF728FE002802
:1016C00003D0BDE81040FEF78BBE10BD00100140F6
:1016D00088010020FEE7FEE72DE9F0471C4E074693
:1016E00000244FF080084FF480494FF4004500BFBC
:1016F00028FA04F23A4049463046FEF770FF0120CE
:1017000001F06CFA012229463046FEF768FF0120FD
:1017100001F064FA002229463046FEF760FF0120FE
:1017200001F05CFA641CE4B2082CE1D301222946E2
:101730003046FEF754FF012001F050FA00222946FE
:101740003046FEF74CFFBDE8F047012001F046BAF5
:101750000008024070B50122114D9403214628462D
:10176000FEF73DFF012001F039FA0122D603314690
:101770002846FEF734FF012001F030FA002221460E
:101780002846FEF72CFF012001F028FA00223146FE
:101790002846FEF724FFBDE87040012001F01EBA84
:1017A0000008024070B50E4D4FF4804400222146DF
:1017B0002846FEF714FF012001F010FA0122D103A0
:1017C0002846FEF70CFF012001F008FA012221460D
:1017D0002846FEF704FFBDE87040012001F0FEB985
:1017E000000802400246012000E05043491EFCD29E
:1017F000704710B50C4640F0B00000F060F81020C3
:1018000040EA141000F05BF804F00F00BDE810404F
:1018100000F055B82DE9F0410746CE004000083EE3
:10182000801E15464FF0FF38F1B2C0B2FFF7E1FF5E
:101830001148002400EB05152819A0F5805090F8F8
:10184000000E00F04DF8641CE4B2082CF4D308EB51
:101850004700F1B2C0B2FFF7CCFF00242819A0F571
:10186000805090F8080E00F03BF8641CE4B2082C9D
:10187000F4D3BDE8F0810000103B00082DE9F047EB
:1018800000241D461646884681460A2713E0291B78
:101890000A20491EFFF7A6FFB6FBF0F0B0FBF7F1F8
:1018A00007FB110208EB0400C1B248463032FFF7D3
:1018B000B1FF641CE4B2AC42E9D3BDE8F08710B5D7
:1018C0000446FFF747FF7820FFF706FF0020FFF7E9
:1018D00003FF2046FFF700FFBDE81040FFF762BF9F
:1018E00010B50446FFF736FF7820FFF7F5FE4020DD
:1018F000FFF7F2FE2046FFF7EFFEBDE81040FFF7CE
:1019000051BF000070B5054615480C46007808B96F
:1019100000F06EFAEFF31181202080F31188104A55
:1019200005EB450002EBC000426A056A1346183019
:10193000521C954200D100224569022D02D1056951
:101940009542FCD00569954204D04568EC54C260CC
:10195000012000E00020C9B281F3118870BD0000B1
:10196000EC4A002010B501F081F90E4A00210E4822
:1019700000F076FC0D490E4A086000210D4800F089
:101980006FFC0D490D4A086000210D4800F068FC0D
:101990000C490860002001F067FABDE8104001F032
:1019A00085B90000004100080D200008A4000020B7
:1019B000EC3A000855200008A0000020244100084F
:1019C000E3210008A800002010B54FF0E0200069D6
:1019D00001F0B8FE012803D0BDE8104001F0C6BBFD
:1019E00010BD000030B593B030216846FEF79AFC78
:1019F00014210CA8FEF796FC1C480024016841F055
:101A000080510160006800F0805011901848016812
:101A100041F4404101600068022500F4404011900B
:101A20000120039010200490009506950820CDE930
:101A300007406420CDE9090504200B906846FEF7B5
:101A4000AFFF08B172B6FEE70F20CDE90C054FF4E9
:101A50008050CDE90E4003210CA81094FEF794FEAF
:101A6000002801D072B6FEE713B030BD4038024006
:101A7000007000400248016841F470010160704745
:101A800088ED00E00148FFF7C9BA0000D00100204E
:101A9000F0B502681F4B204C204D214E4FF0804C7A
:101AA000984207D0604505D0A04203D0A84201D09B
:101AB000B04203D122F070074A683A43984210D0EE
:101AC00060450ED0A0420CD0A8420AD0B04208D047
:101AD000144CA04205D0144CA04202D0134CA0429A
:101AE00003D122F44074CA6822434C6922F0800278
:101AF00022438C68C4620C688462984201D10969EF
:101B00000163016841F0040101600121416102604B
:101B1000F0BD00000000014000040040000800404B
:101B2000000C0040004001400044014000480140DA
:101B300010B5846842EA032224F47F440A43224316
:101B4000826010BD826822F070020A4342F00701F1
:101B50008160704730B5036A026A22F001020262B6
:101B60004268846924F073050C682C4323F0020555
:101B70008B682B430A4DA8420BD123F00805CB6894
:101B800022F440722B434D6923F0040315438A6904
:101B90002A434260846149684163036230BD0000AA
:101BA0000000014030B5026A036A23F010030362AB
:101BB000436884690D6824F4E64444EA05248D688A
:101BC00022F0200242EA05120B4DA8420ED1CD6848
:101BD00022F0800242EA05124D6923F4406343EA91
:101BE00085038D6922F0400243EA850343608461E6
:101BF00049688163026230BD0000014030B5036A6C
:101C0000026A22F4807202624268C46923F400739B
:101C100024F073050C682C438D6843EA05230C4DB2
:101C2000A8420ED1CD6823F4006343EA05234D6931
:101C300022F4405242EA05128D6923F4806342EA9D
:101C400005124260C4614968C163036230BD00008F
:101C50000000014030B5046A026A22F48052026238
:101C60004268C3690D6823F4E64343EA05238D689F
:101C700024F4005444EA0534064DA84204D14D69C9
:101C800022F4804242EA85124260C36149680164DD
:101C9000046230BD0000014010B5036A046A24F0FC
:101CA00001040462846924F0F00444EA021423F07D
:101CB0000A020A438461026210BD10B5036A046A15
:101CC00024F010040462846923F0A00324F4704417
:101CD00044EA023243EA01118261016210BD000050
:101CE00070B5044600680169E26821F4405111436F
:101CF00001612169A068E2690843616911430843F1
:101D00002168CA6849F20C639A430243CA6020689A
:101D10004169A26921F44071114341613149206850
:101D2000884202D03049884202D1FEF7F7FD01E037
:101D3000FEF7E4FDE2690023192164253226B2F59D
:101D4000004F626828D0A0FB0101930F9200FEF7BC
:101D50009FFA0146B0FBF5F06FF01802504301EB1B
:101D6000800006EB0010B0FBF5F000F0F002B1FBD4
:101D7000F5F002EB0012B1FBF5F06FF018035843D9
:101D800001EB800006EB0010B0FBF5F000F00F0057
:101D900021681044886070BDA0FB010192185B416E
:101DA000FEF776FA0146B0FBF5F00201B1FBF5F063
:101DB0006FF01803584301EB800006EBC000B0FB46
:101DC000F5F000F0F80002EB4002B1FBF5F05843EB
:101DD00001EB800006EBC000B0FBF5F000F007005F
:101DE000D6E700000010014000140140FEE70000AB
:101DF00010B5124C03202061606111A0A06104F1B4
:101E0000A800E0614FF4806020620020A062606260
:101E1000E0620BA1216604F5956161661021A1665F
:101E20002067E066606709A1E01DFEF786FA08A159
:101E30002046FEF782FA2020A07110BDEC4A002057
:101E40005465726D696E616C00000000525454005C
:101E500053454747455200000FB4054B10B503A941
:101E6000044A029800F028F810BC5DF814FB00004A
:101E700045200008AC0000200907090E002804DBFB
:101E800000F1E02080F80014704700F00F0000F12E
:101E9000E02080F8141D704702E008C8121F08C136
:101EA000002AFAD170477047002001E001C1121FDB
:101EB000002AFBD1704700002DE9FF4F89B09B46F7
:101EC0000446002506E025280BD05A460B9990477A
:101ED000641C6D1C20780028F5D10DB02846BDE8A3
:101EE000F08F0027B8460122474900E0074314F865
:101EF000013F203B02FA03F00842F7D120782E2858
:101F000019D114F8010F47F004072A280ED06FF0FA
:101F10002F022078A0F1300109290CD808EB8801A4
:101F200002EB410100EB0108641CF2E70A98641C13
:101F300050F8048B0A9020780028CED0642808D06E
:101F4000692806D075281ED05A460B9990476D1CFB
:101F500058E00A994FF00A0901C90A91002802DAEB
:101F600040422D2102E0390504D52B218DF82010A7
:101F7000012103E0F90704D02021F7E78A4608AEE3
:101F80000DE00021FAE70A994FF00A0901C90A9108
:101F9000F7E74946FEF7DAF9303106F8011D002867
:101FA000F7D1ADEB060000F12009780701D44FF01E
:101FB0000108C84502DDA8EB090000E000208046CA
:101FC000002706E008A85A46C05D0B9990476D1C93
:101FD0007F1C5745F6DB04E030205A460B999047AA
:101FE0006D1CB8F10001A8F10108F5DC05E016F858
:101FF000010B5A460B9990476D1CB9F10001A9F1EC
:102000000109F4DC641C65E7092801000C4E00247A
:102010004FF400554FF47A7729463046FEF7D7FA49
:1020200000F024FE641C0121022322460846FFF72B
:1020300025FC00F03BFE384600F0F0FEECE7000027
:102040000008024010B50446C1B20020FFF75AFC58
:10205000204610BD08B500208DF800000246012181
:102060000A2001F099F8124CA06010B911A0FFF7F6
:10207000F3FE642000F048F88DF80000022802D03A
:10208000032802D00FE012A000E016A0FFF7E4FE44
:10209000002364226946A06801F016F9012802D0E5
:1020A00014A0FFF7D9FE0A2000F09FF8E1E7000036
:1020B000940000206B6579207175657565206372E9
:1020C00065617465206661696C65640D0A000000D5
:1020D0006B65792073686F72742070726573730A10
:1020E000000000006B6579206C6F6E672070726570
:1020F00073730A006B65795F717565756520667528
:102100006C6C206E6F770A002DE9FC4100250746B4
:102110008DF800504FF480611E48FEF753FA00B16D
:1021200001208DF804001C4C207828B102260128DB
:102130000BD0022823D112E09DF80400F8B96068A2
:10214000401C60600120207019E09DF8040020B957
:102150006068401C6060267011E025700FE00FA0E1
:102160006168FFF779FE9DF804000028606804D0DC
:10217000B84208D88DF800600AE0401C60609DF805
:102180000000BDE8FC81032065608DF8000025702B
:102190006560E2E700040240940000206E6F772043
:1021A0006B65795F70726573735F74696D65203DEF
:1021B0002025640D0A000000FEF724FAFFF712FC48
:1021C000FFF720F9FFF7ACF9FFF7F6F9FFF766FA2A
:1021D000FFF73EFA00F016F8FFF704F900F024F8D4
:1021E000FEE7012000F01AFEFBE710B5EFF30581D2
:1021F00011B16FF0050403E0002408B100F00EFEF9
:10220000204610BDEFF3058010B16FF00500704758
:102210000448016811B14FF0FF307047012101609F
:10222000002070476400002010B5EFF3058010B166
:102230006FF0050010BD08480168012902D04FF079
:10224000FF3010BD054A002182F8141D02210160F3
:1022500000F094FE002010BD640000200BE000E0C0
:102260002DE9FF414FEA01034FF00005EFF305812F
:10227000039549BB40B38027182100244AB3166850
:1022800006B1344696691EB13146761E382E02D20A
:102290001679F60703D0002004B0BDE8F081566936
:1022A00006B1B708D2F808C0BCF1000F0DD0D56850
:1022B0005C2D18D312693AB136B18DE806103A4652
:1022C000214601F014FA03900DE0D6685EB9126958
:1022D0004AB903AACDE90012BAB2214601F0DAF9EF
:1022E000012800D003950398D6E700002DE9F041BE
:1022F000134C0F460546E6682068001D00F044FCBC
:10230000681C07D137B12168BDE8F0410D48091DAF
:1023100000F0A0BC20683544B5424560216805D274
:10232000A06BBDE8F041091D00F07CBC606B091D8D
:1023300000F078FCA06A854200D2A562BDE8F08179
:1023400014000020080700202DE9F041054600F0A8
:102350008DFC2D4CA068401CA06020682B4F10B154
:10236000606930B32BE02560A068012827D10026E2
:1023700006EB860007EB800000F046FC761C382E4A
:10238000F6D3234800F040FC2148143000F03CFC18
:102390001F48283000F038FC1D483C3000F034FC69
:1023A0001B48503000F030FC194860631430A063C3
:1023B00005E02068E96AC06A884200D82560606A42
:1023C000401C60626864E86A2169884200D9206123
:1023D00000EB800007EB8000291D00F03BFC00F0C3
:1023E00065FC606900280CD02068E96AC06A8842F0
:1023F00007D208494FF080500860BFF34F8FBFF3FA
:102400006F8FBDE8F081000014000020580200200A
:10241000B806002004ED00E038B500F027FC104CB1
:102420002068C8B90F4800F0EFFB0E48143000F0E8
:10243000EBFB0C48E060143020610A4B0020F03BBD
:10244000009003F1500210210A2000F0C6FE206027
:1024500010B105A100F0ACFCBDE8384000F026BC8E
:10246000500000200C080020546D72510000000044
:1024700030B4026C0B46002A0BD0C1681144C16015
:102480008468A14201D30168C16030BC1846FDF7E1
:1024900030BF30BC70472DE9F041856B17460446CC
:1024A0000026026C82B1C7B1E068FDF722FFE16847
:1024B000206C091AE1602268914202D2A168081AD0
:1024C000E060022F16D017E02068A8B9A06801F0DC
:1024D000B1F906460020A0600EE06068FDF709FF34
:1024E000216C606808446060A168884204D3206859
:1024F000606001E005B16D1E6D1CA5633046BDE84E
:10250000F08110B5044690F8590058B101280CD05C
:1025100002280FD0502080F31188BFF34F8FBFF3F4
:102520006F8FFEE7206B00F0D5FB2046BDE8104022
:1025300000F0D0BB10BD000010484FF470514207AE
:1025400006D0C01D0D4920F00700411AC1F5705199
:102550000B4A00230144C2E900030839183A21F06C
:10256000070111604B600B600B1AC0E90013936008
:102570004FF000405360506170470000EC0E0020A7
:1025800080000020144E154CA6F29C474FF0805856
:10259000DFF84C9012E000BF00F068FBF068C568FF
:1025A000281D00F0F1FAA068401EA0606068401E7F
:1025B000606000F07BFB2846FFF7A3FF60680028FF
:1025C000EAD138680128F9D9C9F80080BFF34F8FE4
:1025D000BFF36F8FF2E70000F40600201400002024
:1025E00004ED00E070B51D46049C51B1C4F8002014
:1025F000C4E90F010121204600F022FE84F84C506E
:1026000070BD2460F4E700002DE9F05F8846DDE945
:102610000B941546834691009A460A9EA522206B8C
:10262000FDF779FE6FF00301206B01EB8501084493
:1026300020F00707780707D0502080F31188BFF3F8
:102640004F8FBFF36F8FFEE70025B8F1000F0FD05B
:102650005FF00000221818F8001082F8341018F803
:10266000001011B1401C1028F4D384F8435001E04D
:1026700084F83450382E00D33726E662C4E9136557
:10268000201D00F0CCFA04F1180000F0C8FA246113
:10269000C6F138006462A061656584F858505246FE
:1026A0005946384600F05AFA2060B9F1000F01D0BF
:1026B000C9F80040BDE8F09F30B5114900E011466F
:1026C0000A688242FBD34B685C18844203D140689D
:1026D00018444860084643681C18944209D1084CC5
:1026E000183C2468A24209D052681A4442600A6821
:1026F00012680260814200D0086030BD0460F9E7D2
:102700008000002070B5002441600B4D00619142B3
:1027100006D8D11A8269914206D2011D286907E0C4
:102720009A4203D2994201D3012403E0011DE868D3
:1027300000F078FA204670BD5000002010B5044625
:1027400000F094FAA06B28B15FF0000400F0AEFA3C
:10275000204610BD0124F9E730B589B03C4D6EE04C
:102760000498002806DADDE90601059A90470498E6
:10277000002864DB069C606910B1201D00F004FA9B
:1027800003A800F0D7F8024604980A2857D2DFE8D9
:1027900000F00505052D334A05052D3394F8280072
:1027A00040F0010084F828000599A069059B0144C8
:1027B0002046FFF7A7FF68B3216A2046884794F8B0
:1027C000280040073BD5002000900598A169002310
:1027D00042181946204601F037F9D8B9502080F345
:1027E0001188BFF34F8FBFF36F8FFEE714F8280FE8
:1027F00020F00100207022E094F8280040F0010051
:1028000084F828000598A06128B181181346204655
:10281000FFF778FF13E0502080F31188BFF34F8F4C
:10282000BFF36F8FFEE794F82800810703D420469A
:1028300000F050FA03E020F0010084F828000022A4
:1028400004A9286800F050FE002889D109B030BDE5
:10285000500000202DE9FC410F46054600F0D2FB58
:1028600001A800F067F80446019818B101F05AF881
:10287000BDE8FC81254EAFB130690068D0B30027B8
:10288000291B3A46306800F0A7FA01F04BF80028FF
:10289000EED11F494FF080500860BFF34F8FBFF358
:1028A0006F8FE5E7A542EBD801F03CF8F0682746CA
:1028B000C068C468201D00F067F994F8280041073B
:1028C00019D5A0692B4641193A462046FFF71AFF51
:1028D000A8B100200346014600902A46204601F098
:1028E000B3F860B9502080F31188BFF34F8FBFF366
:1028F0006F8FFEE707E020F0010084F82800216ACE
:1029000020468847B4E70127BAE7000050000020BE
:1029100004ED00E00648416B096829B1416BC968C4
:10292000C9684968816270474FF0FF31FAE70000DB
:102930001400002070B5054600F012FF064E044654
:10294000B068844203D200F009F8012000E00020C2
:1029500028602046B46070BD50000020F8B5194DC5
:1029600020E0C068C4680668201D00F00DF9216AE7
:102970002046884794F82800400713D5A0693044C2
:10298000B04206D924616060211DE86800F04AF970
:1029900008E000200346014600903246204601F040
:1029A00053F838B1E86801680029DAD12969C5E926
:1029B0000310F8BD502080F31188BFF34F8FBFF391
:1029C0006F8FFEE75000002008484068401C4FF021
:1029D000500080F3118804D0BFF34F8FBFF36F8F87
:1029E000FEE7BFF34F8FBFF36F8FFEE78800002035
:1029F000074CE068016841B1C0680021D0F80000D0
:102A0000FFF728FFFFF7A8FEF3E701210020F7E713
:102A1000500000202DE9F041044600F027F994F918
:102A2000455004F1240609E0606A48B1304600F0E0
:102A300041FF08B100F068FA6D1E6DB2002DF3DCA5
:102A40004FF0FF3684F8456000F030F900F00EF9E1
:102A500094F9445004F1100709E0206948B1384660
:102A600000F028FF08B100F04FFA6D1E6DB2002D86
:102A7000F3DC84F84460BDE8F04100F017B90000D1
:102A80002DE9F0410546002700F0BCFA324E3068CF
:102A900008B9FFF751FD706905424ED1C5B308353D
:102AA00068070ED005F00700C0F10800054468076C
:102AB00007D0502080F31188BFF34F8FBFF36F8F83
:102AC000FEE72DB37068854237D823481830014699
:102AD0000C6801E020460C466168A94202D22168D8
:102AE0000029F7D131688C4227D00768216801603E
:102AF00060680837411B10290FD96019420708D0B8
:102B0000502080F31188BFF34F8FBFF36F8FFEE724
:102B100013E041606560FFF7CFFD61687068401A9F
:102B20007060B268904200D2B060706901430020CA
:102B3000C4E90001F068401CF06000F0F3FE780783
:102B400007D0502080F31188BFF34F8FBFF36F8FF2
:102B5000FEE73846BDE8F0816800002010B5031F8D
:102B60004FF080741C601B1F21F001011960191FB8
:102B7000044B0B6014390A60091F6FF002024438DD
:102B80000A6010BDC9290008D0E9013201699A60C4
:102B9000D0E901235A604A68824201D182684A60C2
:102BA000002202610868401E086008687047000043
:102BB000034B036003F15C000860802010607047E5
:102BC00034080020044B036003F15C0008604FF4FC
:102BD0008070106070470000900A002070B5094CAA
:102BE00006462068406A85B22046FEF72DF9206827
:102BF000416A491BB142FBD3BDE870400148FEF772
:102C00008BB900004001002000F108014FF0FF32B5
:102C1000C0E90112C160016100210160704700211B
:102C20000161704730B50B685A1C02D000F10802F0
:102C300002E0026904E02246546825689D42FAD900
:102C400053684B6099608A60516008610168491C53
:102C5000016030BD42684A6093688B609368596038
:102C6000916008610168491C01607047502080F341
:102C70001188BFF34F8FBFF36F8F0A494868401C1C
:102C8000486001280CD10848006810F0FF0F07D0F9
:102C9000502080F31188BFF34F8FBFF36F8FFEE793
:102CA000704700008800002004ED00E008494868F3
:102CB00028B1401E486001D180F311887047502030
:102CC00080F31188BFF34F8FBFF36F8FFEE70000D3
:102CD0008800002070B500282AD0164DA0F1080405
:102CE00060686969084207D1502080F31188BFF3FA
:102CF0004F8FBFF36F8FFEE722683AB1502080F309
:102D00001188BFF34F8FBFF36F8FFEE7884360607A
:102D100000F078F960686968084468602046FFF749
:102D2000CBFC2869401C2861BDE8704000F0FABD6A
:102D300070BD0000680000204FF0E020002101611C
:102D4000816105494FF47A720968B1FBF2F1491EBD
:102D500041610721016170471000002010B5FDF7A7
:102D600081FA114910280ED300F1E02090F8F00309
:102D70000A78904207D2502080F31188BFF34F8F1A
:102D8000BFF36F8FFEE709480068896800F4E060D0
:102D9000884207D9502080F31188BFF34F8FBFF3CB
:102DA0006F8FFEE710BD0000880000200CED00E0F2
:102DB00010B5084B002200BF53F832401CB1521C22
:102DC000082AF9D310BD43F8321003EBC201486062
:102DD00010BD00001802002070B515460E460446CE
:102DE000FFF744FF94F944100020491C01D184F8F6
:102DF000440094F94510491C01D184F84500FFF7BF
:102E000055FFA06B28B92A46314604F1240000F092
:102E100099F82046BDE87040FFF7FCBD10B50200F0
:102E200014D00F48006B38B1502080F31188BFF3E5
:102E30004F8FBFF36F8FFEE700F0E4F800211046DC
:102E4000FFF754FA00F06EFD002807D105494FF056
:102E500080500860BFF34F8FBFF36F8F10BD00002D
:102E60001400002004ED00E070B50546FFF7FEFEFB
:102E70001E4C05B92568281DFFF786FEA86A18B103
:102E800005F11800FFF780FE606A401C6062206850
:102E9000854207D1291D1648FFF7DCFE6068401CFB
:102EA000606007E0A068401EA0602846FFF729FB8D
:102EB000FFF730FDFFF7FAFE6069002814D02068A4
:102EC000854211D1206B38B1502080F31188BFF3B7
:102ED0004F8FBFF36F8FFEE706494FF080500860B9
:102EE000BFF34F8FBFF36F8F70BD00001400002041
:102EF000F406002004ED00E002490A6A0260C96895
:102F0000416070471400002001490120C8617047EA
:102F10001400002010B50C4650B109490968183159
:102F2000FFF780FE2046BDE810400121FFF7DEB923
:102F3000502080F31188BFF34F8FBFF36F8FFEE7F0
:102F40001400002070B514460D4668B10A4909689E
:102F50001831FFF77FFE0CB14FF0FF3521462846B0
:102F6000BDE87040FFF7C2B9502080F31188BFF36D
:102F70004F8FBFF36F8FFEE71400002030B587B08E
:102F80000024039405AA04A903A80494FFF710FEE3
:102F9000DDE903010094CDE90110002315A11748D4
:102FA000059A00F0A4FB164D0028E8621FD000F03F
:102FB0001BFD012809D0401C19D1502080F3118835
:102FC000BFF34F8FBFF36F8FFEE7502080F3118860
:102FD000BFF34F8FBFF36F8F4FF0FF30A862012018
:102FE0006861EC6007B0BDE8304000F045B807B05C
:102FF00030BD000049444C45000000008525000814
:10300000140000200248016B491C01637047000056
:1030100014000020164810B5016B11B10121C161E7
:1030200010BD0021C1610169124A01E0B9B1491E18
:1030300001EB810352F82330002BF7D001EB810321
:1030400002EB830202F1080453685B685360A342F9
:1030500001D15B685360DA680260016110BD5020E5
:1030600080F31188BFF34F8FBFF36F8FFEE700002F
:1030700014000020580200201CB537480168374A68
:10308000914207D1502080F31188BFF34F8FBFF3D7
:103090006F8FFEE700683149491E884207D15020F2
:1030A00080F31188BFF34F8FBFF36F8FFEE72C497A
:1030B00008780190FF20087008788DF800009DF8CE
:1030C00000009DF8002000F0F000904207D0502052
:1030D00080F31188BFF34F8FBFF36F8FFEE79DF82A
:1030E0000000204C00F0500020700720A06005E098
:1030F0009DF8002052008DF80020401E9DF8002011
:103100001206F5D4A060032807D0502080F3118860
:10311000BFF34F8FBFF36F8FFEE74FF44070A06097
:10312000019808700C482030016841F4700101607A
:10313000016841F070410160FFF7FEFD0020606012
:10314000FDF758F80848016841F040410160FDF77B
:103150003DF800201CBD000000ED00E071C20F41F1
:1031600000E400E08800002034EF00E010B55020BB
:1031700080F31188BFF34F8FBFF36F8F00F0F6FA23
:1031800018B104494FF080500860002080F3118886
:1031900010BD000004ED00E0F8B517460E4605002E
:1031A00013D005FB06F05030FFF76AFC04000AD08C
:1031B000002084F8460004F150023B463146284680
:1031C0000094FFF70FFA2046F8BD502080F31188D5
:1031D000BFF34F8FBFF36F8FFEE738B5049D18B173
:1031E00053B1CAB181B120E0502080F31188BFF300
:1031F0004F8FBFF36F8FFEE7502080F31188BFF32E
:103200004F8FBFF36F8FFEE7502080F31188BFF31D
:103210004F8FBFF36F8FFEE739B1502080F31188D5
:10322000BFF34F8FBFF36F8FFEE750241C4601237F
:1032300084F846302B460094FFF7D4F9204638BD79
:1032400070B50D46040025D0FFF710FDD4E90F201E
:10325000216802FB0011A1600021A1632168616067
:103260000A46D4E90F01401E00FB0121E16021461E
:103270004FF0FF3001F8440F487004F110008DB199
:10328000FFF7C2FC04F12400FFF7BEFCFFF70EFDC0
:10329000012070BD502080F31188BFF34F8FBFF322
:1032A0006F8FFEE721690029F0D000F003FB0028B2
:1032B000ECD004494FF080500860BFF34F8FBFF34C
:1032C0006F8FE3E704ED00E02DE9FF4782B01D4674
:1032D0008A464FF00008040003D0BAF1000F08D06E
:1032E00011E0502080F31188BFF34F8FBFF36F8F31
:1032F000FEE7206C38B1502080F31188BFF34F8F68
:10330000BFF36F8FFEE7022D0AD1E06B012807D0D3
:10331000502080F31188BFF34F8FBFF36F8FFEE70C
:1033200000F010FA3F4F4FF000094FF0805648B9B7
:10333000049838B1502080F31188BFF34F8FBFF34A
:103340006F8FFEE7FFF792FCA06BE16B884207D31B
:10335000022D05D00498D0B1B8F1000F1AD01EE0AC
:103360002A4651462046FFF796F8616A19B104F1E2
:10337000240000F09FFA20B13E60BFF34F8FBFF3EF
:103380006F8FFFF793FC012006B0BDE8F087FFF7D1
:103390008DFC22E06846FFF7AFFD4FF00108FFF714
:1033A00085FCFFF72FFEFFF761FC94F94400401CF9
:1033B00001D184F8449094F94500401C01D184F86F
:1033C0004590FFF773FC04A9684600F029F930B175
:1033D0002046FFF71FFB00F0A5FA0020D4E7FFF717
:1033E00045FCA06BE16B884213D1FFF75FFC04F151
:1033F00010000499FFF78EFD2046FFF70BFB00F04D
:1034000091FA00289ED13E60BFF34F8FBFF36F8FBC
:1034100098E7FFF74BFC2046FFF7FCFA00F082FA32
:1034200090E7000004ED00E02DE9F0471F469046CC
:103430008946040003D0B9F1000F08D011E05020F4
:1034400080F31188BFF34F8FBFF36F8FFEE7206CBF
:1034500038B1502080F31188BFF34F8FBFF36F8FC7
:10346000FEE7022F0AD1E06B012807D0502080F33D
:103470001188BFF34F8FBFF36F8FFEE7FFF76EFC2E
:103480005020EFF3118680F31188BFF34F8FBFF305
:103490006F8FA06BE16B884206D3022F04D000200F
:1034A00086F31188BDE8F08794F94550A06B3A4641
:1034B00049462046FEF7EFFF681C04D06D1C84F8D7
:1034C00045500120ECE7606A0028FAD004F124009E
:1034D00000F0F0F90028F4D0B8F1000FF1D001218C
:1034E000C8F80010EDE700002DE9F747002683B08B
:1034F0008A46040003D0BAF1000F08D011E0502032
:1035000080F31188BFF34F8FBFF36F8FFEE7206CFE
:1035100038B1502080F31188BFF34F8FBFF36F8F06
:10352000FEE700F00FF9DFF8F4804FF000094FF0EC
:10353000805748B9059838B1502080F31188BFF3FF
:103540004F8FBFF36F8FFEE7FFF790FBA56BC5B101
:1035500051462046FEF78CFF6D1EA563206950B1D1
:1035600004F1100000F0A6F928B1C8F80070BFF30C
:103570004F8FBFF36F8FFFF799FB012006B0BDE8B7
:10358000F087059808B11EB106E0FFF78FFB27E032
:103590006846FFF7B1FC0126FFF788FBFFF732FD15
:1035A000FFF764FB94F94400401C01D184F8449077
:1035B00094F94500401C01D184F84590FFF776FB53
:1035C00005A9684600F02CF8002820460AD0FFF72D
:1035D00021FA00F0A7F92046FFF7B0F80028B3D091
:1035E0000020CBE7FFF7AAF890B104F12400059979
:1035F000FFF790FC2046FFF70DFA00F093F9002842
:10360000A2D1C8F80070BFF34F8FBFF36F8F9BE755
:103610002046FFF7FFF900F085F995E704ED00E09B
:103620002DE9F0410C46050011D0C4B1FFF71EFB97
:10363000174BDA686E682068911B471C17D02F68FB
:103640001B6A9F4219D0964217D8012410E05020DF
:1036500080F31188BFF34F8FBFF36F8FFEE75020C9
:1036600080F31188BFF34F8FBFF36F8FFEE7002405
:10367000FFF71CFB2046BDE8F081884205D9401ABF
:1036800020602846FFF738FCF1E700202060DCE7E7
:10369000140000202DE9FF5F8346DDE90E8799467F
:1036A00016468A469000FFF7EBF905001CD05C2017
:1036B000FFF7E6F9040014D00020256384F85900D0
:1036C000CDE90240CDE900874B4632465146584687
:1036D000FEF79AFF2046FEF737FE012004B0BDE852
:1036E000F09F2846FFF7F6FA4FF0FF30F6E7F0B507
:1036F00085B0DDE90B640A9DA6B1DCB15C270097BB
:103700002663022684F85960002604AFCDE90246FC
:10371000CDE90057FEF778FF2046FEF715FE049826
:1037200005B0F0BD502080F31188BFF34F8FBFF379
:103730006F8FFEE7502080F31188BFF34F8FBFF3E8
:103740006F8FFEE70548416919B1006B18B1002081
:1037500070470120704702207047000014000020CD
:103760000148C06870470000140000202DE9F041B6
:103770002E4C0027206B28B1A069401CA061384660
:10378000BDE8F081E668761CE66013D1606B0068E6
:1037900038B1502080F31188BFF34F8FBFF36F8F84
:1037A000FEE7606BA16B6163A063206A401C20622E
:1037B000FFF7B0F8A06ADFF87880864209D3606B23
:1037C0000068A0B1606BC068C5686868864211D2A5
:1037D000A0622068C06A00EB800158F8210001282F
:1037E00000D90127E0690028C9D00127C7E74FF0B9
:1037F000FF30EDE7281DFFF7C7F9A86A18B105F1FA
:103800001800FFF7C1F9E86A2169884200D92061F0
:1038100000EB800108EB8100291DFFF71BFAE86A25
:103820002168C96A8842CAD30127C8E7140000206A
:103830005802002070B504004FF0000133D01B4D3A
:103840002868844207D0502080F31188BFF34F8F3F
:10385000BFF36F8FFEE7206D38B1401E2065E36C2B
:10386000E26A9A421FD040B11DE0502080F31188D7
:10387000BFF34F8FBFF36F8FFEE7201DFFF784F973
:10388000E06CE062C0F13800A061E06A296988421A
:1038900000D92861064900EB800001EB8000211D62
:1038A000FFF7D8F90121084670BD00001400002080
:1038B0005802002070B5C068C46854B104F1180003
:1038C0000646FFF761F9144D286B50B13146134895
:1038D00015E0502080F31188BFF34F8FBFF36F8F37
:1038E000FEE7201DFFF750F9E06A2969884200D9F8
:1038F00028610B4900EB800001EB8000211DFFF7E0
:10390000A9F9E06A2968C96A884202D90120E861F8
:1039100070BD002070BD000014000020E0060020F3
:10392000580200202DE9F0472C4D00242746286B33
:1039300038B1FFF79BF9286B401E2863286B40B114
:1039400046E0502080F31188BFF34F8FBFF36F8F95
:10395000FEE7A968224E0120D1B3A6F59169804601
:103960003068E0B1F068C46804F11800FFF70CF9A2
:10397000201DFFF709F9E06A2969884200D928610A
:1039800000EB800109EB8100211DFFF763F9E06A7C
:103990002968C96A8842E3D3C5F81C80E0E70CB106
:1039A000FEF7B8FFAC694CB14FEA0806FFF7DEFE40
:1039B00000B1EE61641EF9D10020A861E86938B158
:1039C0000849012738070860BFF34F8FBFF36F8F97
:1039D000FFF76CF93846BDE8F087000014000020BE
:1039E000E006002004ED00E010B586B0FEF714FDFF
:1039F000114C2068B8B100200390049005AA04A9D6
:103A000003A8FFF7DFF8DDE9032102208DE80700B6
:103A100000230AA10B48059AFFF769FE606010B108
:103A200006B0012010BD502080F31188BFF34F8FE6
:103A3000BFF36F8FFEE7000050000020546D72202E
:103A400053766300F12900082DE9FF411E46134615
:103A500002000A9D4FF0000016D0144C2768002F7A
:103A60000FD0CDE900130292062917DAFFF76AFE9C
:103A700002284FF000030FD0002269462068FFF7AC
:103A800023FC04B0BDE8F081502080F31188BFF31F
:103A90004F8FBFF36F8FFEE72A46EEE700233246D3
:103AA00069463846FFF7C0FCEBE7000050000020F5
:103AB0004841000800000000000000000000000075
:103AC00000000000000200001800000000000000DC
:103AD00000000000000000000000000001020304DC
:103AE0000607080900000000010203045441000811
:103AF00000000000000000000000000000000000C6
:103B000000020000100000000000000000000000A3
:103B100000000000000000000000000000000000A5
:103B2000000000F80000000000000033300000003A
:103B300000100C06100C0600000000000000000041
:103B400040C07840C0784000043F04043F040400B3
:103B5000007088FC08300000001820FF211E0000C3
:103B6000F008F000E018000000211C031E211E00D8
:103B700000F00888700000001E212324192721105E
:103B800010160E0000000000000000000000000001
:103B9000000000E0180402000000000718204000A8
:103BA00000020418E0000000004020180700000098
:103BB000404080F0804040000202010F01020200FC
:103BC000000000F0000000000101011F01010100E0
:103BD000000000000000000080B070000000000045
:103BE00000000000000000000001010101010101CE
:103BF0000000000000000000003030000000000065
:103C00000000000080601804006018060100000039
:103C100000E010080810E000000F102020100F0036
:103C2000001010F8000000000020203F20200000BD
:103C30000070080808887000003028242221300015
:103C400000300888884830000018202020110E001D
:103C50000000C02010F8000000070424243F2400C6
:103C600000F80888880808000019212020110E009B
:103C700000E0108888180000000F112020110E00AD
:103C800000380808C83808000000003F00000000A5
:103C90000070880808887000001C222121221C0066
:103CA00000E010080810E0000000312222110F008F
:103CB000000000C0C0000000000000303000000024
:103CC0000000008000000000000080600000000094
:103CD00000008040201008000001020408102000AD
:103CE00040404040404040000404040404040400F8
:103CF000000810204080000000201008040201008D
:103D0000007048080808F00000000030360100008C
:103D1000C030C828E810E0000718272423140B003F
:103D20000000C038E0000000203C230202273820B9
:103D300008F8888888700000203F202020110E009D
:103D4000C030080808083800071820202010080094
:103D500008F808080810E000203F202020100F007D
:103D600008F88888E8081000203F20202320180049
:103D700008F88888E8081000203F200003000000B1
:103D8000C03008080838000007182020221E020052
:103D900008F808000008F808203F210101213F2011
:103DA000000808F8080800000020203F202000003C
:103DB00000000808F8080800C08080807F0000002C
:103DC00008F888C028180800203F20012638200065
:103DD00008F8080000000000203F202020203000CC
:103DE00008F8F800F8F80800203F003F003F2000E6
:103DF00008F830C00008F808203F200007183F00EE
:103E0000E01008080810E0000F10202020100F001C
:103E100008F808080808F000203F2101010100000F
:103E2000E01008080810E0000F18242438504F0054
:103E300008F8888888887000203F2000030C302014
:103E400000708808080838000038202121221C0052
:103E5000180808F8080818000000203F200000009B
:103E600008F808000008F808001F202020201F0084
:103E70000878880000C83808000007380E010000E4
:103E8000F80800F80008F800033C0700073C0300AE
:103E9000081868808068180820302C03032C302014
:103EA0000838C800C83808000000203F2000000083
:103EB00010080808C83808002038262120201800DB
:103EC000000000FE020202000000007F40404000AF
:103ED000000C30C000000000000000010638C000E7
:103EE00000020202FE000000004040407F0000008F
:103EF00000000402020204000000000000000000B4
:103F000000000000000000008080808080808080B1
:103F10000002020400000000000000000000000099
:103F200000008080808000000019242222223F208F
:103F300008F8008080000000003F112020110E00D2
:103F40000000008080800000000E11202020110061
:103F5000000000808088F800000E112020103F2013
:103F60000000808080800000001F22222222130097
:103F7000008080F0888888180020203F20200000E2
:103F80000000808080808000006B94949493600097
:103F900008F8008080800000203F210000203F20A2
:103FA00000809898000000000020203F20200000A2
:103FB000000000809898000000C08080807F000092
:103FC00008F8000080808000203F24022D3020006F
:103FD000000808F8000000000020203F202000001A
:103FE0008080808080808000203F20003F20003F34
:103FF0008080008080800000203F210000203F2042
:104000000000808080800000001F202020201F00F2
:10401000808000808000000080FFA12020110E0021
:104020000000008080808000000E112020A0FF8012
:10403000808080008080800020203F2120000100BF
:104040000000808080808000003324242424190014
:10405000008080E0808000000000001F2020000021
:104060008080000000808000001F202020103F2062
:10407000808080000080808000010E3008060100F2
:1040800080800080008080800F300C030C300F0097
:1040900000808000808080000020312E0E312000C2
:1040A000808080000080808080818E7018060100F2
:1040B00000808080808080000021302C2221300010
:1040C00000000000807C020200000000003F404031
:1040D00000000000FF00000000000000FF000000E2
:1040E0000002027C800000000040403F0000000011
:1040F00000060101020204040000000000000000AC
:104100006441000800000000000000000000000002
:104110000000000000020000180000000000000085
:1041200000000000744100080000000000000000D2
:10413000000000000000000000020000300000004D
:10414000000000000000000073746172745F54612D
:10415000736B00004B65795F526561645F546173F6
:104160006B000000446973706C61795F5461736B1C
:10417000000000004D6F746F725F436F6E74726F5A
:104180006C5F5461736B0000A841000800000020C0
:10419000B0000000981E000858420008B00000203F
:1041A000F8560000A81E00080000000001000000F2
:1041B00010000000000000000024F40000000000D7
:1041C00000000000000000000000000000000000EF
:1041D00000000000000000000000000000000000DF
:1041E00000000000000000000000000000000000CF
:1041F00000000000000000000000000000000000BF
:1042000000000000000000000000000000000000AE
:10421000000000000000000000000000000000009E
:10422000000000000000000000000000000000008E
:1042300000000000AAAAAAAA0000000000000000D6
:10424000000000000000000000000000000000006E
:08425000000000000000000066
:040000050800019955
:00000001FF
